:100000000C9496000C94A8000C94A8000C94A800E2
:100010000C941D100C94990F0C94A8000C944C1087
:100020000C94A8000C94A8000C94A8000C94A800B0
:100030000C94A8000C94870F0C94A8000C94A800B2
:100040000C94A8000C94A8000C94A8000C94A80090
:100050000C94A8000C94A8000C94A8000C94A80080
:100060000C94A8000C94A8000C94A8000C94E30F26
:100070000C94A8000C94A8000C94A800E100E400E3
:10008000E700EA00ED00F000F300F600F9001F01C0
:1000900008010A010C010E011001120114011701DF
:1000A0001A012C012F013201350138013B013E01BB
:1000B000410144015901590159015901590159019D
:1000C000590147014A014D01500153015601910167
:1000D0006501670169016B016E01710174017701AE
:1000E0007A018C018C018C018C018C018C018C01BA
:1000F0008F017D018001830186018901F402F602EE
:10010000F802FA02FC02FE020003020304030603E3
:1001100008030A030C030E03100312030B0F0E0F48
:10012000210F310F3B0F450F4F0F590F11241FBEE9
:10013000CFEFCDBFDFE3DEBF29E3A0E0B8E301C02E
:100140001D92A530B207E1F70E944B0E0C949A1154
:100150000C9400000E946011089529E038E3209378
:10016000033930930439A091FF38B09100391597C5
:10017000E0910339F09104399F012F5F3F4F2093A5
:100180000339309304399181981306C092819613F4
:1001900003C09381941731F02A173B0748F38AE98B
:1001A00092E0089580E090E00895482F862F90E037
:1001B000FC01F197E930F105F8F4E25CFF4F0C9493
:1001C0008E1181E090E01AC082E090E017C083E0D9
:1001D00090E014C084E090E011C085E090E00EC093
:1001E00086E090E00BC087E090E008C088E090E0F7
:1001F00005C089E090E002C080E090E050E0FA01A4
:10020000F097EA30F105C8F4E95BFF4F0C948E11CA
:100210000A960895449608954E96089588960895EE
:10022000C2960895CC9608958A5B9F4F0895805B8F
:100230009F4F0895865A9F4F089580E090E008955B
:10024000482F862F90E0FC01F197E631F10588F503
:10025000EF5AFF4F0C948E1181E090E02CC082E0A9
:1002600090E029C083E090E026C084E090E023C0C5
:1002700085E090E020C086E090E01DC087E090E03F
:100280001AC088E090E017C089E090E014C08AE0CE
:1002900090E011C08BE090E00EC08CE090E00BC0CD
:1002A0008DE090E008C08EE090E005C08FE090E027
:1002B00002C080E090E050E0FA01F097E731F105EC
:1002C00058F5E959FF4F0C948E1140960895809689
:1002D0000895C0960895805C9F4F0895805B9F4F5E
:1002E0000895805A9F4F089580599F4F08958058D0
:1002F0009F4F089580579F4F089580EB90E0089599
:1003000080EC90E0089580ED90E0089580EE90E01C
:10031000089580EF90E0089580E090E0089580EAED
:1003200090E00895AB01BC014115510561057105CF
:1003300061F40895000001968A3921E09207D1F70F
:10034000415051096109710919F080E090E0F2CF44
:1003500008956F927F928F929F92AF92BF92CF92A9
:10036000DF92EF92FF920F931F93CF93DF9385E07D
:10037000809392018EE08093840183E08093400A11
:1003800084E08093410A80E18093440AA895259AED
:10039000219A029A44982D9A299A0A9800000000FE
:1003A000000000002D9800000000000000000A9AE4
:1003B00061E070E080E090E00E94920168949924EE
:1003C00094F800E010E00F2EF5E4AF2EFAE0BF2E17
:1003D000F02D772473940F2EF4E4CF2EFAE0DF2E65
:1003E000F02D0F2EF1E18F2EF02D0F2EFCE4EF2ECD
:1003F000FAE0FF2EF02DC6E4DAE06894662464F893
:10040000299861E070E080E090E00E949201F5019F
:100410007082F60180820000000000000000299A2E
:10042000F70180819181A8958881811107C088E2B8
:1004300093E22881211102C00197D9F7F701808149
:100440009181080F191FF5011082F6016082F501F4
:10045000108262E070E080E090E00E9492019A9445
:100460009110CECFC80195958795959587959595CF
:10047000879595958795DF91CF911F910F91FF906B
:10048000EF90DF90CF90BF90AF909F908F907F9034
:100490006F900895CF93C82F429A882381F04A988D
:1004A0006AE070E080E090E00E9492014A9A62E384
:1004B00070E080E090E00E949201C15081F7429884
:1004C000E2E5F4E0808188608083CF910895AB01FC
:1004D000BC01411551056105710559F408950000ED
:1004E00001968E329105D9F7415051096109710980
:1004F00019F080E090E0F3CF0895662371F0DC01FD
:100500009C01260F311DE0E0F8E0948195FFFDCFBE
:100510009D919283A217B307C1F70895CF93DF93FC
:10052000CDB7DEB7C159D109CDBFDEBF68EE73E0EC
:1005300080E090E00E9492018DE1E8E3F3EADE01C1
:10054000119601900D928A95E1F76DE1CE01019629
:100550000E947D028DE1E5E5F3EADE015E96019001
:100560000D928A95E1F76DE1CE014E960E947D02D3
:100570008DE1E2E7F3EADE01DB9601900D928A95C8
:10058000E1F76DE1CE01CB960E947D028DE1EFE8AF
:10059000F3EADE01A85ABF4F01900D928A95E1F768
:1005A0006DE1CE01885A9F4F0E947D028DE1ECEAF9
:1005B000F3EADE01AB58BF4F01900D928A95E1F747
:1005C0006DE1CE018B589F4F0E947D02CF56DF4FC9
:1005D000CDBFDEBFDF91CF9108958F7090E0FC0119
:1005E000E258FF4F0C948E1180E3089581E3089543
:1005F00082E3089583E3089584E3089585E30895ED
:1006000086E3089587E3089588E3089589E30895CC
:1006100081E4089582E4089583E4089584E40895CC
:1006200085E4089586E408951F93CF93DF93EC014A
:100630000E94ED02182FCE01959587959595879587
:1006400095958795959587950E94ED0290E0982F56
:100650008827810F911DDF91CF911F910895DF921F
:10066000EF92FF920F931F93CF93DF9300D000D0B0
:10067000CDB7DEB77C01162F8F2D90E00E941403BA
:10068000082FD92EC70199270E941403D9820A8303
:100690009B838C83123051F0133071F0113091F440
:1006A00061E0CE0104960E947D0211C062E0CE019D
:1006B00003960E947D020BC063E0CE0102960E9469
:1006C0007D0205C064E0CE0101960E947D02249661
:1006D000CDBFDEBFDF91CF911F910F91FF90EF90C3
:1006E000DF900895CF93DF93CDB7DEB72897CDBFC6
:1006F000DEBF0E94551188E0E9ECF3EADE011196B5
:1007000001900D928A95E1F768E0CE0101960E9472
:100710007D026AE070E080E090E00E9492012896FD
:10072000CDBFDEBFDF91CF91089561E08AEF93EAFC
:100730000E947D026AE070E080E090E00E949201F9
:1007400008958AE098E38093FF389093003980E021
:1007500090E028E5E091FF38F0910039E80FF91FAB
:1007600020830196863B9105A9F78AE098E3809360
:10077000FF38909300390895BF92CF92DF92EF92A5
:10078000FF920F931F93CF93DF93CDB7DEB76F9791
:10079000CDBFDEBF8FE0E1EDF3EADE0111960190FF
:1007A0000D928A95E1F704E0B12CC12C6894DD2408
:1007B000D3F80F2EF1ECEF2EF8E3FF2EF02DA895D5
:1007C0006FE0CE0101960E947D020E94A103F60116
:1007D0008581806885831092F73878948091F73806
:1007E00081110AC064E670E080E090E00E9492010E
:1007F0001FE0115009F00CC18091F5389091F63846
:1008000001968093F5389093F638813DF2E09F078A
:1008100024F02091FE38213019F48D3A934034F0C1
:100820008AE9809302398AE992E0F9C0F60185816C
:100830008F77858341E464E48AE50E94AD00892BCB
:1008400009F067C02091033930910439D90112971A
:10085000F8E3A03CBF0709F078F4FD0180818A32FB
:1008600069F0319610E0DF011827EE16FF0639F027
:1008700081918A32C1F703C010E001C010E01296E6
:100880006C91129711968C910E942001212F30E0DB
:1008900028173907F1F534C0CF0101968093033949
:1008A0009093043981818C3261F52F5F223049F5B4
:1008B00022812C3271F13681383559F18B2D90E03F
:1008C000A4E1B0E0AC0FBD1FA80FB91F3C93A0E19D
:1008D000B0E0AC0FBD1FA80FB91F35813C93A8E154
:1008E000B0E0AC0FBD1FA80FB91F33813C93ECE102
:1008F000F0E0EC0FFD1FE80FF91F2083B39409C04F
:1009000020E0E0910339F091043988E3E03CF807F6
:1009100018F2015009F053CF1F8981E09E8991138D
:1009200080E09D89191301C08F5F9C89191301C054
:100930008F5F833008F45DC00B8981E09A89901342
:1009400080E09989091301C08F5F9889091301C05C
:100950008F5F833008F450C0FB8C81E09A8D9F112B
:1009600080E0998DF91201C08F5F988DF91201C056
:100970008F5F833008F443C0EF8C81E09E8D9E1121
:1009800080E09D8DE91201C08F5F9C8DE91201C04E
:100990008F5F8330B8F12091EB38ECEDF8E385EF11
:1009A00098E31192E817F907E1F72093EB38ECE2AE
:1009B000FE1659F1E0910339F09104396285818581
:1009C0000E94D5000F2EFCEDCF2EF8E3DF2EF02D88
:1009D000F6018187612F802F0E94D500F601828762
:1009E0006F2D8E2D0E94D500F601838780E090E068
:1009F00016C08AE992E013C08AE992E010C08AE941
:100A000092E00DC08AE992E00AC08AE992E007C04C
:100A100064E670E080E090E00E949201EACE6F967A
:100A2000CDBFDEBFDF91CF911F910F91FF90EF906F
:100A3000DF90CF90BF9008950E94BC03009739F4D7
:100A4000E0910339F09104392285283539F50E9467
:100A5000BC03009739F4E0910339F0910439228501
:100A60002835E1F40E94BC03009739F4E091033982
:100A7000F09104392285283589F40E94BC0300973F
:100A800041F4E0910339F09104392285283531F49D
:100A900003C08AE992E008958AE992E00895CF922E
:100AA000DF92EF92FF920F931F93CF93DF931092F9
:100AB00002396894CC24C2F8D12CE12C6894FF242C
:100AC000F3F801EC18E3A8950E94A103E7018D81DA
:100AD00080688D831092F73878948091F73881116F
:100AE0000AC064E670E080E090E00E949201CFE0EE
:100AF000C15009F083C08091F5389091F638019685
:100B00008093F5389093F638813DD2E09D0724F02C
:100B10002091FE38213019F48D3A934034F08AE95F
:100B2000809302398AE992E070C0E7018D818F7766
:100B30008D8343E46DE482E50E94AD00892B09F0CA
:100B400044C0E0910339F0910439DF011297D8E3F2
:100B5000A03CBD0709F078F4ED0188818A3269F084
:100B60003197C0E0DF01C827E017F10739F0819124
:100B70008A32C1F703C0C0E001C0C0E012966C9198
:100B8000129711968C910E9420012C2F30E028178B
:100B90003907D9F411C0CF0101968093033990939E
:100BA000043981818C3249F42F5F223031F4828103
:100BB000813459F4D39409C020E0E0910339F091D5
:100BC0000439D8E3E03CFD0730F3CA94C1107BCF71
:100BD000E1E0ED1568F4E0910339F0910439818189
:100BE000813431F489E28093023980E090E00DC0D5
:100BF0008AE9809302398AE992E007C064E670E0EE
:100C000080E090E00E94920173CFDF91CF911F911D
:100C10000F91FF90EF90DF90CF9008958F929F9269
:100C2000AF92BF92CF92DF92EF92FF920F931F93FA
:100C3000CF93DF93CDB7DEB7AF97CDBFDEBF8FE0E9
:100C4000E0EEF3EADE01119601900D928A95E1F74C
:100C500021E02F8F92E09A8F83E0898F2F8B9A8BE0
:100C6000898B2FA39AA389A36894BB24B3F8A12CE2
:100C7000C12C6894DD24D3F80F2EF1ECEF2EF8E3AD
:100C8000FF2EF02DA8956FE0CE0101960E947D0207
:100C90000E94A103D60115968C9115978068159630
:100CA0008C931092F73878948091F73881110AC0AC
:100CB00064E670E080E090E00E9492011FE0115035
:100CC00009F0E7C10091F5381091F638013DB2E026
:100CD0001B0724F08091FE38813021F40D3AE3E0C7
:100CE0001E0734F08AE9809302398AE992E0D8C17C
:100CF0000F5F1F4F912E0093F5381093F638D601F1
:100D000015968C9115978F7715968C9343E56EE425
:100D100087E40E94AD00892B09F07BC02091033944
:100D200030910439D9011297E8E3A03CBE0709F0DD
:100D300078F4FD0180818A3269F03196812CDF01DF
:100D40008826EE15FF0539F081918A32C1F703C07C
:100D5000812C01C0812C12966C91129711968C9166
:100D60000E942001282D30E02817390709F051C0D2
:100D700046C0CF0101968093033990930439818155
:100D80008C32F1F52F5F2230D9F582818C3209F453
:100D900040C08835F1F18A2D90E048E150E04C0FD9
:100DA0005D1F480F591F9F0127503109D9012C9110
:100DB000DA012C9340E150E04C0F5D1F480F591FA2
:100DC0009F0128503109D9012C91DA012C9340E27E
:100DD00050E04C0F5D1F480F591F9F0125503109EE
:100DE000D9012C91DA012C93A8E2B0E0AC0FBD1F21
:100DF000A80FB91F369720812C93A3940AC020E036
:100E0000E0910339F0910439B8E3E03CFB0708F4C2
:100E1000B0CFBA94B11036CF6F8D81E09E8D96130E
:100E200080E09D8D691301C08F5F9C8D691301C0A7
:100E30008F5F9B8D691301C08F5F9A8D691301C00D
:100E40008F5F998D691301C08F5F988D691301C001
:100E50008F5F863008F40EC18F8991E02E892813A8
:100E600090E02D89821301C09F5F2C89821301C0FD
:100E70009F5F2B89821301C09F5F2A89821301C063
:100E80009F5F2989821301C09F5F2889821301C057
:100E90009F5F963008F4F1C0EFA491E02EA52E11CB
:100EA00090E02DA5E21201C09F5F2CA5E21201C0C7
:100EB0009F5F2BA5E21201C09F5F2AA5E21201C02D
:100EC0009F5F29A5E21201C09F5F28A5E21201C021
:100ED0009F5F963008F4D4C0FFA091E02EA12F119F
:100EE00090E02DA1F21201C09F5F2CA1F21201C06F
:100EF0009F5F2BA1F21201C09F5F2AA1F21201C0D5
:100F00009F5F29A1F21201C09F5F28A1F21201C0C8
:100F10009F5F963008F4B7C0ECE2FE1609F4B6C045
:100F20000E94D5000F2EFCEDCF2EF8E3DF2EF02D22
:100F3000D6011C968C936F2D8E2D0E94D500F60144
:100F40008587E0900339F0900439D7011497F701B1
:100F500035976C9180810E94D500D6011E968C93A6
:100F6000F70160A1878D0E94D500D60150968C9321
:100F7000F70184858E3421F480E88093DC3802C048
:100F80001092DC38D70112966C91129711968C91C1
:100F90000E94D5000F2EFCEDCF2EF8E3DF2EF02DB2
:100FA000F6019081890F8083D70114966C91149774
:100FB00013968C910E94D500F6018183D701179674
:100FC0006C91179716968C910E94D500F60182833A
:100FD000D70119966C91199718968C910E94D5009B
:100FE000F6018383D7015A968C91853421F48DE2E2
:100FF0008093E03803C08BE28093E038F701868568
:10100000813319F484E68093E138D70150966C91CE
:1010100050971F968C910E94D5000F2EFCEDCF2E7D
:10102000F8E3DF2EF02DF6019581890F8583D70136
:1010300052966C91529751968C910E94D500F60170
:101040008683D70155966C91559754968C910E9442
:10105000D500F6018783D70157966C91579756961E
:101060008C910E94D500F6018087918A028B80E0E6
:1010700090E016C08AE992E013C08AE992E010C0BD
:101080008AE992E00DC08AE992E00AC08AE992E01A
:1010900007C064E670E080E090E00E9492010FCE0D
:1010A000AF96CDBFDEBFDF91CF911F910F91FF9023
:1010B000EF90DF90CF90BF90AF909F908F9008956A
:1010C0000E940E06009761F4E0910339F091043913
:1010D00023A5283529F02091EC38243008F045C0AC
:1010E0000E940E06009759F4E0910339F0910439FB
:1010F00023A5283521F02091EC382430B0F50E944A
:101100000E06009759F4E0910339F091043923A5B4
:10111000283521F02091EC38243038F50E940E0655
:10112000009759F4E0910339F091043923A528354B
:1011300021F02091EC382430C0F40E940E06009774
:1011400061F4E0910339F091043923A5283541F089
:101150002091EC38243038F008958AE992E008951F
:101160008AE992E008958AE992E008950F931F9327
:10117000CF93DF936623C1F1EC018C01060F111DA3
:101180008FEF9FEF1BC0BC01660F771FFD01E423AB
:10119000F523EF2B11F06F5F7F4F569547959923FD
:1011A00034F4CB01E1E28E27E0E19E2701C0CB01C0
:1011B0002150310941F70C171D07C1F0A991B0E08A
:1011C00028E030E040E850E0DECF99233CF4880F7F
:1011D000991F41E2842740E1942702C0880F991F9C
:1011E0002150310991F705C08FEF9FEF20E130E0EA
:1011F000ECCFDF91CF911F910F910895F894209833
:10120000E0E3F4E08081877F80834398E3E5F4E0C6
:101210008081877F8083539B06C087E893E1539B3F
:1012200002C00197E1F7309B02C080E801C080E076
:10123000539968C099EF539965C09150E1F762C026
:10124000539B02C09150E1F73099806453995EC07E
:1012500099EF53995BC09150E1F758C0539B02C07E
:101260009150E1F730998062539954C099EF5399A6
:1012700051C09150E1F74EC0539B02C09150E1F72D
:101280003099806153994AC099EF539947C0915062
:10129000E1F744C0539B02C09150E1F73099886058
:1012A000539940C099EF53993DC09150E1F73AC02E
:1012B000539B02C09150E1F730998460539936C036
:1012C00099EF539933C09150E1F730C0539B02C05E
:1012D0009150E1F73099826053992CC099EF53995E
:1012E00029C09150E1F726C0539B02C09150E1F70D
:1012F00030998160539922C099EF53991FC0915042
:10130000E1F70895539BA0CF99EF9ACF539BAACFB3
:1013100099EFA4CF539BB4CF99EFAECF539BBECFE1
:1013200099EFB8CF539BC8CF99EFC2CF539BD2CF81
:1013300099EFCCCF539BDCCF99EFD6CF0895209A6D
:10134000882314F0289893C0289A91C029EF30E0A0
:10135000539B8FC021503109D9F78BC0539903C0DB
:1013600021503109D9F786FD02C0289887C0289AF4
:1013700085C029EF30E0539B83C021503109D9F754
:101380007FC0539903C021503109D9F785FD02C0B0
:1013900028987BC0289A79C029EF30E0539B77C00A
:1013A00021503109D9F773C0539903C02150310935
:1013B000D9F784FD02C028986FC0289A6DC029EF24
:1013C00030E0539B6BC021503109D9F767C0539966
:1013D00003C021503109D9F783FD02C0289863C0AA
:1013E000289A61C029EF30E0539B5FC0215031093A
:1013F000D9F75BC0539903C021503109D9F782FD59
:1014000002C0289857C0289A55C029EF30E0539B56
:1014100053C021503109D9F74FC0539903C021500F
:101420003109D9F781FD02C028984BC0289A49C0DC
:1014300029EF30E0539B47C021503109D9F743C011
:10144000539903C021503109D9F780FD02C0289873
:101450003FC0289A3DC089EF90E0539B3BC0019765
:10146000E1F738C053993BC00197E1F708955399CC
:101470006DCF539978CF29EF30E070CF539979CF62
:10148000539984CF29EF30E07CCF539985CF53997E
:1014900090CF29EF30E088CF539991CF53999CCFCB
:1014A00029EF30E094CF53999DCF5399A8CF29EFDE
:1014B00030E0A0CF5399A9CF5399B4CF29EF30E0B2
:1014C000ACCF5399B5CF5399C0CF29EF30E0B8CF07
:1014D0005399C1CF539903C089EF90E0C3CF0895CA
:1014E0000F931F93CF93DF938C01209A439867E16A
:1014F0000E94B608F801978B808FC0E3D5E7289843
:1015000061E070E080E090E00E946702539B1AC0A7
:101510002197A9F717C08FE295E7539B15C0019754
:10152000E1F712C0539902C00197E1F7409A489A37
:10153000E801075E1F4F89910E949F090C171D0744
:10154000D1F707C05399E7CF5399F0CF8FE295E7D2
:10155000E9CFDF91CF911F910F910895CF92DF9244
:10156000EF92FF920F931F93CF93DF93CDB7DEB728
:101570002B97CDBFDEBFF8940E94FE0889830E949E
:10158000FE088A830E94FE088B830E94FE088C83DB
:1015900062E0CE0101960E94B608209A2B8130E0CD
:1015A000322F22274C81240F311D8217930709F017
:1015B00015C189818093F83800EC18E380910438D4
:1015C000F8018187EA81F0E0E452F74C8081F8016C
:1015D000808F43986AE1C8010E94B608F801928F93
:1015E000838F8081882314F0289823C1289A21C1F1
:1015F0008FE295E7539B1FC10197E1F71CC1F801EA
:1016000081918F010E949F090C151D05C1F720983B
:10161000309B0BC018EC02C0309B08C000000000DB
:10162000000000001150C1F701C018EC0E945511D4
:101630000E9455118AE08A878DE08B8762E0CE0197
:101640000A960E947D020F2EF0ECCF2EF8E3DF2EDB
:10165000F02DF601818162E090E00E942F03F601F7
:10166000828162E090E00E942F03F601838162E0B4
:1016700090E00E942F03F601848162E090E00E94D6
:101680002F03F601858162E090E00E942F03F601AE
:10169000868162E090E00E942F03F601878162E07C
:1016A00090E00E942F03F601808562E090E00E94A6
:1016B0002F030E949503F601818562E090E00E946D
:1016C0002F030E949503F601828562E090E00E945C
:1016D0002F030E949503F601838562E090E00E944B
:1016E0002F030E949503F601848562E090E00E943A
:1016F0002F030E949503F601858562E090E00E9429
:101700002F030E949503F601868562E090E00E9417
:101710002F030E949503F601878562E090E00E9406
:101720002F030E949503F601808962E090E00E94F9
:101730002F030E949503F601818962E090E00E94E8
:101740002F030E949503F601828962E090E00E94D7
:101750002F030E949503F601838962E090E00E94C6
:101760002F030E949503F601848962E090E00E94B5
:101770002F030E949503F601858962E090E00E94A4
:101780002F030E949503F601868962E090E00E9493
:101790002F0362E0CE010A960E947D02A89562E3C3
:1017A00070E080E090E00E9492011123D1F18AE084
:1017B0008093053881E080930338109206381092A8
:1017C000043886ED98E3F70111927F01E817F907D5
:1017D000D1F7E0ECF8E3168A178A23C08AE08A87FB
:1017E0008DE08B870E9455110E94551162E0CE0159
:1017F0000A960E947D0263E08FEE93EA0E947D02CA
:1018000062E0CE010A960E947D0268E083EF93EACF
:101810000E947D02A89562E370E080E090E00E9463
:101820009201E0E4F4E08185826081877894898187
:1018300010C05399DDCE0F2EF0ECEF2EF8E3FF2E03
:10184000F02D0F2EFCEDCF2EF8E3DF2EF02D8701CB
:10185000D6CE2B96CDBFDEBFDF91CF911F910F91DA
:10186000FF90EF90DF90CF9008952398E3E3F4E0AA
:101870009081977F90832A9A229A2CE635E02093D4
:10188000080830930908882321F080EC809306082B
:1018900010C02398E3E3F4E08081877F80832A9A55
:1018A000229AE0E0F8E08CE695E08087918780E47A
:1018B0008683E0E0F8E08181808108950498E4E186
:1018C000F4E0808188608083459A4D9A8AE098E3AD
:1018D0008093FF389093003981E00E94350C089581
:1018E00010920608239A229A2A982B980895459ACE
:1018F0004D98E4E1F4E08081877F8083049A0C981E
:101900000E94700C0895BF92CF92DF92EF92FF92E7
:101910000F931F93CF93DF936894BB24B3F800E039
:1019200018E0C6E3D4E00F2EF9EFEF2EF02D0F2EC6
:10193000F3E0FF2EF02DA8956AEF70E080E090E0D4
:101940000E9492010E94A103F8018581806885832D
:1019500078940E944F056C018881887F826088831B
:10196000FA94FF2031F0FAE9CF16F2E0DF0619F31E
:101970001FC0EA94EE2031F08AE9C81682E0D8064A
:10198000B1F219C00E94770C68EE73E080E090E03D
:101990000E9492010E945E0C0E948E02BA94BB20AB
:1019A00051F0EAE9CE16E2E0DE0609F4BCCF03C04E
:1019B000F1E0EF1639F3C601DF91CF911F910F913E
:1019C000FF90EF90DF90CF90BF900895CF93DF937B
:1019D0000098E0E1F4E09081986090830198E1E163
:1019E000F4E09081986090830398E3E1F4E09081C3
:1019F00098609083E4E1F4E09081977F9083049A6B
:101A00000C980598E5E1F4E0908198609083069841
:101A1000E6E1F4E09081986090830798E7E1F4E0D4
:101A20009081986090832098E0E3F4E09081977F24
:101A300090832198E1E3F4E090819860908322986C
:101A4000E2E3F4E09081977F90832398E3E3F4E06E
:101A50009081977F90832498E4E3F4E090819860EC
:101A600090832598E5E3F4E0908198609083269830
:101A7000E6E3F4E09081977F90832798E7E3F4E032
:101A80009081986090834098E0E5F4E090819860C0
:101A900090834198E1E5F4E09081986090838823F9
:101AA00029F08081887F8560808305C0E1E5F4E0CE
:101AB0008081887F80834298E2E5F4E080818860BD
:101AC00080834398E3E5F4E08081877F80834498B6
:101AD000E4E5F4E0808188608083C5E5D4E0888116
:101AE000877F8883459A4D981092A1001092000636
:101AF0000E94770C888188608883DF91CF91089558
:101B00000F931F93CF93DF930E945E0C0E948E026F
:101B10000E948E020E948E021092F5381092F638C2
:101B20001092EB380E94830C8C01892B59F00E9493
:101B3000770C0AE912E04EC0C15029F40FC0C11160
:101B400009C00CC0CFE00E941C05892BA9F7F7CF74
:101B5000C15021F00E946008892BD1F76AE08CEF18
:101B600093EA0E947D02F894C0E0A895CF5F409A66
:101B700048988CED98E30E94700A0E94FE08D82FC6
:101B80006AE087E094EA0E947D0262E08D2F90E097
:101B90000E942F036C2F629566956695637070E0C6
:101BA00080E090E00E949201D73411F0CE31E9F646
:101BB0007894A89560ED77E080E090E00E94920133
:101BC000A89560ED77E080E090E00E949201A895F2
:101BD0000E94700CC801DF91CF911F910F91089561
:101BE00080E090E00000019688329105D9F70895D1
:101BF0000F931F93CF93DF93C7E0D0E0082F10E03F
:101C00002F98000000002F9A0000000098010C2E71
:101C100002C0359527950A94E2F720FD02C02F985F
:101C200001C02F9A0E94F00D219750F7DF91CF91BC
:101C30001F910F9108950F931F93CF93DF93082F58
:101C4000162FD42FC22F2F98279A0E94F00D2F9A6B
:101C500000FD02C02F9801C02F9A0E94F00D812F25
:101C60000E94F80D8D2F0E94F80D8C2F0E94F80D08
:101C7000DF91CF911F910F91089580E090E00000D7
:101C800001968C339105D9F708952E98269A0E94D3
:101C90003D0E26980895109204388EEF80930038F8
:101CA000109208388AE080930538ECEDF8E385EF70
:101CB00098E31192E817F907E1F70E94AA0088ED6E
:101CC00084BFE0E0F1E0118284BF8BE08083F89470
:101CD00062E070E088E790E00E9494118BE00E943F
:101CE0004A021092FE38C0ECD8E30CED18E3FE0176
:101CF0001192E017F107E1F781E00E94E60C000085
:101D0000A8950E9455110E945511F8940E945511F2
:101D100083E00E944A026DE085E294EA0E947D021F
:101D2000A89568EE73E080E090E00E949201F8943C
:101D30001992C017D107E1F781E00E94E60C00007C
:101D4000A895F8941092013980EA8093FD38279A7B
:101D500021E341E06091FD38809101390E941B0E22
:101D600064EF71E080E090E00E94920121E341E0A5
:101D70006091FD38809101390E941B0E8FEF83B96D
:101D800087B9E6E3F4E08081887F82608083EAE4BB
:101D9000FAE080818E7C8083EBE4FAE080818163CD
:101DA00080831092FE380F2EF7E0BF2EF02D812C8D
:101DB000992493940F2EFBE07F2EF02D68944424F9
:101DC00041F80F2EF6E0AF2EF02D0F2EF5E05F2E2E
:101DD000F02D6894662462F80F2EF3E0EF2EF02DBC
:101DE000FF24F39401E514E0C6E3D4E00F2EF0E500
:101DF000CF2ED12CF02DA8950E94450EE091FE38F3
:101E00008E2F90E08830910508F06CC0FC01E257FD
:101E1000FF4F0C948E11F092FE3867C00E94800D27
:101E2000892B19F4B092FE3802C0E092FE380E946D
:101E300055110E9472036FE083E394EA0E947D02D1
:101E400054C00E94800D0E94770C0E9455110E9480
:101E500072036A2D83E494EA0E947D02B092FE38F8
:101E600044C00E94800D892B19F4B092FE383DC009
:101E70006092FE383AC00E94800D892B19F4B0920E
:101E8000FE3833C05092FE3830C00E94800D892B3E
:101E900019F4B092FE3829C0A092FE3826C00E94E4
:101EA000800D892B19F4B092FE381FC0A092FE3825
:101EB0001CC0A895F40170820E94770CA8950E941E
:101EC000450E8091F83884FF04C01092F838409293
:101ED000FE380E9455116FE070E080E090E00E94B3
:101EE000920103C0B092FE38A8958F2D0E94E60C97
:101EF0007894F8018081887F856080838881887FDD
:101F000082608883F601E0820000889574CF1F927A
:101F10000F920FB60F9211248F939F9380914C0ACA
:101F200090914D0A9F918F910F900FBE0F901F902F
:101F300018951F920F920FB60F9211242F933F9373
:101F40004F935F936F937F938F939F93AF93BF93C1
:101F5000EF93FF93F894E1E5F4E08081887F80833C
:101F6000E0E4F4E08185826081878091FE388830EA
:101F700011F00E94AE0AE0E4F4E08185826081877E
:101F80008091FE38873031F481E00E94E60C81E0D8
:101F90000E94E60CA895E1E5F4E08081887F8560E9
:101FA00080837894FF91EF91BF91AF919F918F9132
:101FB0007F916F915F914F913F912F910F900FBE45
:101FC0000F901F9018951F920F920FB60F92112429
:101FD0008F939F93EF93FF93E091FF38F091003937
:101FE00088E3E03CF807D8F08FEB98E38093FF3864
:101FF00090930039FC018091000880838091000853
:102000008A3019F481E08093F7388091FF389091FD
:10201000003901968093FF389093003905C088E31A
:10202000EA30F80758F3E7CFFF91EF919F918F9136
:102030000F900FBE0F901F9018951F920F920FB622
:102040000F9211248F93EF93FF93A89580910738F7
:1020500081110AC081E080930738E0ECF8E38689BB
:102060008F5F868B1092003810920838269881E096
:1020700080930938E0E2F4E0818580648187E6E3BB
:10208000F4E08081887F8083FF91EF918F910F90A2
:102090000FBE0F901F9018951F920F920FB60F92C0
:1020A00011242F933F934F935F936F937F938F935D
:1020B0009F93AF93BF93EF93FF93A89580910638BA
:1020C0008733C9F40E94A90195958795811524E06D
:1020D000920714F08FEF93E0E0ECF8E347899C015E
:1020E000220F232F221F330B922F96702081922BC9
:1020F0009083842B878B80910738882339F08091D7
:1021000000388E3F19F08F5F809300380E94551180
:102110000E94551180910938882331F061E08AE4EA
:1021200094EA0E947D0205C061E08CE494EA0E947A
:102130007D026EE170E080E090E00E94920180916B
:1021400006388C3328F090910138915090930138E3
:102150008F5F809306388C3398F0809101388530FA
:1021600078F48AE380930138109206388AE08093ED
:10217000053881E08093033880E88093023815C0E9
:1021800080910238869519F0809302380EC080E85D
:1021900080930238809103388F5F893018F48093E0
:1021A000033803C081E08093033880910938882385
:1021B000A1F0809104388F5F8093043880910638B5
:1021C0008C3350F5E0910338F0E0E054F74C908107
:1021D00080910238892B80831FC0809108388F5FDF
:1021E00080930838853620F084E68093083814C040
:1021F000853091F480910538E82FF0E0E054F74CF9
:102200009091003895509083109207389EEF9093EC
:1022100000388F5F809305380E94450E1092093870
:10222000E6E3F4E08081887F8260808381E08093B0
:102230005301FF91EF91BF91AF919F918F917F914A
:102240006F915F914F913F912F910F900FBE0F9023
:102250001F90189580E0089542E068ED88E790E0CF
:102260000E946F1140E068ED80E790E00E946F11DE
:1022700040E068ED80E690E00E946F1180E00895F4
:1022800080E00895E0E1F4E0808188608193E831A6
:1022900084E0F807C9F7E0E3F4E080818860819387
:1022A000E83384E0F807C9F708952398E3E3F4E0FE
:1022B0008081877F8083229A2A980E9482110895C4
:1022C0000E9442110E942C110E9473110E9455110C
:1022D0000E9440110E9480110E942A110895FC0161
:1022E00064BF40830895E0E4F1E081818111FDCF76
:1022F000E0E4F1E081E7808B81E0828B80E008956B
:1023000080E00895E0E0F8E08CE695E08087918732
:1023100080E8858380EC868380E00895EE0FFF1FC0
:102320000590F491E02D0994DC0128ED2093340010
:082330006C930895F894FFCFAF
:1023380024505542582C34302C474C4C2C312C30DE
:102348002C312C312C312C302A35430D0A24505590
:1023580042582C34302C4753412C312C302C312C02
:10236800312C312C302A34450D0A24505542582C32
:1023780034302C4753562C312C302C312C312C3105
:102388002C302A35390D0A24505542582C34302C1B
:102398004747412C312C302C312C312C312C302A10
:1023A80035410D0A24505542582C34302C56544788
:1023B8002C312C302C312C312C312C302A35450D38
:1023C8000AFE46FE48FE4CFE5124474E474E512C0D
:1023D8005A44412A32320D0A24474E474E512C475F
:1023E8004E532A32370D0A42414400202020202033
:1023F8002020200047505320474E53200D0A0054F8
:10240800494E592D42494720434C4F434B20534591
:102418005420415454454D5054200D0A000D0A4291
:102428004F4F542054494E590D0A00476F742049A4
:102438006E697469616C2047505300476F74475048
:06244800530031003000DA
:00000001FF
