S013000041445343414D5F54494E592E73726563C5
S11300000C9496000C94A8000C94A8000C94A800DE
S11300100C94DE0F0C945B0F0C94FB0F0C94A80053
S11300200C94A8000C94A8000C94A8000C94A800AC
S11300300C94A8000C94490F0C94A8000C94A800EC
S11300400C94A8000C94A8000C94A8000C94A8008C
S11300500C94A8000C94A8000C94A8000C94A8007C
S11300600C94A8000C94A8000C94A8000C94A40F61
S11300700C94A8000C94A8000C94A80097019A0171
S11300809D01A001A301A601A901AC01AF01D50105
S1130090BE01C001C201C401C601C801CA01CD012B
S11300A0D001E201E501E801EB01EE01F101F40107
S11300B0F701FA010F020F020F020F020F020F02E3
S11300C00F02FD0100020302060209020C024702AC
S11300D01B021D021F022102240227022A022D02F2
S11300E030024202420242024202420242024202FE
S11300F045023302360239023C023F0268036A03B6
S11301006C036E03700372037403760378037A033B
S11301107C037E038003820384038603DC0EE20EE9
S1130120F50E030F0D0F170F210F2B0F11241FBEF8
S1130130CFEFCDBFDFE3DEBF29E3A0E0B8E301C02A
S11301401D92A535B207E1F70E940E0E0C943911E9
S11301500C9400000E94F91008950698E6E1F4E07A
S11301608081877F808380E28093A00082E08093F7
S1130170A100E0E0F6E0808184608083A1E0B6E045
S11301808C9186608C9387E28093020688ED80933D
S11301900306109204061092090610920A0686E0DD
S11301A08093050680930606ABE0B6E08C918160EF
S11301B08C9380818160808381E080930806EBE0EA
S11301C0F6E0808180FFFDCF8091110680911006BA
S11301D081E080930806EBE0F6E0808180FFFDCFAC
S11301E0809111062091100690E0982F8827820FA5
S11301F0911D1092A10010920006082E892F000C68
S1130200881F990B000C881F991F08950698E6E132
S1130210F4E08081877F8083059A0D9A000080E353
S11302208093A00082E08093A100E0E0F6E080816A
S113023085608083A1E0B6E08C9186608C9387E230
S11302408093020688ED80930306109204061092B0
S1130250090610920A0686E08093050687E08093DB
S11302600606ABE0B6E08C9181608C93808185605A
S1130270808381E080930806EBE0F6E0808180FFD4
S1130280FDCF809111068091100681E080930806CD
S1130290EBE0F6E0808180FFFDCF80911106209194
S11302A0100690E0982F8827820F911D1092A100CC
S11302B010920006082E892F000C881F990B000C41
S11302C0881F991F08952EE138E320935339309302
S11302D05439A0914F39B09150391597E091533961
S11302E0F09154399F012F5F3F4F2093533930933E
S11302F054399181981306C09281961303C0938157
S1130300941731F02A173B0748F38AE992E00895DD
S113031080E090E00895482F862F90E0FC01F1974B
S1130320E930F105F8F4E25CFF4F0C942D1181E003
S113033090E01AC082E090E017C083E090E014C01F
S113034084E090E011C085E090E00EC086E090E08B
S11303500BC087E090E008C088E090E005C089E029
S113036090E002C080E090E050E0FA01F097EA30BB
S1130370F105C8F4E95BFF4F0C942D110A9608951A
S1130380449608954E96089588960895C2960895C1
S1130390CC9608958A5B9F4F0895805B9F4F089584
S11303A0865A9F4F089580E090E00895482F862F45
S11303B090E0FC01F197E631F10588F5EF5AFF4F23
S11303C00C942D1181E090E02CC082E090E029C0D3
S11303D083E090E026C084E090E023C085E090E0D4
S11303E020C086E090E01DC087E090E01AC088E05D
S11303F090E017C089E090E014C08AE090E011C05A
S11304008BE090E00EC08CE090E00BC08DE090E0BB
S113041008C08EE090E005C08FE090E002C080E06C
S113042090E050E0FA01F097E731F10558F5E95909
S1130430FF4F0C942D114096089580960895C09610
S11304400895805C9F4F0895805B9F4F0895805A64
S11304509F4F089580599F4F089580589F4F089546
S113046080579F4F089580EB90E0089580EC90E0D2
S1130470089580ED90E0089580EE90E0089580EF77
S113048090E0089580E090E0089580EA90E0089577
S1130490AB01BC01411551056105710561F4089575
S11304A0000001968A3921E09207D1F741505109A1
S11304B06109710919F080E090E0F2CF08951F936B
S11304C0CF93DF9385E0809392018EE08093840143
S11304D011E01093400A84E08093410AC4E4DAE016
S11304E080E18883A895259A219A029A44982D9AA6
S11304F029980A9A00000000000000002D980000CE
S11305000000000000000A9861E070E080E090E0E4
S11305100E94480229981093450A81E188830000CB
S1130520000000000000299A299A80914C0A9091B9
S11305304D0AA8958091460A811109C088E293E288
S1130540E6E4FAE02081211102C00197D9F78091F5
S11305504C0A90914D0A2D9AE5E4FAE0108220E1CC
S11305602093440A1082DF91CF911F910895CF9375
S1130570C82F429A882381F04A986AE070E080E0AC
S113058090E00E9448024A9A62E370E080E090E0C2
S11305900E944802C15081F74298E2E5F4E080816C
S11305A088608083CF910895CF93C82F429A88237F
S11305B081F04A986CE271E080E090E00E94480289
S11305C04A9A62E370E080E090E00E944802C150E1
S11305D081F74298E2E5F4E0808188608083CF91DE
S11305E00895662371F0DC019C01260F311DE0E0C3
S11305F0F8E0948195FFFDCF9D919283A217B307F4
S1130600C1F70895CF93DF93CDB7DEB7C159D109B0
S1130610CDBFDEBF68EE73E080E090E00E94480248
S11306208DE1E6E7F2EADE01119601900D928A95DA
S1130630E1F76DE1CE0101960E94F1028DE1E3E95B
S1130640F2EADE015E9601900D928A95E1F76DE182
S1130650CE014E960E94F1028DE1E0EBF2EADE015A
S1130660DB9601900D928A95E1F76DE1CE01CB9670
S11306700E94F1028DE1EDECF2EADE01A85ABF4FCF
S113068001900D928A95E1F76DE1CE01885A9F4F52
S11306900E94F1028DE1EAEEF2EADE01AB58BF4FAF
S11306A001900D928A95E1F76DE1CE018B589F4F31
S11306B00E94F102CF56DF4FCDBFDEBFDF91CF9155
S11306C008958F7090E0FC01E258FF4F0C942D11B7
S11306D080E3089581E3089582E3089583E3089510
S11306E084E3089585E3089586E3089587E30895F0
S11306F088E3089589E3089581E4089582E40895E0
S113070083E4089584E4089585E4089586E40895CF
S11307101F93CF93DF93EC010E946103182FCE0146
S113072095958795959587959595879595958795AD
S11307300E94610390E0982F8827810F911DDF911B
S1130740CF911F910895DF92EF92FF920F931F9321
S1130750CF93DF9300D000D0CDB7DEB77C01162F46
S11307608F2D90E00E948803082FD92EC701992766
S11307700E948803D9820A839B838C83123051F0B0
S1130780133071F0113091F461E0CE0104960E94AF
S1130790F10211C062E0CE0103960E94F1020BC087
S11307A063E0CE0102960E94F10205C064E0CE012E
S11307B001960E94F1022496CDBFDEBFDF91CF9156
S11307C01F910F91FF90EF90DF900895CF93DF93E7
S11307D0CDB7DEB72897CDBFDEBF0E94EE1088E00C
S11307E0E7E0F3EADE01119601900D928A95E1F7B4
S11307F068E0CE0101960E94F1026AE070E080E0B8
S113080090E00E9448022896CDBFDEBFDF91CF91D1
S113081008958FE198E380934F399093503980E0A5
S113082090E028E5E0914F39F0915039E80FF91F35
S113083020830196863B9105A9F78FE198E3809385
S11308404F39909350390895BF92CF92DF92EF922F
S1130850FF920F931F93CF93DF93CDB7DEB76F97BC
S1130860CDBFDEBF8FE0EFE0F3EADE011196019029
S11308700D928A95E1F704E0B12CC12C6894DD2433
S1130880D3F80F2EF6EDEF2EF8E3FF2EF02DA895FA
S11308906FE0CE0101960E94F1020E940904F60164
S11308A0858180688583109247397894809147398F
S11308B081110AC064E670E080E090E00E94480282
S11308C01FE0115009F00EC18091453990914639CD
S11308D001968093453990934639813DF2E09F0714
S11308E024F020914E39213019F48D3A934034F09C
S11308F08AE9809352398AE992E0FBC0F601858146
S11309008F77858341E464E48AE50E946301892B3F
S113091009F067C02091533930915439D9011297A5
S1130920F8E3A53DBF0709F078F4FD0180818A3220
S113093069F0319610E0DF011827EE16FF0639F052
S113094081918A32C1F703C010E001C010E0129611
S11309506C91129711968C910E94D601212F30E050
S113096028173907F1F534C0CF0101968093533924
S11309709093543981818C3261F52F5F223049F58F
S113098022812C3271F13681383559F18B2D90E06A
S1130990A4E1B0E0AC0FBD1FA80FB91F3C93A0E1C8
S11309A0B0E0AC0FBD1FA80FB91F35813C93A8E17F
S11309B0B0E0AC0FBD1FA80FB91F33813C93ECE12D
S11309C0F0E0EC0FFD1FE80FF91F2083B39409C07A
S11309D020E0E0915339F091543988E3E53DF8077C
S11309E018F2015009F053CF1F8981E09E899113B9
S11309F080E09D89191301C08F5F9C89191301C080
S1130A008F5F833008F45FC00B8981E09A8990136B
S1130A1080E09989091301C08F5F9889091301C087
S1130A208F5F833008F452C0FB8C81E09A8D9F1154
S1130A3080E0998DF91201C08F5F988DF91201C081
S1130A408F5F833008F445C0EF8C81E09E8D9E114A
S1130A5080E09D8DE91201C08F5F9C8DE91201C079
S1130A608F5F8330C8F120911D39EDE0F9E385E40F
S1130A7099E31192E817F907E1F720931D399CE2F5
S1130A80F91669F1E0915339F0915439628580E3A4
S1130A900E948B01D82E612F802F0E948B010DE0C4
S1130AA019E3E0E1DE9E800D1124F80180836F2DAF
S1130AB08E2D0E948B01880F880F880FF801818387
S1130AC080E090E016C08AE992E013C08AE992E0DF
S1130AD010C08AE992E00DC08AE992E00AC08AE96E
S1130AE092E007C064E670E080E090E00E94480273
S1130AF0E8CE6F96CDBFDEBFDF91CF911F910F91EE
S1130B00FF90EF90DF90CF90BF9008950E9424044F
S1130B10009739F4E0915339F091543922852835FE
S1130B2039F50E942404009739F4E0915339F09187
S1130B30543922852835E1F40E942404009739F4BD
S1130B40E0915339F09154392285283589F40E9473
S1130B502404009741F4E0915339F09154392285EB
S1130B60283531F403C08AE992E008958AE992E0D5
S1130B700895CF92DF92EF92FF920F931F93CF933A
S1130B80DF93109252396894CC24C2F8D12CE12C12
S1130B906894FF24F3F806ED18E3A8950E9409046D
S1130BA0E7018D8180688D83109247397894809114
S1130BB0473981110AC064E670E080E090E00E9449
S1130BC04802CFE0C15009F083C08091453990912B
S1130BD0463901968093453990934639813DD2E058
S1130BE09D0724F020914E39213019F48D3A934019
S1130BF034F08AE9809352398AE992E070C0E701BF
S1130C008D818F778D8343E46DE482E50E946301D7
S1130C10892B09F044C0E0915339F0915439DF0134
S1130C201297D8E3A53DBD0709F078F4ED0188815A
S1130C308A3269F03197C0E0DF01C827E017F10775
S1130C4039F081918A32C1F703C0C0E001C0C0E02D
S1130C5012966C91129711968C910E94D6012C2FAA
S1130C6030E028173907D9F411C0CF0101968093D9
S1130C7053399093543981818C3249F42F5F223057
S1130C8031F48281813459F4D39409C020E0E09195
S1130C905339F0915439D8E3E53DFD0730F3CA9454
S1130CA0C1107BCFE1E0ED1568F4E0915339F09188
S1130CB054398181813431F489E28093523980E05E
S1130CC090E00DC08AE9809352398AE992E007C026
S1130CD064E670E080E090E00E94480273CFDF9108
S1130CE0CF911F910F91FF90EF90DF90CF900895D7
S1130CF07F928F929F92AF92BF92CF92DF92EF92A8
S1130D00FF920F931F93CF93DF93CDB7DEB7AF97C7
S1130D10CDBFDEBF8FE0EEE1F3EADE011196019074
S1130D200D928A95E1F721E02F8F92E09A8F83E06C
S1130D30898F2F8B9A8B898B2FA39AA389A368946D
S1130D40BB24B3F8A12CC12C6894DD24D3F80F2E56
S1130D50F6EDEF2EF8E3FF2EF02DA8956FE0CE010F
S1130D6001960E94F1020E940904D60115968C9105
S1130D701597806815968C931092473978948091D2
S1130D80473981110AC064E670E080E090E00E9477
S1130D9048021FE0115009F0E9C100914539109152
S1130DA04639013DB2E01B0724F080914E39813071
S1130DB021F40D3AE3E01E0734F08AE980935239B6
S1130DC08AE992E0DAC10F5F1F4F912E00934539F3
S1130DD010934639D60115968C9115978F771596F1
S1130DE08C9343E56EE487E40E946301892B09F048
S1130DF07BC02091533930915439D9011297E8E3DB
S1130E00A53DBE0709F078F4FD0180818A3269F0BE
S1130E103196812CDF018826EE15FF0539F081918A
S1130E208A32C1F703C0812C01C0812C12966C91C7
S1130E30129711968C910E94D601282D30E0281724
S1130E40390709F051C046C0CF0101968093533948
S1130E509093543981818C32F1F52F5F2230D9F58A
S1130E6082818C3209F440C08835F1F18A2D90E0FA
S1130E7048E150E04C0F5D1F480F591F9F01275058
S1130E803109D9012C91DA012C9340E150E04C0F47
S1130E905D1F480F591F9F0128503109D9012C911A
S1130EA0DA012C9340E250E04C0F5D1F480F591FAC
S1130EB09F0125503109D9012C91DA012C93A8E224
S1130EC0B0E0AC0FBD1FA80FB91F369720812C933B
S1130ED0A3940AC020E0E0915339F0915439B8E367
S1130EE0E53DFB0708F4B0CFBA94B11036CF6F8D4F
S1130EF081E09E8D961380E09D8D691301C08F5F04
S1130F009C8D691301C08F5F9B8D691301C08F5F36
S1130F109A8D691301C08F5F998D691301C08F5F2A
S1130F20988D691301C08F5F863008F410C18F89D2
S1130F3091E02E89281390E02D89821301C09F5FD0
S1130F402C89821301C09F5F2B89821301C09F5F8C
S1130F502A89821301C09F5F2989821301C09F5F80
S1130F602889821301C09F5F963008F4F3C0CFA490
S1130F7091E02EA52C1190E02DA5C21201C09F5F17
S1130F802CA5C21201C09F5F2BA5C21201C09F5F96
S1130F902AA5C21201C09F5F29A5C21201C09F5F8A
S1130FA028A5C21201C09F5F963008F4D6C0DFA006
S1130FB091E02EA12D1190E02DA1D21201C09F5FCE
S1130FC02CA1D21201C09F5F2BA1D21201C09F5F3E
S1130FD02AA1D21201C09F5F29A1D21201C09F5F32
S1130FE028A1D21201C09F5F963008F4B9C0ECE288
S1130FF0DE1609F4B8C00E948B01782EE0905339B4
S1131000F0905439D70190966C9190975F968C919B
S11310100E948B01882E0F2EFDE0AF2EF9E3BF2E28
S1131020F02D872D86958695F5019181890F818311
S11310306D2D8C2D0E948B01F0E47F9E800D112478
S1131040D50112968C93D7011497F70135976C91BB
S113105080810E948B01F5019381890F8383D701DD
S11310601C968C918E3419F4848180688483F701F2
S1131070628181810E948B010F2EFDE0CF2EF9E366
S1131080DF2EF02DD60114969C911497890F149697
S11310908C93F701648183810E948B01D60115969C
S11310A08C93F701678186810E948B01D601169685
S11310B08C93F701618580850E948B01D601179678
S11310C08C93F701828D853421F4F6018085806448
S11310D08087D7011E968C91813319F484E680931E
S11310E01639F701608987850E948B010F2EFDE078
S11310F0CF2EF9E3DF2EF02DD60119969C91199786
S1131100890F19968C93F701628981890E948B015A
S1131110D6011A968C93F701658984890E948B0104
S1131120D6011B968C93F701678986890E948B01EF
S1131130D6011C968C931C971D969C921D971E9607
S11311400C931E971F968C9280E090E016C08AE95B
S113115092E013C08AE992E010C08AE992E00DC0DF
S11311608AE992E00AC08AE992E007C064E670E086
S113117080E090E00E9448020DCEAF96CDBFDEBF66
S1131180DF91CF911F910F91FF90EF90DF90CF905F
S1131190BF90AF909F908F907F9008950E947806A3
S11311A0009761F4E0915339F091543923A528351F
S11311B029F020911C39243008F045C00E9478069B
S11311C0009759F4E0915339F091543923A5283507
S11311D021F020911C392430B0F50E947806009744
S11311E059F4E0915339F091543923A5283521F06D
S11311F020911C39243038F50E947806009759F460
S1131200E0915339F091543923A5283521F02091E8
S11312101C392430C0F40E947806009761F4E091F0
S11312205339F091543923A5283541F020911C39C4
S1131230243038F008958AE992E008958AE992E02A
S113124008958AE992E008950F931F93CF93DF9353
S11312506623C1F1EC018C01060F111D8FEF9FEF86
S11312601BC0BC01660F771FFD01E423F523EF2BA0
S113127011F06F5F7F4F56954795992334F4CB0156
S1131280E1E28E27E0E19E2701C0CB012150310924
S113129041F70C171D07C1F0A991B0E028E030E038
S11312A040E850E0DECF99233CF4880F991F41E2D7
S11312B0842740E1942702C0880F991F21503109E7
S11312C091F705C08FEF9FEF20E130E0ECCFDF9185
S11312D0CF911F910F910895F8942098E0E3F4E0E2
S11312E08081877F80834398E3E5F4E08081877F72
S11312F08083539B06C087E893E1539B02C0019708
S1131300E1F7309B02C080E801C080E0539968C0D7
S113131099EF539965C09150E1F762C0539B02C0A5
S11313209150E1F73099806453995EC099EF5399D5
S11313305BC09150E1F758C0539B02C09150E1F754
S113134030998062539954C099EF539951C0915088
S1131350E1F74EC0539B02C09150E1F73099806190
S113136053994AC099EF539947C09150E1F744C04B
S1131370539B02C09150E1F730998860539940C063
S113138099EF53993DC09150E1F73AC0539B02C085
S11313909150E1F730998460539936C099EF53998D
S11313A033C09150E1F730C0539B02C09150E1F734
S11313B03099826053992CC099EF539929C0915068
S11313C0E1F726C0539B02C09150E1F73099816048
S11313D0539922C099EF53991FC09150E1F7089592
S11313E0539BA0CF99EF9ACF539BAACF99EFA4CF49
S11313F0539BB4CF99EFAECF539BBECF99EFB8CFE9
S1131400539BC8CF99EFC2CF539BD2CF99EFCCCF88
S1131410539BDCCF99EFD6CF0895209A882314F0FC
S1131420289893C0289A91C029EF30E0539B8FC02D
S113143021503109D9F78BC0539903C02150310988
S1131440D9F786FD02C0289887C0289A85C029EF5D
S113145030E0539B83C021503109D9F77FC05399A1
S113146003C021503109D9F785FD02C028987BC0FB
S1131470289A79C029EF30E0539B77C02150310975
S1131480D9F773C0539903C021503109D9F784FDAA
S113149002C028986FC0289A6DC029EF30E0539B92
S11314A06BC021503109D9F767C0539903C021504B
S11314B03109D9F783FD02C0289863C0289A61C016
S11314C029EF30E0539B5FC021503109D9F75BC04D
S11314D0539903C021503109D9F782FD02C02898DD
S11314E057C0289A55C029EF30E0539B53C0215070
S11314F03109D9F74FC0539903C021503109D9F7A5
S113150081FD02C028984BC0289A49C029EF30E0D9
S1131510539B47C021503109D9F743C0539903C0A5
S113152021503109D9F780FD02C028983FC0289A7C
S11315303DC089EF90E0539B3BC00197E1F738C071
S113154053993BC00197E1F7089553996DCF53998F
S113155078CF29EF30E070CF539979CF539984CF66
S113156029EF30E07CCF539985CF539990CF29EF61
S113157030E088CF539991CF53999CCF29EF30E035
S113158094CF53999DCF5399A8CF29EF30E0A0CFA2
S11315905399A9CF5399B4CF29EF30E0ACCF5399E5
S11315A0B5CF5399C0CF29EF30E0B8CF5399C1CF0D
S11315B0539903C089EF90E0C3CF08958F929F920F
S11315C0AF92BF92CF92DF92EF92FF920F931F934D
S11315D0CF93DF93CDB7DEB72997CDBFDEBFF894A5
S11315E02098E0E3F4E08081877F80830E946C0987
S11315F0F82E89830E946C09882E8A830E946C09C4
S1131600982E8B830E946C09A82E8C830E946C09EF
S1131610B82E8D830E946C09C82E8E830E946C099B
S1131620E82E8F830E946C09182F88870E946C090A
S1131630082F898767E0CE0101960E942409212F93
S113164030E0322F2227200F311D8217930709F033
S1131650BEC0F09248398F2D8770D82EE2E08E17E5
S1131660A1F1E81730F0882361F0F1E08F17D9F089
S113167062C083E0D816D9F1E4E0DE1609F449C06B
S11316805AC0E5EDF8E3809118388583808A918A01
S1131690A48EB58EC0A6E1A680911C3890911D3809
S11316A094AB85AB59C0E5EDF8E38091183880839D
S11316B086829782A28AB38AC68EE78E80911C386E
S11316C090911D3892A783A747C0E5EDF8E3809178
S11316D01838818380869186A48AB58AC0A2E1A243
S11316E080911C3890911D3894A785A735C0E5EDED
S11316F0F8E380911838828382869386A68AB78A13
S1131700C2A2E3A280911C3890911D3896A787A7A6
S113171023C0E5EDF8E380911838838384869586A9
S1131720A08EB18EC4A2E5A280911C3890911D3880
S113173090AB81AB11C0E5EDF8E380911838848358
S113174086869786A28EB38EC6A2E7A280911C38A5
S113175090911D3892AB83AB209A439866E385ED54
S113176098E30E942409E5EDF8E396AB87AB80810A
S1131770882314F0289857C0289A55C08FE295E71B
S1131780539B53C00197E1F750C0F80181918F0139
S11317900E940D0AE016F106C1F720980E94EE108F
S11317A00E94EE1062E08FE293EA0E94F1028091BF
S11317B0183862E090E00E94A303A89568EC70E0FA
S11317C080E090E00E9448021092183813C088E02C
S11317D0809348390E94EE100E94EE1063E082E389
S11317E093EA0E94F102A89568EC70E080E090E032
S11317F00E944802D11008C0E5EDF8E38BE099E3BC
S113180011928E179F07E1F70E94060190E08093E2
S11318101C3890931D38E0E4F4E081858260818770
S1131820789489810BC05399A9CF05ED18E30F2E45
S1131830FDE0EF2EF9E3FF2EF02DA7CF2996CDBFC3
S1131840DEBFDF91CF911F910F91FF90EF90DF905A
S1131850CF90BF90AF909F908F9008952398E3E32B
S1131860F4E09081977F90832A9A229A2CE635E0BF
S11318702093080830930908882321F080EC809392
S1131880060810C02398E3E3F4E08081877F808317
S11318902A9A229AE0E0F8E08CE695E08087918726
S11318A080E48683E0E0F8E08181808108950498F3
S11318B0E4E1F4E0808188608083459A4D9A8FE169
S11318C098E380934F399093503981E00E942E0C15
S11318D0089510920608239A229A2A982B9808951C
S11318E0459A4D98E4E1F4E08081877F8083049AEF
S11318F00C980E94690C0895DF92EF92FF920F9367
S11319001F93CF93DF936894DD24D3F8E12C68947C
S1131910FF24F3F8D9EFC3E0A8956AEF70E080E004
S113192090E00E9448020E940904F70185818068C2
S1131930858378940E94B9058C01C15021F08A39BD
S1131940924051F320C061E086E393EA0E94F102E1
S1131950D15029F00A3982E01807E9F21BC00E942D
S1131960700C68EE73E080E090E00E9448020E94F0
S1131970570C0E940203DA94DD2061F00A39E2E098
S11319801E0741F207C061E086E393EA0E94F10278
S1131990D13029F3C801DF91CF911F910F91FF90AE
S11319A0EF90DF900895CF93DF930098E0E1F4E0A7
S11319B09081986090830198E1E1F4E090819860CF
S11319C090830398E3E1F4E0908198609083E4E1EC
S11319D0F4E09081977F9083049A0C980598E5E150
S11319E0F4E09081986090830698E6E1F4E09081B9
S11319F0986090830798E7E1F4E090819860908381
S1131A002098E0E3F4E09081977F90832198E1E3CC
S1131A10F4E09081986090832298E2E3F4E090816E
S1131A20977F90832398E3E3F4E09081977F9083FA
S1131A302498E4E3F4E09081986090832598E5E3AA
S1131A40F4E09081986090832698E6E3F4E0908136
S1131A50977F90832798E7E3F4E0908198609083E0
S1131A604098E0E5F4E09081986090834198E1E546
S1131A70F4E0908198609083882329F08081887FA6
S1131A808560808305C0E1E5F4E08081887F808300
S1131A904298E2E5F4E08081886080834398E3E53E
S1131AA0F4E08081877F80834498E4E5F4E08081DA
S1131AB088608083C5E5D4E08881877F8883459AE0
S1131AC04D981092A100109200060E94700C88811B
S1131AD088608883DF91CF9108950F931F93CF93EC
S1131AE00E94570C0E9402030E9402030E940203F8
S1131AF010924539109246390E94AD0080931D39E9
S1131B000E947C0C8C01892B59F00E94700C0AE90C
S1131B1012E02AC0C15029F40FC0C11109C00CC081
S1131B20CFE00E948605892BA9F7F7CFC15021F099
S1131B300E94CE08892BD1F76AE088E393EA0E94D9
S1131B40F102F8947894A89560ED77E080E090E055
S1131B500E944802A89560ED77E080E090E00E9442
S1131B604802A8950E94690CC801CF911F910F915A
S1131B70089580E090E0000001968C339105D9F738
S1131B8008950F931F93CF93DF93C7E0D0E0082FFE
S1131B9010E02F98000000002F9A00000000980128
S1131BA00C2E02C0359527950A94E2F720FD02C059
S1131BB02F9801C02F9A0E94B90D219750F7DF91F9
S1131BC0CF911F910F9108951F93CF93DF93162FF9
S1131BD0D42FC22F2F98279A2F98000000002F9AF5
S1131BE00000000080FD02C02F9801C02F9A0E94BF
S1131BF0B90D812F0E94C10D8D2F0E94C10D8C2F14
S1131C000E94C10DDF91CF911F91089500000895A6
S1131C10269A2E980E94060E269808951092183837
S1131C200E94AA0088ED84BFE0E0F1E0118284BF45
S1131C301082F89462E070E088E790E00E9433112B
S1131C408BE00E94B70210924E39E5EDF8E38DE087
S1131C5099E31192E817F907E1F781E00E94D30CA8
S1131C600000A8950E94EE10F8940E94EE1067E020
S1131C7083E493EA0E94F102A89568EE73E080E0A1
S1131C8090E00E9448021092513910EC10934D39A3
S1131C90279A21E341E060914D39809151390E94A6
S1131CA0E40D68EE73E080E090E00E94480221E3D6
S1131CB041E060914D39809151390E94E40D8FEFDC
S1131CC083B987B9AAE4BAE02C912E7C2C93EBE477
S1131CD0FAE090819163908383B987B941E554E038
S1131CE0EA018881887F856088832C9390830E9491
S1131CF0690C7894C3E0C09350008CE695E080931F
S1131D000808909309086CE08BE493EA0E94F102BE
S1131D101092513910934D39279A21E341E0609193
S1131D204D39809151390E94E40D68EE73E080E0F2
S1131D3090E00E94480221E341E060914D39809196
S1131D4051390E94E40D88EC80931B3810921A38A4
S1131D5010921938C093003887E080934E390F2EC3
S1131D60F7E0BF2EF02DE12CFF24F3946894772440
S1131D7071F80F2EF6E0AF2EF02D0F2EF5E08F2E1A
S1131D80F02D6894992492F80F2EF3E0CF2EF02DC5
S1131D90DD24D394C1E5D4E000E510E0A895E091FA
S1131DA04E398E2F90E08830910508F063C0FC0115
S1131DB0E257FF4F0C942D11D0924E398D2D0E9475
S1131DC0D4025AC00E946D0D892B19F4B0924E3979
S1131DD002C0C0924E390E94EE100E94E6036FE0EA
S1131DE088E593EA0E94F10247C00E94700C0E94A9
S1131DF0EE100E94E6036A2D88E693EA0E94F1023F
S1131E00B0924E3939C00E946D0D892B19F4B092ED
S1131E104E3932C090924E392FC00E946D0D892BDD
S1131E2019F4B0924E3928C080924E3925C00E94D0
S1131E306D0D892B19F4B0924E391EC0A0924E3903
S1131E401BC00E946D0D892B19F4B0924E3914C039
S1131E50A0924E3911C0F70110820E94700C0E94AA
S1131E60080E8091483984FF07C010924839709257
S1131E704E3902C0B0924E398D2D0E94D30C789405
S1131E808881887F85608883F801C08200008895F6
S1131E9085CF1F920F920FB60F9211248F939F93A9
S1131EA080914C0A90914D0A9F918F910F900FBE93
S1131EB00F901F9018951F920F920FB60F92112436
S1131EC02F933F934F935F936F937F938F939F933E
S1131ED0AF93BF93EF93FF93F894E1E5F4E080812F
S1131EE0887F8083E0E4F4E081858260818780914B
S1131EF04E39883011F00E94DE0AE0E4F4E0818576
S1131F008260818780914E39873031F481E00E946C
S1131F10D30C81E00E94D30CE1E5F4E08081887F5A
S1131F20856080837894FF91EF91BF91AF919F91E9
S1131F308F917F916F915F914F913F912F910F906E
S1131F400FBE0F901F9018951F920F920FB60F920D
S1131F5011248F939F93EF93FF93E0914F39F09166
S1131F60503988E3E53DF807D8F084ED98E3809391
S1131F704F3990935039FC018091000880838091FF
S1131F8000088A3019F481E08093473980914F39F1
S1131F9090915039019680934F399093503905C0F0
S1131FA088E3EF31F80758F3E7CFFF91EF919F9162
S1131FB08F910F900FBE0F901F9018951F920F9244
S1131FC00FB60F9211248F93EF93FF9381E08093C8
S1131FD01E38E0E2F4E0818580648187E6E3F4E082
S1131FE08081887F8083FF91EF918F910F900FBE46
S1131FF00F901F9018951F920F920FB60F921124F5
S11320002F933F934F935F936F937F938F939F93FC
S1132010AF93BF93EF93FF9380911B388C3328F0D9
S1132020909100389150909300388F5F80931B38C3
S11320308C3348F180910038853028F5809101383F
S113204081110E945F0287E08093003881E08093D1
S1132050013810921B38109219381092173880E802
S113206080930E38EFE0F8E387E198E31192E817E4
S1132070F907E1F7E2E0F8E38EE098E31192E8175C
S1132080F907E1F723C080910E38869519F0809303
S11320900E380DC080E880930E38809117388F5F1A
S11320A0883018F48093173802C010921738809142
S11320B01A388F5F853018F480931A3807C010924D
S11320C01A38809119388F5F8093193880911E389F
S11320D0882301F110920138809118388F5F809322
S11320E01838E0911738F0E0E15FF74C9081809167
S11320F00E38892B80830E945F022091193830E0CA
S1132100F901EE5FF74C9081981720F4F901EE5F26
S1132110F74C80830E94EE1080911B3862E090E0BF
S11321200E94A30380911E38882331F061E08FE67A
S113213093EA0E94F10205C061E081E793EA0E94FC
S1132140F10265E070E080E090E00E9448021092A5
S11321501E3881E080934301E6E3F4E08081887FC8
S113216082608083FF91EF91BF91AF919F918F9196
S11321707F916F915F914F913F912F910F900FBE7F
S11321800F901F90189580E0089542E068ED88E76D
S113219090E00E94081140E068ED80E790E00E9422
S11321A0081140E068ED80E690E00E94081180E0AC
S11321B0089580E00895E0E1F4E0808188608193EF
S11321C0E83184E0F807C9F7E0E3F4E0808188604F
S11321D08193E83384E0F807C9F708952398E3E38B
S11321E0F4E08081877F8083229A2A980E942111BB
S11321F008950E94DB100E94C5100E940C110E94D9
S1132200EE100E94D9100E941F110E94C31008955D
S1132210FC0164BF40830895E0E4F1E08181811111
S1132220FDCFE0E4F1E089EA808388EE93E08287E1
S1132230938781E08283108A128A80E0089580E087
S11322400895E0E0F8E08CE695E08087918780E8E7
S1132250858380EC868380E00895EE0FFF1F059050
S1132260F491E02D0994DC0128ED209334006C9363
S10922700895F894FFCF6D
S113227624505542582C34302C474C4C2C312C309D
S11322862C312C312C312C302A35430D0A2450554F
S113229642582C34302C4753412C312C302C312CC1
S11322A6312C312C302A34450D0A24505542582CF1
S11322B634302C4753562C312C302C312C312C31C4
S11322C62C302A35390D0A24505542582C34302CDA
S11322D64747412C312C302C312C312C312C302ACF
S11322E635410D0A24505542582C34302C56544747
S11322F62C312C302C312C312C312C302A35450DF7
S11323060AFE46FE48FE4CFE5124474E474E512CCB
S11323165A44412A32320D0A24474E474E512C471D
S11323264E532A32370D0A20004F4B0042414400D7
S1132336470047505320474E53200D0A00424F4F43
S113234654410D0A005041535420534F4C41520DF1
S11323560A00476F7420496E697469616C2047509E
S11023665300476F744750530058002E0079
S9030000FC
