:1000000067C076C075C074C05ACDDBCC79CD70C0E6
:100010006FC06EC06DC06CC06BC06AC069C068C084
:1000200067C066C065C064C063C062C00ECD60C0FA
:100030005FC05EC0EDC0EFC0F1C0F3C0F5C0F7C057
:10004000F9C0FBC0FDC022C10AC10BC10CC10DC16A
:100050000EC10FC110C112C114C125C127C129C1D0
:100060002BC12DC12FC131C133C135C149C148C1D7
:1000700047C146C145C144C143C130C132C134C189
:1000800036C138C13AC174C147C148C149C14AC12A
:100090004CC14EC150C152C154C165C164C163C19C
:1000A00062C161C160C15FC161C14EC150C152C175
:1000B00054C156C1B8CBC3CBCFCBDBCBE4CBEFCB5A
:1000C000F9CB00CC10CC1CCC2CCC3CCC4CCC5CCC9C
:1000D00011241FBECFEFCDBFDFE3DEBF2EE3A0E0D4
:1000E000BEE301C01D92AE3FB207E1F726DB91CD22
:1000F00087CF5CDD08950698E6E1F4E08081877F94
:10010000808380E28093A00082E08093A100E0E001
:10011000F6E0808184608083A1E0B6E08C91866007
:100120008C9387E28093020688ED809303061092F9
:1001300004061092090610920A0686E080930506CE
:1001400080930606ABE0B6E08C9181608C93808151
:100150008160808381E080930806EBE0F6E0808197
:1001600080FFFDCF809111068091100681E0809381
:100170000806EBE0F6E0808180FFFDCF809111065C
:100180002091100690E0982F8827820F911D1092E1
:10019000A10010920006082E892F000C881F990BD1
:1001A000000C881F991F089521E03EE32093FC3E38
:1001B0003093FD3EA091F93EB091FA3E1597E09143
:1001C000FC3EF091FD3E9F012F5F3F4F2093FC3E90
:1001D0003093FD3E9181981306C09281961303C01F
:1001E0009381941731F02A173B0748F38AE992E08C
:1001F000089580E090E00895E82F862F90E0C19761
:100200008930910500F5865E9F4F8F939F930895E7
:1002100081E090E01AC082E090E017C083E090E0B7
:1002200014C084E090E011C085E090E00EC086E04C
:1002300090E00BC087E090E008C088E090E005C047
:1002400089E090E002C080E090E04E2F50E0FA019B
:10025000F097EA30F105C0F4ED5DFF4F09940A967E
:100260000895449608954E96089588960895C296E6
:100270000895CC9608958A5B9F4F0895805B9F4FA9
:100280000895865A9F4F089580E090E00895E82FE2
:10029000862F90E0C1978631910590F5835D9F4F41
:1002A0008F939F93089581E090E02CC082E090E0CE
:1002B00029C083E090E026C084E090E023C085E080
:1002C00090E020C086E090E01DC087E090E01AC07A
:1002D00088E090E017C089E090E014C08AE090E0E8
:1002E00011C08BE090E00EC08CE090E00BC08DE080
:1002F00090E008C08EE090E005C08FE090E002C082
:1003000080E090E04E2F50E0FA01F097E731F105E0
:1003100050F5ED5BFF4F099440960895809608953F
:10032000C0960895805C9F4F0895805B9F4F08950D
:10033000805A9F4F089580599F4F089580589F4F2E
:10034000089580579F4F089580EB90E0089580ECCA
:1003500090E0089580ED90E0089580EE90E008959B
:1003600080EF90E0089580E090E0089580EA90E0CA
:100370000895AB01BC01411551056105710561F49A
:100380000895000001968A3921E09207D1F7415083
:1003900051096109710919F080E090E0F2CF0895E8
:1003A000CF93C82F429A882371F04A986AE070E090
:1003B00080E090E0DEDF4A9A62E370E080E090E067
:1003C000D8DFC15091F74298E2E5F4E0808188607F
:1003D0008083CF910895CF93C82F429A882371F0DC
:1003E0004A986CE271E080E090E0C3DF4A9A62E3F1
:1003F00070E080E090E0BDDFC15091F74298E2E507
:10040000F4E0808188608083CF910895AB01BC01C6
:10041000411551056105710559F4089500000196D3
:100420008E329105D9F7415051096109710919F0CE
:1004300080E090E0F3CF0895662371F0DC019C0129
:10044000260F311DE0E0F8E0948195FFFDCF9D91EE
:100450009283A217B307C1F70895CF93DF93CDB767
:10046000DEB7C159D109CDBFDEBF68EE73E080E0D1
:1004700090E07FDF8DE1E6E1FCE9DE01119601907D
:100480000D928A95E1F76DE1CE010196D5DF8DE100
:10049000E3E3FCE9DE015E9601900D928A95E1F7B7
:1004A0006DE1CE014E96C8DF8DE1E0E5FCE9DE01AD
:1004B000DB9601900D928A95E1F76DE1CE01CB9626
:1004C000BBDF8DE1EDE6FCE9DE01A85ABF4F0190EC
:1004D0000D928A95E1F76DE1CE01885A9F4FACDF0E
:1004E0008DE1EAE8FCE9DE01AB58BF4F01900D92C7
:1004F0008A95E1F76DE1CE018B589F4F9DDFCF5676
:10050000DF4FCDBFDEBFDF91CF91089582E09EE344
:100510008093F93E9093FA3E80E090E028E5E091E8
:10052000F93EF091FA3EE80FF91F20830196863BD1
:100530009105A9F782E09EE38093F93E9093FA3EFD
:100540000895BF92CF92DF92EF92FF920F931F9385
:10055000CF93DF93CDB7DEB76F97CDBFDEBF8FE010
:10056000E7EAFCE9DE01119601900D928A95E1F728
:1005700004E0B12CC12C6894DD24D3F80F2EF9EBE4
:10058000EF2EFEE3FF2EF02D6FE0CE01019654DF3B
:10059000BDDFF6018581806885831092F23E7894F4
:1005A0008091F23E811109C064E670E080E090E045
:1005B000E0DE1FE0115009F008C18091F03E9091FB
:1005C000F13E01968093F03E9093F13E813F91057C
:1005D00024F02091F83E273019F4853A914034F008
:1005E0008AE98093FB3E8AE992E0F5C0F6018581B5
:1005F0008F77858341E464E48AE5D6DD892B09F0B1
:1006000066C02091FC3E3091FD3ED9011297FEE379
:10061000A83BBF0709F078F4FD0180818A3269F0B8
:10062000319610E0DF011827EE16FF0639F08191B0
:100630008A32C1F703C010E001C010E012966C913D
:10064000129711968C9123DE212F30E0281739075D
:10065000F1F534C0CF0101968093FC3E9093FD3EAE
:1006600081818C3261F52F5F223049F522812C3255
:1006700071F13681383559F18B2D90E0A4E1B0E06D
:10068000AC0FBD1FA80FB91F3C93A0E1B0E0AC0FA9
:10069000BD1FA80FB91F35813C93A8E1B0E0AC0F96
:1006A000BD1FA80FB91F33813C93ECE1F0E0EC0FC4
:1006B000FD1FE80FF91F2083B39409C020E0E091EB
:1006C000FC3EF091FD3E8EE3E83BF80718F2015046
:1006D00009F05ACF1F8981E09E89911380E09D899E
:1006E000191301C08F5F9C89191301C08F5F83307C
:1006F00008F45CC00B8981E09A89901380E09989A5
:10070000091301C08F5F9889091301C08F5F83307F
:1007100008F44FC0FB8C81E09A8D9F1180E0998D89
:10072000F91201C08F5F988DF91201C08F5F83307D
:1007300008F442C0EF8C81E09E8D9E1180E09D8D7B
:10074000E91201C08F5F9C8DE91201C08F5F833079
:10075000B0F12091E43EE4EDFEE380EF9EE31192E0
:10076000E817F907E1F72093E43E9CE2F91651F10E
:10077000E091FC3EF091FD3E628580E33DDDD82EA8
:10078000612F802F39DD04ED1EE3E0E1DE9E800D58
:100790001124F80180836F2D8E2D2EDD880F880F98
:1007A000880FF801818380E090E015C08AE992E02B
:1007B00012C08AE992E00FC08AE992E00CC08AE98F
:1007C00092E009C08AE992E006C064E670E080E049
:1007D00090E0CFDDEFCE6F96CDBFDEBFDF91CF9142
:1007E0001F910F91FF90EF90DF90CF90BF900895F1
:1007F000A8DE009739F4E091FC3EF091FD3E2285A1
:10080000283521F59EDE009739F4E091FC3EF09109
:10081000FD3E22852835D1F494DE009739F4E0912D
:10082000FC3EF091FD3E2285283581F48ADE00975A
:1008300041F4E091FC3EF091FD3E2285283531F4F3
:1008400003C08AE992E008958AE992E00895CF9280
:10085000DF92EF92FF920F931F93CF93DF9310924B
:10086000FB3E6894CC24C2F8D12CE12C6894FF2480
:10087000F3F809EB1EE34ADEE7018D8180688D8382
:100880001092F23E78948091F23E811109C064E6A4
:1008900070E080E090E06DDDCFE0C15009F080C0F5
:1008A0008091F03E9091F13E01968093F03E9093BE
:1008B000F13E813F910524F02091F83E273019F454
:1008C000853A914034F08AE98093FB3E8AE992E0D0
:1008D0006DC0F70185818F77858343E46DE482E500
:1008E00063DC892B09F043C0E091FC3EF091FD3EB2
:1008F000DF0112972EE3A83BB20709F078F4ED016F
:1009000088818A3269F03197C0E0DF01C827E0179B
:10091000F10739F081918A32C1F703C0C0E001C00C
:10092000C0E012966C91129711968C91B0DC2C2F2E
:1009300030E028173907D9F411C0CF010196809310
:10094000FC3E9093FD3E81818C3249F42F5F223032
:1009500031F48281813459F4D39409C020E0E091CC
:10096000FC3EF091FD3EDEE3E83BFD0730F3CA9428
:10097000C11081CFE1E0ED1568F4E091FC3EF0910B
:10098000FD3E8181813431F489E28093FB3E80E039
:1009900090E00CC08AE98093FB3E8AE992E006C0B1
:1009A00064E670E080E090E0E4DC77CFDF91CF9107
:1009B0001F910F91FF90EF90DF90CF9008957F925D
:1009C0008F929F92AF92BF92CF92DF92EF92FF925F
:1009D0000F931F93CF93DF93CDB7DEB7AF97CDBF04
:1009E000DEBF8FE0E6EBFCE9DE01119601900D928F
:1009F0008A95E1F721E02F8F92E09A8F83E0898F2B
:100A00002F8B9A8B898B2FA39AA389A36894BB24DD
:100A1000B3F8A12CC12C6894DD24D3F80F2EF9EB88
:100A2000EF2EFEE3FF2EF02D6FE0CE01019604DDE8
:100A30006DDDD60115968C911597806815968C936F
:100A40001092F23E78948091F23E811109C064E6E2
:100A500070E080E090E08DDC1FE0115009F0D7C11C
:100A60000091F03E1091F13E013F110524F080917C
:100A7000F83E873021F4053AB1E01B0734F08AE9EB
:100A80008093FB3E8AE992E0C8C10F5F1F4F912E11
:100A90000093F03E1093F13EF60185818F778583B8
:100AA00043E56EE487E480DB892B09F07AC020916E
:100AB000FC3E3091FD3ED9011297FEE3A83BBF07F3
:100AC00009F078F4FD0180818A3269F03196812C39
:100AD000DF018826EE15FF0539F081918A32C1F7D2
:100AE00003C0812C01C0812C12966C911297119633
:100AF0008C91CDDB282D30E02817390709F051C043
:100B000046C0CF0101968093FC3E9093FD3E8181CB
:100B10008C32F1F52F5F2230D9F582818C3209F4C5
:100B200040C08835F1F18A2D90E048E150E04C0F4B
:100B30005D1F480F591F9F0127503109D9012C9182
:100B4000DA012C9340E150E04C0F5D1F480F591F14
:100B50009F0128503109D9012C91DA012C9340E2F0
:100B600050E04C0F5D1F480F591F9F012550310960
:100B7000D9012C91DA012C93A8E2B0E0AC0FBD1F93
:100B8000A80FB91F369720812C93A3940AC020E0A8
:100B9000E091FC3EF091FD3EBEE3E83BFB0708F42C
:100BA000B0CFBA94B11040CF6F8D81E09E8D961377
:100BB00080E09D8D691301C08F5F9C8D691301C01A
:100BC0008F5F9B8D691301C08F5F9A8D691301C080
:100BD0008F5F998D691301C08F5F988D691301C074
:100BE0008F5F863008F404C18F8991E02E89281325
:100BF00090E02D89821301C09F5F2C89821301C070
:100C00009F5F2B89821301C09F5F2A89821301C0D5
:100C10009F5F2989821301C09F5F2889821301C0C9
:100C20009F5F963008F4E7C0CFA491E02EA52C1169
:100C300090E02DA5C21201C09F5F2CA5C21201C079
:100C40009F5F2BA5C21201C09F5F2AA5C21201C0DF
:100C50009F5F29A5C21201C09F5F28A5C21201C0D3
:100C60009F5F963008F4CAC0DFA091E02EA12D113D
:100C700090E02DA1D21201C09F5F2CA1D21201C021
:100C80009F5F2BA1D21201C09F5F2AA1D21201C087
:100C90009F5F29A1D21201C09F5F28A1D21201C07B
:100CA0009F5F963008F4ADC0ECE2DE1609F4ACC0EC
:100CB000A3DA782EE090FC3EF090FD3ED7019096AE
:100CC0006C9190975F968C9197DA882E0F2EF4EDA9
:100CD000AF2EFEE3BF2EF02D872D86958695F5016C
:100CE0009181890F81836D2D8C2D86DAF0E47F9EB2
:100CF000800D1124D50112968C93D7011497F7011A
:100D000035976C91808178DAF5019381890F83831F
:100D1000D7011C968C918E3419F484818068848369
:100D2000F7016281818168DA0F2EF4EDCF2EFEE3A8
:100D3000DF2EF02DD60114969C911497890F1496EE
:100D40008C93F7016481838157DAD60115968C93D1
:100D5000F7016781868150DAD60116968C93F701E8
:100D60006185808549DAD60117968C93F701828DCB
:100D7000853421F4F601808580648087D7011E9632
:100D80008C91813319F484E68093DD3EF70160890C
:100D9000878532DA0F2EF4EDCF2EFEE3DF2EF02D15
:100DA000D60119969C911997890F19968C93F70182
:100DB0006289818921DAD6011A968C93F7016589B7
:100DC00084891ADAD6011B968C93F7016789868984
:100DD00013DAD6011C968C931C971D969C921D9736
:100DE0001E960C931E971F968C9280E090E015C083
:100DF0008AE992E012C08AE992E00FC08AE992E0A3
:100E00000CC08AE992E009C08AE992E006C064E673
:100E100070E080E090E0ADDA20CEAF96CDBFDEBFCF
:100E2000DF91CF911F910F91FF90EF90DF90CF90C6
:100E3000BF90AF909F908F907F900895C0DD0097F6
:100E400061F4E091FC3EF091FD3E23A5283529F0A8
:100E50002091E33E243008F041C0B1DD009759F401
:100E6000E091FC3EF091FD3E23A5283521F0209134
:100E7000E33E243098F5A3DD009759F4E091FC3E61
:100E8000F091FD3E23A5283521F02091E33E24304A
:100E900028F595DD009759F4E091FC3EF091FD3E78
:100EA00023A5283521F02091E33E2430B8F487DDD6
:100EB000009761F4E091FC3EF091FD3E23A52835BA
:100EC00041F02091E33E243038F008958AE992E021
:100ED00008958AE992E008958AE992E008950598D4
:100EE000049A0C9A159909C00C98E5E1F4E0808108
:100EF000877F8083049881E00895E5E1F4E08081B4
:100F000088608083049880E008950598049A0C9A7C
:100F1000159919C00C9866E970E080E090E029DA34
:100F2000159909C00C98E5E1F4E08081877F808302
:100F3000049881E00895E5E1F4E080818860808391
:100F4000049880E00895E5E1F4E080818860808382
:100F5000049880E008950F931F93CF93DF93662347
:100F6000C1F1EC018C01060F111D8FEF9FEF1BC02B
:100F7000BC01660F771FFD01E423F523EF2B11F071
:100F80006F5F7F4F56954795992334F4CB01E1E28B
:100F90008E27E0E19E2701C0CB012150310941F7A6
:100FA0000C171D07C1F0A991B0E028E030E040E83F
:100FB00050E0DECF99233CF4880F991F41E284274B
:100FC00040E1942702C0880F991F2150310991F701
:100FD00005C08FEF9FEF20E130E0ECCFDF91CF91A4
:100FE0001F910F910895F8942098E0E3F4E0808138
:100FF000877F80834398E3E5F4E08081877F808367
:10100000539B05C089EF539B02C08150E1F7309B91
:1010100002C080E801C080E0539968C099EF5399FD
:1010200065C09150E1F762C0539B02C09150E1F757
:101030003099806453995EC099EF53995BC0915089
:10104000E1F758C0539B02C09150E1F7309980629C
:10105000539954C099EF539951C09150E1F74EC044
:10106000539B02C09150E1F73099806153994AC077
:1010700099EF539947C09150E1F744C0539B02C088
:101080009150E1F730998860539940C099EF539996
:101090003DC09150E1F73AC0539B02C09150E1F737
:1010A00030998460539936C099EF539933C0915069
:1010B000E1F730C0539B02C09150E1F73099826054
:1010C00053992CC099EF539929C09150E1F726C04C
:1010D000539B02C09150E1F730998160539922C02F
:1010E00099EF53991FC09150E1F70895539BA0CFFA
:1010F00099EF9ACF539BAACF99EFA4CF539BB4CF2C
:1011000099EFAECF539BBECF99EFB8CF539BC8CFCB
:1011100099EFC2CF539BD2CF99EFCCCF539BDCCF6B
:1011200099EFD6CF0895882314F0289893C0289A71
:1011300091C029EF30E0539B8FC021503109D9F77E
:101140008BC0539903C021503109D9F786FD02C0E5
:10115000289887C0289A85C029EF30E0539B83C028
:1011600021503109D9F77FC0539903C0215031096B
:10117000D9F785FD02C028987BC0289A79C029EF4D
:1011800030E0539B77C021503109D9F773C0539990
:1011900003C021503109D9F784FD02C028986FC0DF
:1011A000289A6DC029EF30E0539B6BC02150310964
:1011B000D9F767C0539903C021503109D9F783FD8E
:1011C00002C0289863C0289A61C029EF30E0539B81
:1011D0005FC021503109D9F75BC0539903C021503A
:1011E0003109D9F782FD02C0289857C0289A55C006
:1011F00029EF30E0539B53C021503109D9F74FC03C
:10120000539903C021503109D9F781FD02C02898B4
:101210004BC0289A49C029EF30E0539B47C021506A
:101220003109D9F743C0539903C021503109D9F787
:1012300080FD02C028983FC0289A3DC089EF90E009
:10124000539B3BC00197E1F738C053993BC00197CE
:10125000E1F7089553996DCF539978CF29EF30E096
:1012600070CF539979CF539984CF29EF30E07CCF59
:10127000539985CF539990CF29EF30E088CF539978
:1012800091CF53999CCF29EF30E094CF53999DCFC4
:101290005399A8CF29EF30E0A0CF5399A9CF539904
:1012A000B4CF29EF30E0ACCF5399B5CF5399C0CF2D
:1012B00029EF30E0B8CF5399C1CF539903C089EFDC
:1012C00090E0C3CF0895CF92DF92EF92FF920F93F9
:1012D0001F93CF93DF93CDB7DEB72597CDBFDEBF8A
:1012E000F8942098E0E3F4E08081877F80837BDEC0
:1012F000082F898378DED82E8A8375DEE82E8B83CB
:1013000072DE182F8C836FDEF82E8D8363E0CE01A2
:10131000019621DE212F30E0322F22272F0D311DA3
:101320008217930709F06BC00093F33E07700230F9
:1013300009F443C028F4002351F00130B1F155C045
:10134000033009F442C0043009F447C04EC008EB32
:101350001EE38091003EF8018583D08AE18A209ABD
:1013600065E1C801F8DDF801958B868B80818823C3
:1013700014F028984FC0289A4DC08FE295E7539BF0
:101380004BC00197E1F748C0F70181917F01CBDEA7
:10139000CE14DF04C9F782ED9EE3F80111928F01AC
:1013A0008E179F07D1F7209827C0E8EBFEE38091C6
:1013B000003E8083D682E7821FC0E8EBFEE3809187
:1013C000003E8183D086E18617C0E8EBFEE3809182
:1013D000003E8283D286E3860FC0E8EBFEE3809175
:1013E000003E8383D486E58607C0E8EBFEE3809168
:1013F000003E8483D686E7861092003E03C088E0D4
:101400008093F33EE0E4F4E0818582608187789404
:1014100089810CC05399B1CF08EB1EE30F2EFFEC6E
:10142000CF2EFEE3DF2EF02D7801AECF2596CDBF77
:10143000DEBFDF91CF911F910F91FF90EF90DF9072
:10144000CF9008950F931F93CF93DF938C01209A31
:10145000439865E180DDF801958B868BC0E3D5E785
:10146000289861E070E080E090E0D0D7539B19C0ED
:101470002197B1F716C08FE295E7539B14C00197EF
:10148000E1F711C0539902C00197E1F7409A489AD9
:10149000E801095E1F4F899146DE0C171D07D9F739
:1014A00007C05399E8CF5399F1CF8FE295E7EACF80
:1014B000DF91CF911F910F9108952398E3E3F4E01A
:1014C0008081877F8083229A2A9880EC8093060807
:1014D00008952498029A0A9AF0DF82E09EE38093AE
:1014E000F93E9093FA3E089510920608239A229AA4
:1014F0002A982B980895029A0A98F6DF0895BF92C9
:10150000CF92DF92EF92FF920F931F93CF93DF93CF
:101510006894DD24D3F8E12C6894FF24F3F80F2EAF
:10152000FAE9BF2EF02D6894CC24C1F8D9EFC3E0BE
:101530006AEF70E080E090E01CD7E8D7F701858182
:1015400080688583789483D98C01C15039F08A39B9
:10155000924039F5DADC882359F320C0D23058F0B4
:101560000A3982E0180779F4D0DCD1508823F9F2E7
:101570000B2D1C2D08C0BFDF68EE73E080E090E00B
:10158000F8D6A7DF6AD7DA94DD2071F00A39E2E0F5
:101590001E0751F4BADC882349F206C0D23020F786
:1015A000EACFD23080F7E7CFC801DF91CF911F910A
:1015B0000F91FF90EF90DF90CF90BF900895CF9361
:1015C000DF930098E0E1F4E08081886080830198F7
:1015D000E1E1F4E08081886080830398E3E1F4E056
:1015E00080818860808303988081886080830698EA
:1015F000E6E1F4E08081877F80830798E7E1F4E00B
:101600008081886080832098E0E3F4E080818860B6
:1016100080832198E1E3F4E08081886080832598CD
:10162000E5E3F4E08081886080832698E6E3F4E0D7
:101630008081877F80838081887F826080832798F4
:10164000E7E3F4E08081886080834098E0E5F4E09F
:101650008081886080834198E1E5F4E08081886042
:1016600080838081887F856080834298E2E5F4E012
:101670008081886080834398E3E5F4E0808188601E
:1016800080834498E4E5F4E0808188608083459815
:10169000C5E5D4E08881886088831092A10010920B
:1016A000000629DF888188608883DF91CF910895C3
:1016B0000F931F93CF930DDFD0D6CFD6CED61092F7
:1016C000F03E1092F13E17D58093E43E18DF892B4F
:1016D00089F01BDC882321F084E08093F83E0BDF47
:1016E0000ADF0AE912E024C0C15029F41FC0C11169
:1016F00008C01AC0CFE07CD8892BB1F7F8CFC15011
:1017000099F09CDB8C01892BD1F7F5DECC2331F0ED
:10171000409A489884ED9EE395DE0AC0ECDE4FDFE8
:101720004EDF0AE912E004C0E6DEF8CFE4DEF6CFD1
:10173000C801CF911F910F9108951092003ED9D406
:1017400010920001F89462E070E088E790E05BD2CC
:101750001092F83EE8EBFEE384ED9EE31192E81769
:10176000F907E1F72CDF0000F8948FEF83B987B910
:10177000E1E5F4E08081887F85608083E6E3F4E042
:101780008081887F82608083EAE4FAE080818E7CB9
:101790008083EBE4FAE0808181638083A5DE789426
:1017A00083E0809350008CE695E080930808909346
:1017B00009081092F83E0F2EFDE0BF2EF02DC12C2F
:1017C000DD24D3946894882483F8D1E00F2EFCE0C4
:1017D0009F2EF02D0F2EFBE04F2EF02D0F2EFAE056
:1017E0005F2EF02D0F2EF9E06F2EF02D0F2EF4E569
:1017F000EF2EF4E0FF2EF02D0F2EF7E0AF2EF02DA0
:101800000F2EF6E07F2EF02DC3E000E510E0E09112
:10181000F83E8E2F90E08E30910508F0C9C0FC0193
:10182000E65AFF4F099471DB882329F0D093F83EE4
:101830008D2FD1D5BFC084E08093F83EBBC065DB5F
:10184000882331F082E08093F83E8D2FC4D5B2C05A
:1018500084E08093F83EAEC058DB882331F0C0931B
:10186000F83E8C2FB8D5ABDEA5C084E08093F83E5F
:10187000A1C041DE449A4C9832DB81119BC084E0C8
:101880008093F83E97C041DB811106C08D2F88D52B
:1018900085E08093F83E8EC0D093F83E8BC035DB58
:1018A000811105C08D2F7CD57092F83E83C0D093F6
:1018B000F83E80C04498F701808188608083A092C0
:1018C000F83E78C022DB882329F0D093F83E8D2F94
:1018D00082D570C0EDDE892B19F4B092F83E6AC053
:1018E0006092F83E67C011DB882329F0D093F83E60
:1018F0008D2F71D55FC0DCDEFEDDB092F83E5AC0A0
:1019000004DB882329F0D093F83E8D2F64D552C094
:10191000CFDE892B19F4B092F83E4CC05092F83EBD
:1019200049C0F3DA882329F0D093F83E8D2F53D5A0
:1019300041C0BEDE892B19F4B092F83E3BC0409204
:10194000F83E38C0E2DA882329F0D093F83E8D2F94
:1019500042D530C0ADDE892B19F4B092F83E2AC0D2
:101960009092F83E27C0D1DA882329F0D093F83E30
:101970008D2F31D51FC09CDE892B19F4B092F83E13
:1019800019C09092F83E16C0F6011082B4DDBDDA9F
:10199000882329F0D093F83E8D2F1DD50BC0809160
:1019A000F33E84FF07C01092F33E8092F83E02C0DF
:1019B000B092F83E04DE7894F801C0830000889568
:1019C00026CF1F920F920FB60F9211242F933F93A1
:1019D0004F935F936F937F938F939F93AF93BF9337
:1019E000CF93DF93EF93FF93F894E1E5F4E08081E8
:1019F000887F8083C0E4D4E089858260898763DC46
:101A00008985826089878091F83E8D3011F083301E
:101A100011F4D5DDD4DDE1E5F4E08081887F8560D7
:101A200080837894FF91EF91DF91CF91BF91AF9137
:101A30009F918F917F916F915F914F913F912F91E6
:101A40000F900FBE0F901F9018951F920F920FB618
:101A50000F9211248F939F93EF93FF93E091F93EA0
:101A6000F091FA3E8EE3E83BF807D8F087EB9EE36F
:101A70008093F93E9093FA3EFC01809100088083A8
:101A8000809100088A3019F481E08093F23E8091C1
:101A9000F93E9091FA3E01968093F93E9093FA3E7A
:101AA00005C08EE3E230F80758F3E7CFFF91EF91DE
:101AB0009F918F910F900FBE0F901F9018951F92BE
:101AC0000F920FB60F9211248F93EF93FF93E6E3DB
:101AD000F4E08081887F80838091290486FF03C0A1
:101AE00081E08093013EE0E2F4E0818580648187BB
:101AF000FF91EF918F910F900FBE0F901F9018954F
:101B00001F920F920FB60F9211248F93EF93FF93B2
:101B10008091013E882329F08091003E8F5F809361
:101B2000003E1092013E81E080934301E6E3F4E041
:101B30008081887F82608083FF91EF918F910F90E9
:101B40000FBE0F901F90189580E0089542E068ED59
:101B500088E790E033D040E068ED80E790E02ED059
:101B600040E068ED80E690E029D080E0089580E0D4
:101B70000895E0E1F4E0808188608193E83184E0B9
:101B8000F807C9F7E0E3F4E0808188608193E833E7
:101B900084E0F807C9F708952398E3E3F4E080812F
:101BA000877F8083229A2A9822D00895E2DFCEDFB1
:101BB00009D0F2DFDCDF19D0C7DF0895FC0164BF74
:101BC00040830895E0E4F1E081818111FDCFE0E4FC
:101BD000F1E089EA808388EE93E08287938781E051
:101BE0008283108A128A80E0089580E00895E0E000
:101BF000F8E08CE695E08087918780E8858380EC2B
:101C0000868380E00895DC0128ED209334006C93F6
:061C10000895F894FFCFD7
:101C160024505542582C34302C474C4C2C312C3007
:101C26002C312C312C312C302A35430D0A245055B9
:101C360042582C34302C4753412C312C302C312C2B
:101C4600312C312C302A34450D0A24505542582C5B
:101C560034302C4753562C312C302C312C312C312E
:101C66002C302A35390D0A24505542582C34302C44
:101C76004747412C312C302C312C312C312C302A39
:101C860035410D0A24505542582C34302C565447B1
:101C96002C312C302C312C312C312C302A35450D61
:101CA6000A24474E474E512C5A44412A32320D0AD5
:0F1CB60024474E474E512C474E532A32370D0AC2
:00000001FF
