S01300004144535A4F4F5F54494E592E737265639E
S11300000C9496000C94A8000C94A8000C94A800DE
S11300100C9465100C94E20F0C9482100C94A800BC
S11300200C94A8000C94A8000C94A8000C94A800AC
S11300300C94A8000C94A8000C94A8000C94A8009C
S11300400C94A8000C94A8000C94A8000C94A8008C
S11300500C94A8000C94A8000C94A8000C94A8007C
S11300600C94A8000C94A8000C94A8000C942B10D9
S11300700C94A8000C94A8000C94A80097019A0171
S11300809D01A001A301A601A901AC01AF01D50105
S1130090BE01C001C201C401C601C801CA01CD012B
S11300A0D001E201E501E801EB01EE01F101F40107
S11300B0F701FA010F020F020F020F020F020F02E3
S11300C00F02FD0100020302060209020C024702AC
S11300D01B021D021F022102240227022A022D02F2
S11300E030024202420242024202420242024202FE
S11300F045023302360239023C023F02260328033A
S11301002A032C032E03300332033403360338034B
S11301103A033C033E034003420344034E0F540F8F
S1130120670F750F7F0F890F930F9D0F11241FBE4B
S1130130CFEFCDBFDFE3DEBF29E3A0E0B8E301C02A
S11301401D92AA33B207E1F70E94230E0C941111F9
S11301500C9400000E94D11008950698E6E1F4E0A2
S11301608081877F808380E28093A00082E08093F7
S1130170A100E0E0F6E0808184608083A1E0B6E045
S11301808C9186608C9387E28093020688ED80933D
S11301900306109204061092090610920A0686E0DD
S11301A08093050680930606ABE0B6E08C918160EF
S11301B08C9380818160808381E080930806EBE0EA
S11301C0F6E0808180FFFDCF8091110680911006BA
S11301D081E080930806EBE0F6E0808180FFFDCFAC
S11301E0809111062091100690E0982F8827820FA5
S11301F0911D1092A10010920006082E892F000C68
S1130200881F990B000C881F991F08950698E6E132
S1130210F4E08081877F8083059A0D9A000080E353
S11302208093A00082E08093A100E0E0F6E080816A
S113023085608083A1E0B6E08C9186608C9387E230
S11302408093020688ED80930306109204061092B0
S1130250090610920A0686E08093050687E08093DB
S11302600606ABE0B6E08C9181608C93808185605A
S1130270808381E080930806EBE0F6E0808180FFD4
S1130280FDCF809111068091100681E080930806CD
S1130290EBE0F6E0808180FFFDCF80911106209194
S11302A0100690E0982F8827820F911D1092A100CC
S11302B010920006082E892F000C881F990B000C41
S11302C0881F991F089523E038E320933839309329
S11302D03939A0913439B09135391597E0913839CD
S11302E0F09139399F012F5F3F4F20933839309374
S11302F039399181981306C09281961303C0938172
S1130300941731F02A173B0748F38AE992E00895DD
S113031080E090E00895482F862F90E0FC01F1974B
S1130320E930F105F8F4E25CFF4F0C94051181E02B
S113033090E01AC082E090E017C083E090E014C01F
S113034084E090E011C085E090E00EC086E090E08B
S11303500BC087E090E008C088E090E005C089E029
S113036090E002C080E090E050E0FA01F097EA30BB
S1130370F105C8F4E95BFF4F0C9405110A96089542
S1130380449608954E96089588960895C2960895C1
S1130390CC9608958A5B9F4F0895805B9F4F089584
S11303A0865A9F4F089580E090E00895482F862F45
S11303B090E0FC01F197E631F10588F5EF5AFF4F23
S11303C00C94051181E090E02CC082E090E029C0FB
S11303D083E090E026C084E090E023C085E090E0D4
S11303E020C086E090E01DC087E090E01AC088E05D
S11303F090E017C089E090E014C08AE090E011C05A
S11304008BE090E00EC08CE090E00BC08DE090E0BB
S113041008C08EE090E005C08FE090E002C080E06C
S113042090E050E0FA01F097E731F10558F5E95909
S1130430FF4F0C9405114096089580960895C09638
S11304400895805C9F4F0895805B9F4F0895805A64
S11304509F4F089580599F4F089580589F4F089546
S113046080579F4F089580EB90E0089580EC90E0D2
S1130470089580ED90E0089580EE90E0089580EF77
S113048090E0089580E090E0089580EA90E0089577
S1130490AB01BC01411551056105710561F4089575
S11304A0000001968A3921E09207D1F741505109A1
S11304B06109710919F080E090E0F2CF0895CF93BB
S11304C0C82F429A882381F04A986AE070E080E05D
S11304D090E00E9448024A9A62E370E080E090E073
S11304E00E944802C15081F74298E2E5F4E080811D
S11304F088608083CF910895CF93C82F429A882330
S113050081F04A986CE271E080E090E00E94480239
S11305104A9A62E370E080E090E00E944802C15091
S113052081F74298E2E5F4E0808188608083CF918E
S11305300895AB01BC01411551056105710559F4DC
S11305400895000001968E329105D9F74150510962
S11305506109710919F080E090E0F3CF08956623F2
S113056071F0DC019C01260F311DE0E0F8E094817C
S113057095FFFDCF9D919283A217B307C1F708950C
S1130580CF93DF93CDB7DEB7C159D109CDBFDEBF5D
S113059068EE73E080E090E00E9448028DE1E6E2BC
S11305A0F2EADE01119601900D928A95E1F76DE170
S11305B0CE0101960E94AF028DE1E3E4F2EADE018E
S11305C05E9601900D928A95E1F76DE1CE014E960B
S11305D00E94AF028DE1E0E6F2EADE01DB960190D3
S11305E00D928A95E1F76DE1CE01CB960E94AF02A0
S11305F08DE1EDE7F2EADE01A85ABF4F01900D92BA
S11306008A95E1F76DE1CE01885A9F4F0E94AF02AF
S11306108DE1EAE9F2EADE01AB58BF4F01900D9299
S11306208A95E1F76DE1CE018B589F4F0E94AF028E
S1130630CF56DF4FCDBFDEBFDF91CF9108958F70CE
S113064090E0FC01E258FF4F0C94051180E30895FB
S113065081E3089582E3089583E3089584E308958C
S113066085E3089586E3089587E3089588E308956C
S113067089E3089581E4089582E4089583E4089564
S113068084E4089585E4089586E408951F93CF9340
S1130690DF93EC010E941F03182FCE0195958795D7
S11306A09595879595958795959587950E941F03B0
S11306B090E0982F8827810F911DDF91CF911F9192
S11306C00895DF92EF92FF920F931F93CF93DF93DE
S11306D000D000D0CDB7DEB77C01162F8F2D90E06F
S11306E00E944603082FD92EC70199270E9446036A
S11306F0D9820A839B838C83123051F0133071F0BA
S1130700113091F461E0CE0104960E94AF0211C051
S113071062E0CE0103960E94AF020BC063E0CE01FB
S113072002960E94AF0205C064E0CE0101960E94C9
S1130730AF022496CDBFDEBFDF91CF911F910F9101
S1130740FF90EF90DF900895CF93DF93CDB7DEB79E
S11307502897CDBFDEBF0E94C61088E0E7EBF2EA1F
S1130760DE01119601900D928A95E1F768E0CE01C1
S113077001960E94AF026AE070E080E090E00E947F
S113078048022896CDBFDEBFDF91CF91089561E086
S11307908DED92EA0E94AF026AE070E080E090E0A2
S11307A00E944802089584E098E38093343990933A
S11307B0353980E090E028E5E0913439F09135391D
S11307C0E80FF91F20830196863B9105A9F784E081
S11307D098E380933439909335390895BF92CF923A
S11307E0DF92EF92FF920F931F93CF93DF93CDB7D6
S11307F0DEB76F97CDBFDEBF8FE0EFEBF2EADE012D
S1130800119601900D928A95E1F704E0B12CC12C68
S11308106894DD24D3F80F2EFBEBEF2EF8E3FF2EC4
S1130820F02DA8956FE0CE0101960E94AF020E94C0
S1130830D303F60185818068858310922C397894DE
S113084080912C3981110AC064E670E080E090E068
S11308500E9448021FE0115009F00EC180912A390C
S113086090912B39019680932A3990932B39813DAD
S1130870F2E09F0724F020913339213019F48D3AA6
S1130880934034F08AE9809337398AE992E0FBC0D7
S1130890F60185818F77858341E464E48AE50E94CB
S11308A06301892B09F067C02091383930913939B7
S11308B0D9011297F8E3AA3BBF0709F078F4FD01C8
S11308C080818A3269F0319610E0DF011827EE1634
S11308D0FF0639F081918A32C1F703C010E001C0EC
S11308E010E012966C91129711968C910E94D60189
S11308F0212F30E028173907F1F534C0CF010196D4
S1130900809338399093393981818C3261F52F5F26
S1130910223049F522812C3271F13681383559F172
S11309208B2D90E0A4E1B0E0AC0FBD1FA80FB91F60
S11309303C93A0E1B0E0AC0FBD1FA80FB91F3581F7
S11309403C93A8E1B0E0AC0FBD1FA80FB91F3381E1
S11309503C93ECE1F0E0EC0FFD1FE80FF91F20835E
S1130960B39409C020E0E0913839F091393988E333
S1130970EA3BF80718F2015009F053CF1F8981E0D0
S11309809E89911380E09D89191301C08F5F9C8912
S1130990191301C08F5F833008F45FC00B8981E0B5
S11309A09A89901380E09989091301C08F5F98890F
S11309B0091301C08F5F833008F452C0FB8C81E0BF
S11309C09A8D9F1180E0998DF91201C08F5F988DE7
S11309D0F91201C08F5F833008F445C0EF8C81E0C9
S11309E09E8D9E1180E09D8DE91201C08F5F9C8DCC
S11309F0E91201C08F5F8330C8F120910239E2EF20
S1130A00F8E38AE299E31192E817F907E1F72093F2
S1130A1002399CE2F91669F1E0913839F0913939DB
S1130A20628580E30E948B01D82E612F802F0E9463
S1130A308B0102EF18E3E0E1DE9E800D1124F80142
S1130A4080836F2D8E2D0E948B01880F880F880F55
S1130A50F801818380E090E016C08AE992E013C037
S1130A608AE992E010C08AE992E00DC08AE992E036
S1130A700AC08AE992E007C064E670E080E090E092
S1130A800E944802E8CE6F96CDBFDEBFDF91CF91C2
S1130A901F910F91FF90EF90DF90CF90BF9008953A
S1130AA00E94EE03009739F4E0913839F091393916
S1130AB02285283539F50E94EE03009739F4E09138
S1130AC03839F091393922852835E1F40E94EE0352
S1130AD0009739F4E0913839F09139392285283575
S1130AE089F40E94EE03009741F4E0913839F091C3
S1130AF039392285283531F403C08AE992E0089512
S1130B008AE992E00895CF92DF92EF92FF920F93D9
S1130B101F93CF93DF93109237396894CC24C2F893
S1130B20D12CE12C6894FF24F3F80BEB18E3A8957F
S1130B300E94D303E7018D8180688D8310922C3944
S1130B40789480912C3981110AC064E670E080E0C9
S1130B5090E00E944802CFE0C15009F083C0809128
S1130B602A3990912B39019680932A3990932B3905
S1130B70813DD2E09D0724F020913339213019F4CE
S1130B808D3A934034F08AE9809337398AE992E0C8
S1130B9070C0E7018D818F778D8343E46DE482E536
S1130BA00E946301892B09F044C0E0913839F09127
S1130BB03939DF011297D8E3AA3BBD0709F078F46D
S1130BC0ED0188818A3269F03197C0E0DF01C827DE
S1130BD0E017F10739F081918A32C1F703C0C0E010
S1130BE001C0C0E012966C91129711968C910E94EC
S1130BF0D6012C2F30E028173907D9F411C0CF01C2
S1130C000196809338399093393981818C3249F433
S1130C102F5F223031F48281813459F4D39409C096
S1130C2020E0E0913839F0913939D8E3EA3BFD0707
S1130C3030F3CA94C1107BCFE1E0ED1568F4E09184
S1130C403839F09139398181813431F489E28093E2
S1130C50373980E090E00DC08AE9809337398AE91A
S1130C6092E007C064E670E080E090E00E944802F1
S1130C7073CFDF91CF911F910F91FF90EF90DF9091
S1130C80CF9008957F928F929F92AF92BF92CF920E
S1130C90DF92EF92FF920F931F93CF93DF93CDB721
S1130CA0DEB7AF97CDBFDEBF8FE0EEECF2EADE0138
S1130CB0119601900D928A95E1F721E02F8F92E031
S1130CC09A8F83E0898F2F8B9A8B898B2FA39AA37A
S1130CD089A36894BB24B3F8A12CC12C6894DD24A7
S1130CE0D3F80F2EFBEBEF2EF8E3FF2EF02DA89593
S1130CF06FE0CE0101960E94AF020E94D303D60199
S1130D0015968C911597806815968C9310922C39B2
S1130D10789480912C3981110AC064E670E080E0F7
S1130D2090E00E9448021FE0115009F0E9C10091CF
S1130D302A3910912B39013DB2E01B0724F0809130
S1130D403339813021F40D3AE3E01E0734F08AE9A7
S1130D50809337398AE992E0DAC10F5F1F4F912EF1
S1130D6000932A3910932B39D60115968C91159737
S1130D708F7715968C9343E56EE487E40E946301B4
S1130D80892B09F07BC02091383930913939D90148
S1130D901297E8E3AA3BBE0709F078F4FD018081CD
S1130DA08A3269F03196812CDF018826EE15FF0521
S1130DB039F081918A32C1F703C0812C01C0812CA2
S1130DC012966C91129711968C910E94D601282D3F
S1130DD030E02817390709F051C046C0CF01019609
S1130DE0809338399093393981818C32F1F52F5FB2
S1130DF02230D9F582818C3209F440C08835F1F172
S1130E008A2D90E048E150E04C0F5D1F480F591FB8
S1130E109F0127503109D9012C91DA012C9340E12B
S1130E2050E04C0F5D1F480F591F9F012850310996
S1130E30D9012C91DA012C9340E250E04C0F5D1F54
S1130E40480F591F9F0125503109D9012C91DA010E
S1130E502C93A8E2B0E0AC0FBD1FA80FB91F3697C2
S1130E6020812C93A3940AC020E0E0913839F091BA
S1130E703939B8E3EA3BFB0708F4B0CFBA94B110B0
S1130E8036CF6F8D81E09E8D961380E09D8D691322
S1130E9001C08F5F9C8D691301C08F5F9B8D6913A7
S1130EA001C08F5F9A8D691301C08F5F998D69139B
S1130EB001C08F5F988D691301C08F5F863008F47D
S1130EC010C18F8991E02E89281390E02D89821317
S1130ED001C09F5F2C89821301C09F5F2B898213FD
S1130EE001C09F5F2A89821301C09F5F29898213F1
S1130EF001C09F5F2889821301C09F5F963008F468
S1130F00F3C0CFA491E02EA52C1190E02DA5C21220
S1130F1001C09F5F2CA5C21201C09F5F2BA5C21206
S1130F2001C09F5F2AA5C21201C09F5F29A5C212FA
S1130F3001C09F5F28A5C21201C09F5F963008F4CC
S1130F40D6C0DFA091E02EA12D1190E02DA1D212E8
S1130F5001C09F5F2CA1D21201C09F5F2BA1D212AE
S1130F6001C09F5F2AA1D21201C09F5F29A1D212A2
S1130F7001C09F5F28A1D21201C09F5F963008F480
S1130F80B9C0ECE2DE1609F4B8C00E948B01782ED9
S1130F90E0903839F0903939D70190966C91909758
S1130FA05F968C910E948B01882E0F2EF2EFAF2E4C
S1130FB0F8E3BF2EF02D872D86958695F501918156
S1130FC0890F81836D2D8C2D0E948B01F0E47F9E0F
S1130FD0800D1124D50112968C93D7011497F70133
S1130FE035976C9180810E948B01F5019381890F63
S1130FF08383D7011C968C918E3419F48481806884
S11310008483F701628181810E948B010F2EF2EFAC
S1131010CF2EF8E3DF2EF02DD60114969C91149771
S1131020890F14968C93F701648183810E948B014C
S1131030D60115968C93F701678186810E948B01F6
S1131040D60116968C93F701618580850E948B01E9
S1131050D60117968C93F701828D853421F4F6011D
S1131060808580648087D7011E968C91813319F422
S113107084E68093FB38F701608987850E948B01A1
S11310800F2EF2EFCF2EF8E3DF2EF02DD6011996B6
S11310909C911997890F19968C93F701628981891C
S11310A00E948B01D6011A968C93F7016589848975
S11310B00E948B01D6011B968C93F7016789868960
S11310C00E948B01D6011C968C931C971D969C92B2
S11310D01D971E960C931E971F968C9280E090E0AD
S11310E016C08AE992E013C08AE992E010C08AE946
S11310F092E00DC08AE992E00AC08AE992E007C052
S113110064E670E080E090E00E9448020DCEAF9665
S1131110CDBFDEBFDF91CF911F910F91FF90EF9074
S1131120DF90CF90BF90AF909F908F907F90089565
S11311300E944206009761F4E0913839F091393900
S113114023A5283529F020910139243008F045C021
S11311500E944206009759F4E0913839F0913939E8
S113116023A5283521F0209101392430B0F50E94BF
S11311704206009759F4E0913839F091393923A5A2
S1131180283521F020910139243038F50E94420697
S1131190009759F4E0913839F091393923A528356D
S11311A021F0209101392430C0F40E9442060097B6
S11311B061F4E0913839F091393923A5283541F0AB
S11311C020910139243038F008958AE992E0089595
S11311D08AE992E008958AE992E008950F931F93B3
S11311E0CF93DF936623C1F1EC018C01060F111D2F
S11311F08FEF9FEF1BC0BC01660F771FFD01E42337
S1131200F523EF2B11F06F5F7F4F56954795992388
S113121034F4CB01E1E28E27E0E19E2701C0CB014B
S11312202150310941F70C171D07C1F0A991B0E015
S113123028E030E040E850E0DECF99233CF4880F0A
S1131240991F41E2842740E1942702C0880F991F27
S11312502150310991F705C08FEF9FEF20E130E075
S1131260ECCFDF91CF911F910F910895F8942098BE
S1131270E0E3F4E08081877F80834398E3E5F4E052
S11312808081877F8083539B06C087E893E1539BCB
S113129002C00197E1F7309B02C080E801C080E002
S11312A0539968C099EF539965C09150E1F762C0B2
S11312B0539B02C09150E1F73099806453995EC00A
S11312C099EF53995BC09150E1F758C0539B02C00A
S11312D09150E1F730998062539954C099EF539932
S11312E051C09150E1F74EC0539B02C09150E1F7B9
S11312F03099806153994AC099EF539947C09150EE
S1131300E1F744C0539B02C09150E1F730998860E3
S1131310539940C099EF53993DC09150E1F73AC0B9
S1131320539B02C09150E1F730998460539936C0C1
S113133099EF539933C09150E1F730C0539B02C0E9
S11313409150E1F73099826053992CC099EF5399E9
S113135029C09150E1F726C0539B02C09150E1F798
S113136030998160539922C099EF53991FC09150CD
S1131370E1F70895539BA0CF99EF9ACF539BAACF3F
S113138099EFA4CF539BB4CF99EFAECF539BBECF6D
S113139099EFB8CF539BC8CF99EFC2CF539BD2CF0D
S11313A099EFCCCF539BDCCF99EFD6CF0895209AF9
S11313B0882314F0289893C0289A91C029EF30E02C
S11313C0539B8FC021503109D9F78BC0539903C067
S11313D021503109D9F786FD02C0289887C0289A80
S11313E085C029EF30E0539B83C021503109D9F7E0
S11313F07FC0539903C021503109D9F785FD02C03C
S113140028987BC0289A79C029EF30E0539B77C095
S113141021503109D9F773C0539903C021503109C0
S1131420D9F784FD02C028986FC0289A6DC029EFAF
S113143030E0539B6BC021503109D9F767C05399F1
S113144003C021503109D9F783FD02C0289863C035
S1131450289A61C029EF30E0539B5FC021503109C5
S1131460D9F75BC0539903C021503109D9F782FDE4
S113147002C0289857C0289A55C029EF30E0539BE2
S113148053C021503109D9F74FC0539903C021509B
S11314903109D9F781FD02C028984BC0289A49C068
S11314A029EF30E0539B47C021503109D9F743C09D
S11314B0539903C021503109D9F780FD02C02898FF
S11314C03FC0289A3DC089EF90E0539B3BC00197F1
S11314D0E1F738C053993BC00197E1F70895539958
S11314E06DCF539978CF29EF30E070CF539979CFEE
S11314F0539984CF29EF30E07CCF539985CF53990A
S113150090CF29EF30E088CF539991CF53999CCF56
S113151029EF30E094CF53999DCF5399A8CF29EF69
S113152030E0A0CF5399A9CF5399B4CF29EF30E03D
S1131530ACCF5399B5CF5399C0CF29EF30E0B8CF92
S11315405399C1CF539903C089EF90E0C3CF089555
S11315508F929F92AF92BF92CF92DF92EF92FF92BF
S11315600F931F93CF93DF93CDB7DEB72997CDBFEA
S1131570DEBFF8942098E0E3F4E08081877F8083E5
S11315800E943609F82E89830E943609882E8A83A0
S11315900E943609982E8B830E943609A82E8C83CC
S11315A00E943609B82E8D830E943609C82E8E8378
S11315B00E943609E82E8F830E943609182F8887E7
S11315C00E943609082F898767E0CE0101960E94A0
S11315D0EE08212F30E0322F2227200F311D8217F1
S11315E0930709F0BEC0F0922D398F2D8770D82E45
S11315F0E2E08E17A1F1E81730F0882361F0F1E002
S11316008F17D9F062C083E0D816D9F1E4E0DE1672
S113161009F449C05AC0EAEBF8E3809100388583A5
S1131620808A918AA48EB58EC0A6E1A680910138E5
S11316309091023894AB85AB59C0EAEBF8E3809102
S11316400038808386829782A28AB38AC68EE78E08
S1131650809101389091023892A783A747C0EAEBA2
S1131660F8E380910038818380869186A48AB58AC4
S1131670C0A2E1A2809101389091023894A785A775
S113168035C0EAEBF8E38091003882838286938642
S1131690A68AB78AC2A2E3A2809101389091023847
S11316A096A787A723C0EAEBF8E3809100388383E9
S11316B084869586A08EB18EC4A2E5A2809101385D
S11316C09091023890AB81AB11C0EAEBF8E38091C2
S11316D00038848386869786A28EB38EC6A2E7A23C
S11316E0809101389091023892AB83AB209A439851
S11316F066E38AEB98E30E94EE08EAEBF8E396AB24
S113170087AB8081882314F0289857C0289A55C045
S11317108FE295E7539B53C00197E1F750C0F8015E
S113172081918F010E94D709E016F106C1F7209834
S11317300E94C6100E94C61062E08FED92EA0E94D9
S1131740AF028091003862E090E00E946103A895A6
S113175068EC70E080E090E00E944802109200384B
S113176013C088E080932D390E94C6100E94C610D1
S113177063E082EE92EA0E94AF02A89568EC70E002
S113178080E090E00E944802D11008C0EAEBF8E340
S113179080EF98E311928E179F07E1F70E940601EC
S11317A090E08093013890930238E0E4F4E081857E
S11317B082608187789489810BC05399A9CF0AEB01
S11317C018E30F2EF2EFEF2EF8E3FF2EF02DA7CF44
S11317D02996CDBFDEBFDF91CF911F910F91FF906E
S11317E0EF90DF90CF90BF90AF909F908F9008952F
S11317F00F931F93CF93DF938C01209A439866E352
S11318000E94EE08F80196AB87ABC0E3D5E72898B1
S113181061E070E080E090E00E949902539B1AC05E
S11318202197A9F717C08FE295E7539B15C001973D
S1131830E1F712C0539902C00197E1F7409A489A20
S1131840E801085C1F4F89910E94D7090C171D07F6
S1131850D1F707C05399E7CF5399F0CF8FE295E7BB
S1131860E9CFDF91CF911F910F9108952398E3E37E
S1131870F4E09081977F90832A9A229A2CE635E0AF
S11318802093080830930908882321F080EC809382
S1131890060810C02398E3E3F4E08081877F808307
S11318A02A9A229AE0E0F8E08CE695E08087918716
S11318B080E48683E0E0F8E08181808108952498C3
S11318C0029A0A9A84E098E38093343990933539E4
S11318D081E00E94360C089510920608239A229AF9
S11318E02A982B980895029A0A980E946C0C0895DD
S11318F0DF92EF92FF920F931F93CF93DF9368943D
S1131900DD24D3F8E12C6894FF24F3F8D9EFC3E085
S1131910A8956AEF70E080E090E00E9448020E947F
S1131920D303F70185818068858378940E948305B9
S11319308C01C15021F08A39924051F320C061E0FA
S113194086EE92EA0E94AF02D15029F00A3982E071
S11319501807E9F21BC00E94730C68EE73E080E084
S113196090E00E9448020E945F0C0E94C002DA9438
S1131970DD2061F00A39E2E01E0741F207C061E0B0
S113198086EE92EA0E94AF02D13029F3C801DF91BA
S1131990CF911F910F91FF90EF90DF900895CF9317
S11319A0DF930098E0E1F4E09081986090830198DF
S11319B0E1E1F4E09081986090830398E3E1F4E03E
S11319C09081986090830498E4E1F4E090819860B9
S11319D090830598E5E1F4E09081986090830698FF
S11319E0E6E1F4E09081986090830798E7E1F4E001
S11319F09081986090832098E0E3F4E09081977F51
S1131A0090832198E1E3F4E0908198609083249896
S1131A10E4E3F4E09081986090832598E5E3F4E0B2
S1131A209081986090832698E6E3F4E09081977F14
S1131A3090839081987F926090832798E7E3F4E005
S1131A409081986090834098E0E5F4E090819860FC
S1131A5090834198E1E5F4E0908198609083882335
S1131A6029F08081887F8560808305C0E1E5F4E00A
S1131A708081887F80834298E2E5F4E080818860F9
S1131A8080834398E3E5F4E08081877F80834498F2
S1131A90E4E5F4E08081886080834598C5E5D4E07E
S1131AA08881886088831092A100109200060E94A9
S1131AB0730C888188608883DF91CF9108950F9398
S1131AC01F93CF93DF930E945F0C0E94C0020E9479
S1131AD0C0020E94C00210922A3910922B390E942F
S1131AE0AD00809302390E94780C8C01892B59F047
S1131AF00E94730C0AE912E04BC0C15029F40FC0D4
S1131B00C11109C00CC0CFE00E945005892BA9F770
S1131B10F7CFC15021F00E949808892BD1F76AE0D1
S1131B2088EE92EA0E94AF02F894C0E0A895CF5FD5
S1131B30409A489882EF98E30E94F80B0E94360975
S1131B40D82F0E94A40362E08D2F90E00E946103CD
S1131B506C2F629566956695637070E080E090E006
S1131B600E944802D73411F0CE3101F77894A89539
S1131B7060ED77E080E090E00E944802A89560ED77
S1131B8077E080E090E00E944802A8950E946C0CE7
S1131B90C801DF91CF911F910F91089580E090E0EB
S1131BA0000001968C339105D9F708950F931F9384
S1131BB0CF93DF93C7E0D0E0082F10E02F98000008
S1131BC000002F9A0000000098010C2E02C03595E9
S1131BD027950A94E2F720FD02C02F9801C02F9A9E
S1131BE00E94CE0D219750F7DF91CF911F910F9155
S1131BF008951F93CF93DF93162FD42FC22F2F98BE
S1131C00279A2F98000000002F9A0000000080FD02
S1131C1002C02F9801C02F9A0E94CE0D812F0E94DE
S1131C20D60D8D2F0E94D60D8C2F0E94D60DDF91DC
S1131C30CF911F91089500000895269A2E980E942E
S1131C401B0E26980895109200380E94AA0088ED71
S1131C5084BFE0E0F1E0118284BF1082F89462E076
S1131C6070E088E790E00E940B1110923339EAEBA0
S1131C70F8E382EF98E31192E817F907E1F781E0BE
S1131C800E94CF0C0000A89585E00E945F0268EBDB
S1131C907BE080E090E00E944802C0E5D0E013E0E1
S1131CA0188300008881816088838895F8940E9455
S1131CB0C61065E083EF92EA0E94AF02A89568EE31
S1131CC073E080E090E00E9448028FEF83B987B907
S1131CD0E1E5F4E08081887F85608083E6E3F4E0D9
S1131CE08081887F82608083EAE4FAE080818E7C50
S1131CF08083EBE4FAE08081816380830E946C0C32
S1131D00789418838CE695E08093080890930908EA
S1131D10C0E00F2EF6E1CF2EF4E0DF2EF02D689414
S1131D20992493F801E514E00F2EF5E3EF2EF4E087
S1131D30FF2EF02D0F2EF0E5AF2EB12CF02DD3E0B9
S1131D400698F6018081877F8083A8959092333925
S1131D50F8018081887F80834C9880E00E94360C53
S1131D6061E084E193EA0E94AF02CE3B11F0C230FD
S1131D7041F4259A2D9860ED77E080E090E00E9490
S1131D8048022598F70180818860808364E670E0CA
S1131D9080E090E00E9448020E94AD00882EFFEB94
S1131DA0F81710F4CF5F01C0C0E00E94C70362E0DF
S1131DB0882D90E00E9461030E94C70368EC70E0E4
S1131DC080E090E00E94480280E00E94CF0C78946A
S1131DD0F8018081887F85608083F501D0838895B0
S1131DE0C83C08F4ADCFA89568EE73E080E090E0BD
S1131DF00E9448026CE089EF92EA0E94AF021092BE
S1131E00363980EC80933239279A21E341E060919E
S1131E103239809136390E94F90D68EE73E080E022
S1131E2090E00E94480221E341E0609132398091C0
S1131E3036390E94F90D87E0809333390F2EF7E08D
S1131E40AF2EF02DC12CDD24D3946894662461F860
S1131E500F2EF6E09F2EF02D0F2EF5E07F2EF02DA5
S1131E606894882482F80F2EF3E0BF2EF02D01E54C
S1131E7014E0C6E3D4E00F2EF0E5EF2EF12CF02DA4
S1131E80A895E09133398E2F90E08830910508F0C1
S1131E9085C0FC01E257FF4F0C94051181E080934B
S1131EA033390E947C027CC00E945F0D892B19F497
S1131EB0A092333902C0B09233390E94C6100E94F6
S1131EC0A4036FE086E093EA0E94AF0269C00E9417
S1131ED0730C0E94C6100E94A403692D86E193EA44
S1131EE00E94AF02A09233395BC00E945F0D892B20
S1131EF019F4A092333954C08092333951C00E94EE
S1131F005F0D892B19F4A09233394AC0709233398A
S1131F1047C00E945F0D892B19F4A092333940C049
S1131F20909233393DC00E945F0D892B19F4A09221
S1131F30333936C09092333933C0F60110820E948F
S1131F40730C80910338882329F0809100388F5FC7
S1131F50809300380E941D0E80912D3984FF04C0A7
S1131F6010922D39609233390E94C6108091033843
S1131F70882331F061E08DE193EA0E94AF0205C04D
S1131F8061E08FE193EA0E94AF026FE070E080E0CD
S1131F9090E00E9448021092033802C0A0923339A4
S1131FA081E00E94CF0C7894F8018081887F85605D
S1131FB080838881887F82608883F701B0820000F3
S1131FC088955ECF1F920F920FB60F9211242F9314
S1131FD03F934F935F936F937F938F939F93AF93AD
S1131FE0BF93EF93FF93F894E1E5F4E08081887F59
S1131FF08083E0E4F4E081858260818780913339D5
S1132000883011F00E94A80AE0E4F4E0818582603F
S1132010818780913339873031F481E00E94CF0C7D
S113202081E00E94CF0CE1E5F4E08081887F856047
S113203080837894FF91EF91BF91AF919F918F919D
S11320407F916F915F914F913F912F910F900FBEB0
S11320500F901F9018951F920F920FB60F92112494
S11320608F939F93EF93FF93E0913439F091353937
S113207088E3EA3BF807D8F089EB98E38093343996
S113208090933539FC018091000880838091000889
S11320908A3019F481E080932C39809134399091FD
S11320A035390196809334399093353905C088E3E6
S11320B0E430F80758F3E7CFFF91EF919F918F91A8
S11320C00F900FBE0F901F9018951F920F920FB68E
S11320D00F9211248F93EF93FF9381E08093033841
S11320E0E0E2F4E0818580648187E6E3F4E08081C6
S11320F0887F8083FF91EF918F910F900FBE0F9097
S11321001F9018951F920F920FB60F9211248F9360
S1132110EF93FF9381E080934301E6E3F4E0808151
S1132120887F82608083FF91EF918F910F900FBE23
S11321300F901F90189580E0089542E068ED88E7BD
S113214090E00E94E01040E068ED80E790E00E949B
S1132150E01040E068ED80E690E00E94E01080E04E
S1132160089580E00895E0E1F4E08081886081933F
S1132170E83184E0F807C9F7E0E3F4E0808188609F
S11321808193E83384E0F807C9F708952398E3E3DB
S1132190F4E08081877F8083229A2A980E94F91034
S11321A008950E94B3100E949D100E94E4100E94A2
S11321B0C6100E94B1100E94F7100E949B1008954F
S11321C0FC0164BF40830895E0E4F1E08181811162
S11321D0FDCFE0E4F1E089EA808388EE93E0828732
S11321E0938781E08283108A128A80E0089580E0D8
S11321F00895E0E0F8E08CE695E08087918780E838
S1132200858380EC868380E00895EE0FFF1F0590A0
S1132210F491E02D0994DC0128ED209334006C93B3
S10922200895F894FFCFBD
S113222624505542582C34302C474C4C2C312C30ED
S11322362C312C312C312C302A35430D0A2450559F
S113224642582C34302C4753412C312C302C312C11
S1132256312C312C302A34450D0A24505542582C41
S113226634302C4753562C312C302C312C312C3114
S11322762C302A35390D0A24505542582C34302C2A
S11322864747412C312C302C312C312C312C302A1F
S113229635410D0A24505542582C34302C56544797
S11322A62C312C302C312C312C312C302A35450D47
S11322B60AFE46FE48FE4CFE5124474E474E512C1C
S11322C65A44412A32320D0A24474E474E512C476E
S11322D64E532A32370D0A20004F4B004241440028
S11322E6470047505320474E53200D0A00424F4F94
S11322F65441005041535420534F4C41520D0A004F
S1132306476F7420496E697469616C2047505300A5
S10E2316476F744750530058002E001E
S9030000FC
