S0120000415454696E795F5049522E737265638F
S113000029C038C037C036C0F0C47DC403C532C06F
S113001031C030C02FC02EC02DC02CC02BC02AC070
S113002029C028C027C026C025C027C0C4C422C0F8
S113003021C020C0DEC1DFC1E0C1E1C1E2C1E3C132
S1130040E4C1E5C1E6C1E7C1E8C1E9C1EAC1EBC168
S1130050ECC1EDC111241FBECFEFCDBFDFE3DEBF86
S11300602FE3A0E0BEE301C01D92A033B207E1F785
S1130070E0D1B8C7C5CFCCD608951F920F920FB662
S11300800F92112400000F900FBE0F901F9018952F
S1130090F8942098E0E3F4E08081877F8083539B89
S11300A005C087EC539B02C08150E1F7309B02C02E
S11300B088E001C080E0539936C097EC539933C06F
S11300C09150E1F730C0539B02C09150E1F7309951
S11300D0846053992CC097EC539929C09150E1F74F
S11300E026C0539B02C09150E1F730998260539926
S11300F022C097EC53991FC09150E1F71CC0539B49
S113010002C09150E1F730998160539905C097EC92
S1130110539902C09150E1F7E0E4F4E091859860CE
S1130120918778940895539BD2CF97ECCCCF539B6F
S1130130DCCF97ECD6CF539BE6CF97ECE0CF209A59
S1130140882314F028987EC0289A7CC097EC539B8F
S11301507BC09150E1F778C0539902C09150E1F708
S113016086FD02C0289874C0289A72C097EC539BED
S113017071C09150E1F76EC0539902C09150E1F7FC
S113018085FD02C028986AC0289A68C097EC539BE2
S113019067C09150E1F764C0539902C09150E1F7F0
S11301A084FD02C0289860C0289A5EC097EC539BD7
S11301B05DC09150E1F75AC0539902C09150E1F7E4
S11301C083FD02C0289856C0289A54C097EC539BCC
S11301D053C09150E1F750C0539902C09150E1F7D8
S11301E082FD02C028984CC0289A4AC097EC539BC1
S11301F049C09150E1F746C0539902C09150E1F7CC
S113020081FD02C0289842C0289A40C097EC539BB5
S11302103FC09150E1F73CC0539902C09150E1F7BF
S113022080FD02C0289838C0289A36C087EC539BBA
S113023035C08150E1F732C0539902C08150E1F7D3
S113024020980895539982CF53998ACF97EC84CFFD
S113025053998CCF539994CF97EC8ECF539996CFD3
S113026053999ECF97EC98CF5399A0CF5399A8CF89
S113027097ECA2CF5399AACF5399B2CF97ECACCFB6
S11302805399B4CF5399BCCF97ECB6CF5399BECF03
S11302905399C6CF97ECC0CF5399C8CF5399D0CFB9
S11302A087ECCACFAB01BC0141155105610571054D
S11302B061F40895000001968A3921E09207D1F78C
S11302C0415051096109710919F080E090E0F2CFC1
S11302D00895CF93C82F882371F04A986AE070E09C
S11302E080E090E0DFDF4A9A62E370E080E090E033
S11302F0D9DFC15091F7CF910895AB01BC014115ED
S113030051056105710559F40895000001968E3276
S11303109105D9F7415051096109710919F080E03B
S113032090E0F3CF089580E090E0000001968C33D4
S11303309105D9F708950F931F93CF93DF93C7E0E7
S1130340D0E0082F10E02F98000000002F9A000042
S1130350000098010C2E02C0359527950A94E2F707
S113036020FD02C02F9801C02F9ADDDF219758F796
S1130370DF91CF911F910F9108951F93CF93DF9336
S1130380162FD42FC22F2F98279A2F9800000000E1
S11303902F9A0000000080FD02C02F9801C02F9A00
S11303A0C2DF812FC8DF8D2FC6DF8C2FC4DFDF9122
S11303B0CF911F91089500000895269A2E98FBDF8F
S11303C026980895662371F0DC019C01260F311DE7
S11303D0E0E0F8E0948195FFFDCF9D919283A21710
S11303E0B307C1F708958F7090E0FC01E65EFF4FFC
S11303F0099480E3089581E3089582E3089583E3F3
S1130400089584E3089585E3089586E3089587E3D2
S1130410089588E3089589E3089581E4089582E4C2
S1130420089583E4089584E4089585E4089586E4B2
S11304300895CF93DF93CDB7DEB76097CDBFDEBF0E
S11304401092013E10920F3E16DEF894209A219AE3
S11304502898299868EE73E080E090E023DF429AC0
S11304602698E6E3F4E08081877F80832798029AC8
S11304708081887F826080834398E3E5F4E0808113
S1130480877F80838081887F82608083209A409ADE
S113049015E062E370E080E090E004DF81E019DFC2
S11304A01150B9F700008AE014DF80E880930D3E14
S11304B004E01EE30F2EFCE0EF2EFEE3FF2EF02DF2
S11304C0F8011192EE16FF06E1F71092033E109226
S11304D0023E10920C3E10920F3E10920E3E87EE9A
S11304E090E08093080890930908279A21E341E05B
S11304F068E080E042DF68EE73E080E090E0D2DE06
S11305001092013E80E880930D3EF80111928F0114
S1130510EE16FF06D1F71092023E6894FF24F7F816
S11305200F2EF0E5DF2EF02D0F2EF9E4EF2EF02D37
S113053004E01EE3369B0FC040DF81E0CADE9091E9
S11305400C3E80910D3E892B80930C3E8091013EA0
S11305508F5F8093013E80910D3E869580930D3E82
S11305608091023E8F5F8093023E883090F08091AC
S11305700E3EE82FF0E0EC5FF14C90910C3E90833E
S11305808F5F80930E3E10920C3EF0920D3E1092BF
S1130590023E8091033E8F5F8093033E8C3308F4C8
S11305A073C0D982EA82F801C0808C2D82958F7045
S11305B01ADF8B838C2D8F7016DF8C83F801C1803A
S11305C08C2D82958F700FDF8D838C2D8F700BDFB8
S11305D08E83F801C2808C2D82958F7004DF8F8307
S11305E08C2D8F7000DF8887F801C3808C2D829555
S11305F08F70F9DE89878C2D8F70F5DE8A87F8017C
S1130600C4808C2D82958F70EEDE8B878C2D8F703D
S1130610EADE8C87F801C5808C2D82958F70E3DE2D
S11306208D878C2D8F70DFDE8E87F801C6808C2D30
S113063082958F70D8DE8F878C2D8F70D4DE888B57
S1130640F801C7808C2D82958F70CDDE898B8C2D1F
S11306508F70C9DE8A8BC090013E8C2D82958F707D
S1130660C2DE8B8B8C2D8F70BEDE8C8B1092033E82
S1130670F0920D3E1092023E10920E3E1092013EF8
S113068064E1CE0101969EDE67EE73E080E090E0C7
S113069009DE50CFCF93DF93CDB7DEB72897CDBF18
S11306A0DEBF88E0E8EFFFE8DE01119601900D92CD
S11306B08A95E1F768E0CE01019684DE6AE070E095
S11306C080E090E0EFDD2896CDBFDEBFDF91CF91D3
S11306D00895CF93DF9300D01F92CDB7DEB78EEF8E
S11306E0898385E48A8380E48B8363E0CE01019669
S11306F069DE6AE070E080E090E0D4DD2396CDBF4F
S1130700DEBFDF91CF910895EF92FF920F931F9375
S1130710CF93DF931F92CDB7DEB7E82EF62EC1D369
S113072086EAD9D381E1D7D3BCD387EAD4D340E0D6
S113073061E0CE010196FDD3C4D310E0B2D386EAC2
S1130740CAD38AE0C8D38F2DC6D3082FBAD364EF97
S113075071E080E090E0A6DD1F5F011102C0143655
S113076069F78E2D8068F82E9CD386EAB4D38BE08B
S1130770B2D38F2DB0D3082FA4D364EF71E080E0FF
S113078090E090DD1F5F011102C0143668F30F90F2
S1130790DF91CF911F910F91FF90EF900895CF9229
S11307A0DF92EF92FF92CF93C12CD12C760179D3B3
S11307B086EA91D38BE08FD380E08DD3C82F81D389
S11307C068EC70E080E090E06DDD82E082DD8FEF28
S11307D0C81AD80AE80AF80AC11107C088EEC81670
S11307E083E0D806E104F10411F768EC70E080E0DE
S11307F090E058DD67E070E081E090E085DF81E023
S113080068DD6FE170E08FE190E07EDF81E061DD23
S113081060E070E081E290E077DF81E05ADD60E043
S113082070E083E290E070DF62E670E082E090E0E6
S11308306BDF81E04EDD61E070E085E090E064DF35
S113084081E047DD62E670E086E090E05DDF81E014
S113085040DD62E070E089E090E056DF81E039DD60
S113086062E670E08AE090E04FDF81E032DD63E031
S113087070E08DE090E048DF60ED77E080E090E0AC
S113088011DD0FD386EA27D38FE025D387E023D366
S1130890C82F17D368EC70E080E090E003DD8FEFA1
S11308A0C81AD80AE80AF80A81E013DDC11107C0A2
S11308B088EEC81683E0D806E104F10410F3F1D2FF
S11308C086EA09D38BE007D381E105D3C82FF9D297
S11308D068EC70E080E090E0E5DC8FEFC81AD80A9D
S11308E0E80AF80A81E0F5DCC11107C088EEC816F1
S11308F083E0D806E104F10410F3CF91FF90EF9068
S1130900DF90CF9008951F920F920FB60F9211248B
S11309102F933F934F935F936F937F938F939F9303
S1130920AF93BF93CF93DF93EF93FF93F894B0DB30
S1130930C82F8091013E03DCC13021F5C4E0DEE321
S11309408881FDDB8981FBDB8A81F9DB8B81F7DB25
S11309508C81F5DB8D81F3DB8E81F1DB8F81EFDB25
S1130960FE018CE09EE31192E817F907E1F710927B
S1130970033E80E880930D3E1092023E10920E3E9C
S11309801092013EE0E4F4E08185886081877894E8
S1130990FF91EF91DF91CF91BF91AF919F918F9193
S11309A07F916F915F914F913F912F910F900FBE67
S11309B00F901F9018951F920F920FB60F9211244B
S11309C08F9380910F3E863018F085E080930F3E20
S11309D08091000880910F3E8F5F80930F3E8F912E
S11309E00F900FBE0F901F9018951F920F920FB685
S11309F00F9211248F93EF93FF93E0E2F4E081854B
S1130A0080648187FF91EF918F910F900FBE0F90BB
S1130A101F9018951F920F920FB60F9211247F9278
S1130A208F929F92AF92BF92CF92DF92EF92FF92FA
S1130A300F931F932F933F934F935F936F937F93E2
S1130A408F939F93AF93BF93EF93FF93CF93DF93D2
S1130A50CDB7DEB7A097CDBFDEBF8091003E8F5FDC
S1130A608093003E1ED286EA36D28BE034D280E0F8
S1130A7032D2182F26D2111101C091DE12D286EA89
S1130A802AD28BE028D281E126D21BD20AD286EA6E
S1130A9022D287E120D205D287EA1DD240E062E06B
S1130AA0CE01019646D240E061E0CE01029641D2E9
S1130AB008D2898190E0982F88272A81820F911D7E
S1130AC06C01092E000CEE08FF0820912E3F309196
S1130AD02F3F2115310529F480932E3F90932F3F0A
S1130AE020C04901330FAA08BB08D501C401880FEF
S1130AF0991FAA1FBB1F880E991EAA1EBB1E8C0C11
S1130B009D1CAE1CBF1CD501C401B695A795979535
S1130B108795B695A7959795879580932E3F909343
S1130B202F3F00912E3F10912F3F072E79E0B6946E
S1130B30A794979487947A95D1F7702DC801012EC4
S1130B40000CAA0BBB0B880E991EAA1EBB1ED50156
S1130B50C401072E7CE0B695A795979587957A955D
S1130B60D1F7702D8F703FDC8983892D8F703BDC2A
S1130B708A83D501C401689413F8B695A79597950F
S1130B8087951694D1F78F702EDC8B83882D8F7008
S1130B902ADC8C836894772475F87D82812F829572
S1130BA08F7021DC8E83812F8F701DDC8F83C801B1
S1130BB09595879595958795959587959595879519
S1130BC08F7011DC8887802F8F700DDC89877A867F
S1130BD0D701C601072E7CE0B695A7959795879512
S1130BE07A95D1F7702D8F70FEDB8B878D2D8F70EA
S1130BF0FADB8C87D701C601689413F8B695A795DC
S1130C00979587951694D1F78F70EDDB8D878C2D92
S1130C108F70E9DB8E877F868091003E8F70E3DBE7
S1130C20888B04E01EE3F8017080872D82958F7015
S1130C30DADB898B872D8F70D6DB8A8BF801718084
S1130C40872D82958F70CFDB8B8B872D8F70CBDBBD
S1130C508C8BF8017280872D82958F70C4DB8D8B0D
S1130C60872D8F70C0DB8E8BF8017380872D829562
S1130C708F70B9DB8F8B872D8F70B5DB888FF80170
S1130C807480872D82958F70AEDB898F872D8F704E
S1130C90AADB8A8FF8017580872D82958F70A3DB7C
S1130CA08B8F872D8F709FDB8C8FF8017680872D3B
S1130CB082958F7098DB8D8F872D8F7094DB8E8F4C
S1130CC0F8011781812F82958F708DDB8F8F812F93
S1130CD08F7089DB88A3DEDC60E1CE01019672DBD4
S1130CE0F8DC60E1CE0141966DDB8C149D04AE040A
S1130CF0BF0470F485E0EDDA90910C3E80910D3ED6
S1130D00892B80930C3E8091013E8F5F8093013E3E
S1130D1080910D3E869580930D3E8091023E8F5FBB
S1130D208093023E883098F080910E3EE82FF0E0E8
S1130D30EC5FF14C90910C3E90838F5F80930E3E5C
S1130D4010920C3E80E880930D3E1092023E8091FA
S1130D50033E8F5F803418F48093033E09C01092E1
S1130D60033E80E880930D3E1092023E10920E3EA8
S1130D7081E080934301A096CDBFDEBFDF91CF9188
S1130D80FF91EF91BF91AF919F918F917F916F915F
S1130D905F914F913F912F911F910F91FF90EF9091
S1130DA0DF90CF90BF90AF909F908F907F900F90E7
S1130DB00FBE0F901F90189580E0089580E008956D
S1130DC080E00895E0E1F4E0808188608193E83177
S1130DD084E0F807C9F7E0E3F4E080818860819358
S1130DE0E83384E0F807C9F7E0E5F4E0808188603F
S1130DF08193E83584E0F807C9F708952398E3E37D
S1130E00F4E08081877F8083229A2A981CD00895F9
S1130E10D9DFD4DF05D0F2DFD3DF13D0CDDF0895DF
S1130E20E0E4F1E081818111FDCFE0E4F1E089EAC1
S1130E30808388EE93E08287938781E0828380E0D9
S1130E40089580E00895E0E0F8E08CE695E080877E
S1130E50918780E8858380EC868380E008958823E9
S1130E6021F0289A2D9A2F9A089528982D982F9832
S1130E700895882311F021980895219A29980895B6
S1130E8090E0A0E0B0E00097A105B10549F00000B2
S1130E9000000000000000000197A109B109B9F7A2
S1130EA0089581E0DCDF81E0E4DF8AE0E9DF80E0CF
S1130EB0E0DF80E0E5DF80E0D2DF80E0E1DF81E0B9
S1130EC00895219A299880E0DBDF289A2D9A80E002
S1130ED0D7DF299A0895CF93DF93D82FC8E08D2FB9
S1130EE0881F8827881FC5DF80E0CADF289A2D9ACB
S1130EF080E0C6DF28982D98DD0F80E0C1DFC15067
S1130F0071F7219880E0BCDF289A2D9A80E0B8DF41
S1130F10319B07C028982D98219A299880E0B0DF4A
S1130F2004C028982D98219AC1E08C2FDF91CF918D
S1130F300895BF92CF92DF92EF92FF920F931F9387
S1130F40CF93DF937C01062FB42E2198C7E0D0E025
S1130F5010E0CC24C394D12C289A2D9A319B08C03C
S1130F60C6010C2E02C0880F991F0A94E2F7182BB1
S1130F7080E086DF28982D9880E082DF219760F753
S1130F804B2D50E0F701E40FF51F1083219A602FD9
S1130F9070E061507109461757076CF480E069DF0F
S1130FA0289A2D9A80E06CDF28982D9881E061DFE3
S1130FB080E066DF0CC081E05CDF289A2D9A80E037
S1130FC090E09BD928982D9880E090E096D981E014
S1130FD0DF91CF911F910F91FF90EF90DF90CF9011
S10B0FE0BF900895F894FFCFBF
S1130FE820202020494F42494F2044554D503A2053
S10B0FF8FE46FE48FE4CFE51CA
S9030000FC
