S0110000415454696E795F42422E73726563F7
S113000029C038C037C036C0DCC34CC1F2C332C0CB
S113001031C030C02FC02EC02DC02CC02BC02AC070
S113002029C028C027C026C025C027C0A5C322C018
S113003021C020C044C245C246C247C248C249C2C8
S11300404AC24BC24CC24DC24EC24FC250C251C230
S113005052C253C211241FBECFEFCDBFDFE3DEBFB8
S11300602EE3A0E0BEE301C01D92AC31B207E1F77C
S113007007D36BC5C5CF7FD408951F920F920FB6D7
S11300800F92112400000F900FBE0F901F9018952F
S1130090F8942098E0E3F4E08081877F8083539B89
S11300A005C087EC539B02C08150E1F7309B02C02E
S11300B088E001C080E0539936C097EC539933C06F
S11300C09150E1F730C0539B02C09150E1F7309951
S11300D0846053992CC097EC539929C09150E1F74F
S11300E026C0539B02C09150E1F730998260539926
S11300F022C097EC53991FC09150E1F71CC0539B49
S113010002C09150E1F730998160539905C097EC92
S1130110539902C09150E1F7E0E4F4E091859860CE
S1130120918778940895539BD2CF97ECCCCF539B6F
S1130130DCCF97ECD6CF539BE6CF97ECE0CF209A59
S1130140882314F028987EC0289A7CC097EC539B8F
S11301507BC09150E1F778C0539902C09150E1F708
S113016086FD02C0289874C0289A72C097EC539BED
S113017071C09150E1F76EC0539902C09150E1F7FC
S113018085FD02C028986AC0289A68C097EC539BE2
S113019067C09150E1F764C0539902C09150E1F7F0
S11301A084FD02C0289860C0289A5EC097EC539BD7
S11301B05DC09150E1F75AC0539902C09150E1F7E4
S11301C083FD02C0289856C0289A54C097EC539BCC
S11301D053C09150E1F750C0539902C09150E1F7D8
S11301E082FD02C028984CC0289A4AC097EC539BC1
S11301F049C09150E1F746C0539902C09150E1F7CC
S113020081FD02C0289842C0289A40C097EC539BB5
S11302103FC09150E1F73CC0539902C09150E1F7BF
S113022080FD02C0289838C0289A36C087EC539BBA
S113023035C08150E1F732C0539902C08150E1F7D3
S113024020980895539982CF53998ACF97EC84CFFD
S113025053998CCF539994CF97EC8ECF539996CFD3
S113026053999ECF97EC98CF5399A0CF5399A8CF89
S113027097ECA2CF5399AACF5399B2CF97ECACCFB6
S11302805399B4CF5399BCCF97ECB6CF5399BECF03
S11302905399C6CF97ECC0CF5399C8CF5399D0CFB9
S11302A087ECCACF1F920F920FB60F9211242F938F
S11302B03F934F935F936F937F938F939F93AF93EA
S11302C0BF93CF93EF93FF93F894E2DEC091003E87
S11302D08C2F35DFCF5FC093003EE0E4F4E08185EE
S11302E0886081877894FF91EF91CF91BF91AF910E
S11302F09F918F917F916F915F914F913F912F913A
S11303000F900FBE0F901F901895AB01BC014115C3
S113031051056105710561F40895000001968A395B
S113032021E09207D1F7415051096109710919F08F
S113033080E090E0F2CF08951F93CF93DF9310E015
S11303401BC062D382EA7AD3812F78D38D2F829512
S1130350880F807E73D3C0E280E070D3C150E1F790
S113036063D365E070E080E090E0CFDFDF5FD830FA
S113037041F71F5F103411F0D0E0E3CF1092013E3B
S11303801092023E80E880930E3EE5E0FEE38DE0AD
S11303909EE311928E179F07E1F71092043E10928C
S11303A0033E1092103E10920D3E1092113E109298
S11303B00F3EDF91CF911F9108950F931F93CF9319
S11303C0DF9300E033C020D382EA38D3802F36D3C2
S11303D0812F8295880F807E31D3D0E2DC0F8C2F61
S11303E02DD381E08C0F2AD382E08C0F27D383E0B6
S11303F08C0F24D384E08C0F21D385E08C0F1ED383
S113040086E08C0F1BD387E08C0F18D3C85FDC13F6
S1130410E6CF0AD365E070E080E090E076DF1F5F0E
S1130420CD2F183081F60F5F023019F0C0E010E0D4
S1130430CACFDF91CF911F910F910895CF93C82F09
S1130440882371F04A986AE070E080E090E05DDF14
S11304504A9A62E370E080E090E057DFC15091F780
S1130460CF910895AB01BC0141155105610571059A
S113047059F40895000001968E329105D9F7415040
S113048051096109710919F080E090E0F3CF0895F2
S1130490662371F0DC019C01260F311DE0E0F8E0D9
S11304A0948195FFFDCF9D919283A217B307C1F765
S11304B008958F7090E0FC01E65EFF4F099480E39D
S11304C0089581E3089582E3089583E3089584E31E
S11304D0089585E3089586E3089587E3089588E3FE
S11304E0089589E3089581E4089582E4089583E4F6
S11304F0089584E4089585E4089586E408952F9288
S11305003F924F925F926F927F928F929F92AF929F
S1130510BF92CF92DF92EF92FF920F931F93CF93EC
S1130520DF93CDB7DEB7C157D109CDBFDEBF80E1C0
S1130530EEE4FBE8DE01119601900D928A95E1F755
S113054060E1CE010196A4DFF894612C5E0181E1A3
S1130550A80EB11C4E01E0E38E0E911C6E01F1E376
S1130560CF0ED11C482C592C3C2CE296DFAEE297DE
S113057049C04AD282EA62D2862D60D2872D829502
S1130580880F807E5BD240D283EA58D2850140E056
S113059062E0C80181D20F5F1F4F80169106B9F740
S11305A040E061E0842D952D77D23ED2750187011C
S11305B00A191B09000F111FF70121907F01822DD9
S11305C082958F7076DFF601E00FF11F8083822D14
S11305D08F706FDFE2E3F0E0EC0FFD1FE00FF11F1F
S11305E08083CE14DF0419F760E4832DE2969FAD77
S11305F0E2974EDF7394F8E07F12BBCF639480E4FC
S1130600681611F0712CB5CF6AE070E080E090E0DC
S11306107CDE7894CF58DF4FCDBFDEBFDF91CF9122
S11306201F910F91FF90EF90DF90CF90BF90AF900C
S11306309F908F907F906F905F904F903F902F90FE
S11306400895CF93DF93CDB7DEB72897CDBFDEBF34
S113065088E0EEE5FBE8DE01119601900D928A95A3
S1130660E1F768E0CE01019613DF6AE070E080E014
S113067090E04BDE2896CDBFDEBFDF91CF91089589
S1130680FADCF894429A2698E6E3F4E08081877FC6
S11306908083029A8081887F826080834398E3E527
S11306A0F4E08081877F80838081887F826080837B
S11306B0209A409A259A1092113EC3E262E370E0B8
S11306C080E090E022DE81E0B9DEC150B9F700009D
S11306D08AE0B4DEB6DFE1E1F4E08081877F8083E5
S11306E01092013E1092023E80E880930E3EE5E0B7
S11306F0FEE38DE09EE31192E817F907E1F710920B
S1130700043E1092033E1092103E10920D3E109241
S1130710113E10920F3E7894C2E1DEE38091113EC7
S1130720853040F18881893609F589818F36F1F465
S11307308A818234D9F48B81843439F48C818E3467
S1130740A9F48AE07BDEDBDE11C0853439F48C81C8
S1130750813461F484E672DEEFDD08C0843531F45F
S11307608C81803519F484E669DE27DE81E066DE5B
S11307701092113E0000D2CF1F920F920FB60F922B
S113078011248F939F93EF93FF938091113E8630B2
S113079018F085E08093113E8091113E90910008FD
S11307A0E82FF0E0EE5EF14C90838F5F8093113E72
S11307B0FF91EF919F918F910F900FBE0F901F901B
S11307C018951F920F920FB60F9211248F93EF93E7
S11307D0FF9381E08093103EE0E2F4E08185806441
S11307E08187FF91EF918F910F900FBE0F901F9013
S11307F018951F920F920FB60F9211242F933F93C7
S11308004F935F936F937F938F939F93AF93BF9314
S1130810CF93DF93EF93FF938091103E882339F0B9
S113082090910D3E80910E3E892B80930D3E8091D8
S11308300E3E869580930E3E8091033E8F5F80939B
S1130840033E883098F080910F3EE82FF0E0EB5F94
S1130850F14C90910D3E90838F5F80930F3E1092E8
S11308600D3E80E880930E3E1092033E8091043E3C
S11308708F5F8093043E8C33D0F1C6D082EADED001
S11308808091013EDBD08091023ED8D0C5E0DEE30A
S11308908881D4D08981D2D08A81D0D08B81CED0A6
S11308A08C81CCD08D81CAD08E81C8D08F81C6D0A6
S11308B0BBD08091023E883F40F08091013E8F5F23
S11308C08093013E1092023E03C0885F8093023EF3
S11308D08091013E803410F01092013E1092043E4B
S11308E080E880930E3E1092033E10920F3E1092C9
S11308F0103E81E080934301FF91EF91DF91CF910E
S1130900BF91AF919F918F917F916F915F914F9123
S11309103F912F910F900FBE0F901F90189580E07C
S1130920089580E0089580E00895E0E1F4E0808196
S113093088608193E83184E0F807C9F7E0E3F4E0E4
S1130940808188608193E83384E0F807C9F7E0E5A3
S1130950F4E0808188608193E83584E0F807C9F782
S113096008952398E3E3F4E08081877F8083229ACB
S11309702A981CD00895D9DFD4DF05D0F2DFD3DF65
S113098013D0CDDF0895E0E4F1E081818111FDCF42
S1130990E0E4F1E089EA808388EE93E0828793873C
S11309A081E0828380E0089580E00895E0E0F8E04B
S11309B08CE695E08087918780E8858380EC868348
S11309C080E00895882321F0289A2D9A2F9A08957B
S11309D028982D982F980895882311F02198089528
S11309E0219A2998089590E0A0E0B0E00097A1052D
S11309F0B10549F00000000000000000000001976C
S1130A00A109B109B9F7089581E0DCDF81E0E4DFF1
S1130A108AE0E9DF80E0E0DF80E0E5DF80E0D2DF4C
S1130A2080E0E1DF81E00895219A299880E0DBDF0E
S1130A30289A2D9A80E0D7DF299A0895CF93DF93DF
S1130A40D82FC8E08D2F881F8827881FC5DF80E036
S1130A50CADF289A2D9A80E0C6DF28982D98DD0FEA
S1130A6080E0C1DFC15071F7219880E0BCDF289A93
S1130A702D9A80E0B8DF319B07C028982D98219AE1
S1130A80299880E0B0DF04C028982D98219AC1E00D
S1130A908C2FDF91CF910895BF92CF92DF92EF9286
S1130AA0FF920F931F93CF93DF937C01062FB42EF5
S1130AB02198C7E0D0E010E0CC24C394D12C289A2C
S1130AC02D9A319B08C0C6010C2E02C0880F991FB5
S1130AD00A94E2F7182B80E086DF28982D9880E0AE
S1130AE082DF219760F74B2D50E0F701E40FF51FEB
S1130AF01083219A602F70E06150710946175707DF
S1130B006CF480E069DF289A2D9A80E06CDF2898E5
S1130B102D9881E061DF80E066DF0CC081E05CDF5E
S1130B20289A2D9A80E090E09DDC28982D9880E00A
S1130B3090E098DC81E0DF91CF911F910F91FF90BD
S1110B40EF90DF90CF90BF900895F894FFCF10
S1130B4E20202020494F42494F2044554D503A20F1
S10B0B5EFE46FE48FE4CFE5168
S9030000FC
