S0150000415454696E795F436F6C6C61722E737265631A
S11300004BC05AC059C058C048CCC9CB5BCC54C0B3
S113001053C052C051C050C04FC04EC04DC04CC060
S11300204BC04AC049C048C047C046C005CC44C0C4
S113003043C042C098C09AC09CC09EC0A0C0A2C089
S1130040A4C0A6C0A8C0CDC0B5C0B6C0B7C0B8C013
S1130050B9C0BAC0BBC0BDC0BFC097C198C199C127
S11300609AC19BC19CC19DC19EC19FC1A0C1A1C198
S1130070A2C1A3C1A4C1A5C1A6C1D9CAE3CAEECA7B
S1130080F8CAFDCA07CB11CB13CB23CB2ECB3ECB67
S11300904ECB5ECB6ECB76CB11241FBECFEFCDBF44
S11300A0DFE3DEBF2EE3A0E0BEE301C01D92A93B67
S11300B0B207E1F791D999CCA3CF68DC089525E084
S11300C03EE32093B73E3093B83EA091B23EB09148
S11300D0B33E1597E091B73EF091B83E9F012F5F74
S11300E03F4F2093B73E3093B83E9181981306C09A
S11300F09281961303C09381941731F02A173B071A
S113010048F38AE992E0089580E090E00895249A03
S1130110239A229A2A9A2B9A2C9A029A0A9A239818
S1130120E0E0F8E08CE695E08087918780EC8683B8
S113013086E09EE38093B23E9093B33E089510927E
S11301400608029A0A98249A239A2B980895E82F6D
S1130150862F90E0C1978930910500F5865E9F4F08
S11301608F939F93089581E090E01AC082E090E01D
S113017017C083E090E014C084E090E011C085E0F3
S113018090E00EC086E090E00BC087E090E008C0ED
S113019088E090E005C089E090E002C080E090E053
S11301A04E2F50E0FA01F097EA30F105C0F4ED5D0E
S11301B0FF4F09940A960895449608954E9608951B
S11301C088960895C2960895CC9608958A5B9F4FA9
S11301D00895805B9F4F0895865A9F4F089580E04D
S11301E090E00895AB01BC0141155105610571050D
S11301F061F40895000001968A3921E09207D1F74D
S1130200415051096109710919F080E090E0F2CF81
S11302100895CF93C82F429A882371F04A986AE0D0
S113022070E080E090E0DEDF4A9A62E370E080E014
S113023090E0D8DFC15091F74298E2E5F4E0808184
S113024088608083CF910895CF93C82F429A8823E2
S113025071F04A986CE271E080E090E0C3DF4A9A62
S113026062E370E080E090E0BDDFC15091F7429816
S1130270E2E5F4E0808188608083CF910895AB014A
S1130280BC01411551056105710559F4089500003B
S113029001968E329105D9F74150510961097109CE
S11302A019F080E090E0F3CF0895662371F0DC014B
S11302B09C01260F311DE0E0F8E0948195FFFDCF0D
S11302C09D919283A217B307C1F70895CF93DF934B
S11302D0CDB7DEB7C159D109CDBFDEBF68EE73E03B
S11302E080E090E07FDF8DE1EEEEF9E9DE0111962A
S11302F001900D928A95E1F76DE1CE010196D5DF6B
S11303008DE1EBE0FAE9DE015E9601900D928A95AB
S1130310E1F76DE1CE014E96C8DF8DE1E8E2FAE93E
S1130320DE01DB9601900D928A95E1F76DE1CE0135
S1130330CB96BBDF8DE1E5E4FAE9DE01A85ABF4FB5
S113034001900D928A95E1F76DE1CE01885A9F4F95
S1130350ACDF8DE1E2E6FAE9DE01AB58BF4F019074
S11303600D928A95E1F76DE1CE018B589F4F9DDF89
S1130370CF56DF4FCDBFDEBFDF91CF9108958F7091
S113038090E0FC01E35DFF4F099480E3089581E36D
S1130390089582E3089583E3089584E3089585E34B
S11303A0089586E3089587E3089588E3089589E32B
S11303B0089581E4089582E4089583E4089584E42B
S11303C0089585E4089586E408951F93CF93DF93F9
S11303D0EC01D5DF182FCE019595879595958795D6
S11303E09595879595958795CADF90E0982F8827EE
S11303F0810F911DDF91CF911F910895DF92EF92AC
S1130400FF920F931F93CF93DF9300D000D0CDB70B
S1130410DEB77C01162F8F2D90E0D7DF082FD92E61
S1130420C7019927D2DFF82EE92E143040F0D98283
S11304300A839B838C8364E0CE01019636DF1330FC
S113044041F40983EA82FB8263E0CE0101962DDF49
S113045010C0123039F4E982FA8262E0CE010196CA
S113046024DF07C0113029F4F98261E0CE0101963E
S11304701CDF2496CDBFDEBFDF91CF911F910F917A
S1130480FF90EF90DF900895CF93DF93CDB7DEB761
S11304902897CDBFDEBF70DA88E0EFE7FAE9DE0126
S11304A0119601900D928A95E1F768E0CE010196CC
S11304B0FCDE6AE070E080E090E094DE2896CDBF38
S11304C0DEBFDF91CF910895CF93DF9300D01F92C9
S11304D0CDB7DEB78EEF898385E48A8380E48B838E
S11304E063E0CE010196E1DE6AE070E080E090E036
S11304F079DE2396CDBFDEBFDF91CF91089561E011
S113050088EA9AE9D2DE6AE070E080E090E06ADE90
S1130510089586E09EE38093B23E9093B33E80E0DC
S113052090E028E5E091B23EF091B33EE80FF91F68
S11305302083019688379105A9F786E09EE380938E
S1130540B23E9093B33E0895CF92DF92EF92FF9222
S11305500F931F93CF93DF93CDB7DEB76F97CDBFC4
S1130560DEBF8FE0E7E8FAE9DE01119601900D9213
S11305708A95E1F76894FF24F2F8E12C00E018E092
S11305806FE0CE01019691DEC4DFF80185818068B9
S1130590858378946CE474E080E090E023DE8091BD
S11305A0AC3E9091AD3E01968093AC3E9093AD3EAF
S11305B0893C910564F08091B13E873041F082E43A
S11305C08093B43E0F2EF2E4FF2EF02DD2C0F8013A
S11305D085818F77858341E464E48AE570DD892B26
S11305E0A9F13DC0CF0101968093B73E9093B83EE8
S11305F081818C3261F52F5F223049F522812C32C2
S113060071F13681383559F18E2D90E0A4E1B0E0D6
S1130610AC0FBD1FA80FB91F3C93A0E1B0E0AC0F15
S1130620BD1FA80FB91F35813C93A8E1B0E0AC0F02
S1130630BD1FA80FB91F33813C93ECE1F0E0EC0F30
S1130640FD1FE80FF91F2083E39409C020E0E09127
S1130650B73EF091B83E8EE3EE37F80718F2FA94FD
S1130660F1108ECF1F8981E09E89911380E09D89CE
S1130670191301C08F5F9C89191301C08F5F8330E8
S113068008F456C00B8981E09A89901380E0998917
S1130690091301C08F5F9889091301C08F5F8330EC
S11306A008F44BC0EB8C81E09A8D9E1180E0998D0B
S11306B0E91201C08F5F988DE91201C08F5F83300A
S11306C008F440C0DF8C81E09E8D9D1180E09D8DFB
S11306D0D91201C08F5F9C8DD91248C08F5F8330BF
S11306E0B0F1E5E9FEE38CEA9EE31192E817F9071D
S11306F0E1F79CE2E91681F1E091B73EF091B83E52
S1130700628580E324DDC82E612F802F20DD05E97A
S11307101EE3E0E1CE9E800D1124F80180836E2D4E
S11307208D2D15DD880F880F880FF801818321C076
S11307300F2EFAE9FF2EF02D1CC00F2EFAE9FF2E22
S1130740F02D17C00F2EFAE9FF2EF02D12C00F2E38
S1130750FAE9FF2EF02D0DC00F2EF2E4FF2EF02D3E
S113076008C00F2EFAE9FF2EF02D03C08330C8F322
S1130770B8CF8F2D6F96CDBFDEBFDF91CF911F9184
S11307800F91FF90EF90DF90CF900895DDDE8111FF
S113079007C0E091B73EF091B83E9285983561F577
S11307A0D3DE811107C0E091B73EF091B83E928547
S11307B0983511F5C9DE811107C0E091B73EF0917B
S11307C0B83E92859835C1F4BFDE811107C0E0912F
S11307D0B73EF091B83E9285983571F4B5DE81113B
S11307E008C0E091B73EF091B83E9285983521F467
S11307F002C08AE908958AE90895FF920F931F932E
S1130800CF93DF931092B43E03E010E0F12CC0E0EC
S1130810D8E07FDE8D8180688D8378946CE474E009
S113082080E090E0DFDC8091AC3E9091AD3E01969B
S11308308093AC3E9093AD3E893C910544F0809109
S1130840B13E873021F082E48093B43E39C08D817B
S11308508F778D8343E46DE482E531DC892B91F05D
S11308601AC0CF0101968093B73E9093B83E818120
S11308708C3249F42F5F223031F48281813459F46F
S1130880F39409C020E0E091B73EF091B83E8EE3C6
S1130890EE37F80730F30150110909F0BACF81E0BF
S11308A08F1558F4E091B73EF091B83E81818134C0
S11308B021F48093B43E80E003C082E48093B43E8C
S11308C0DF91CF911F910F91FF9008957F928F92A6
S11308D09F92AF92BF92CF92DF92EF92FF920F93CB
S11308E01F93CF93DF93CDB7DEB76F97CDBFDEBF36
S11308F08FE0E6E9FAE9DE01119601900D928A95FE
S1130900E1F76894DD24D2F8C12CE12C6894FF242B
S1130910F3F86FE0CE010196C8DCFBDDD701159634
S11309208C911597806815968C9378946CE474E098
S113093080E090E057DC0091AC3E1091AD3E093C64
S1130940110564F08091B13E873041F082E48093D8
S1130950B43E0F2EF2E4DF2EF02D5CC10F5F1F4F6B
S11309600093AC3E1093AD3EF70185818F7785836C
S113097043E56EE487E4A3DB892B09F447C050C048
S1130980CF0101968093B73E9093B83E81818C321B
S1130990F1F52F5F2230D9F582818C3209F440C001
S11309A08835F1F18C2D90E044E150E04C0F5D1F4F
S11309B0480F591F9F0127503109D9012C91DA01A1
S11309C02C9340E150E04C0F5D1F480F591F9F01CD
S11309D028503109D9012C91DA012C9348E150E0D7
S11309E04C0F5D1F480F591F9F0125503109D90134
S11309F02C91DA012C93ACE1B0E0AC0FBD1FA80F31
S1130A00B91F369720812C93C3940AC020E0E0914B
S1130A10B73EF091B83EBEE3EE37FB0708F4B0CF23
S1130A20DA94D11076CF6F8981E09E89961380E0A5
S1130A309D89691301C08F5F9C89691301C08F5F11
S1130A40833008F4CFC08B8991E02A89281390E081
S1130A502989821301C09F5F2889821301C09F5F87
S1130A60933008F4C4C0CF8C91E02E8D2C1190E00B
S1130A702D8DC21201C09F5F2C8DC21201C09F5FD9
S1130A80933008F4B9C09B8C91E02A8D291190E031
S1130A90298D921201C09F5F288D921201C09F5F21
S1130AA0933008F4AEC0ECE29E1609F4AFC04FDBFD
S1130AB0782EE090B73EF090B83ED70190966C91B6
S1130AC090975F968C9143DB882E0F2EF5E9AF2E1D
S1130AD0FEE3BF2EF02D872D86958695F501918135
S1130AE0890F8183692D8C2D32DBF0E47F9E800D8C
S1130AF01124D50112968C93D7011497F7013597D9
S1130B006C91808124DBF5019381890F8383D70164
S1130B101C968C918E3419F4848180688483F70147
S1130B206281818114DB0F2EF5E9AF2EFEE3BF2E27
S1130B30F02DD50114969C911497890F14968C93DB
S1130B40F7016481838103DBD50115968C93F7014A
S1130B5067818681FCDAD50116968C93F70161854D
S1130B608085F5DAD50117968C93F701828D85344B
S1130B7021F4F501808580648087D7011E968C91CD
S1130B80813319F484E680939E3EF701608987855A
S1130B90DEDA0F2EF5E9AF2EFEE3BF2EF02DD501E0
S1130BA019969C911997890F19968C93F70162896C
S1130BB08189CDDAD5011A968C93F70165898489E8
S1130BC0C6DAD5011B968C93F70167898689BFDA4B
S1130BD0D5011C968C931C971D960C931D971E96FD
S1130BE08C9218C00F2EFAE9DF2EF02D13C00F2EB1
S1130BF0FAE9DF2EF02D0EC00F2EFAE9DF2EF02DCC
S1130C0009C00F2EFAE9DF2EF02D04C00F2EF2E4F6
S1130C10DF2EF02D8D2D6F96CDBFDEBFDF91CF91EE
S1130C201F910F91FF90EF90DF90CF90BF90AF9006
S1130C309F908F907F90089549DE811108C0E091C4
S1130C40B73EF091B83E93A5983509F040C03EDE1A
S1130C50811107C0E091B73EF091B83E93A5983555
S1130C60B1F534DE811107C0E091B73EF091B83E92
S1130C7093A5983561F52ADE811107C0E091B73E4E
S1130C80F091B83E93A5983511F520DE811107C087
S1130C90E091B73EF091B83E93A59835C1F416DEC5
S1130CA0811107C0E091B73EF091B83E93A5983505
S1130CB071F40CDE811108C0E091B73EF091B83EAA
S1130CC093A5983521F402C08AE908958AE9089524
S1130CD00598049A0C9A159909C00C98E5E1F4E07A
S1130CE08081877F8083049881E00895E5E1F4E0C2
S1130CF0808188608083049880E008950598049A30
S1130D000C9A159919C00C9866E970E080E090E09F
S1130D1069DA159909C00C98E5E1F4E08081877FD0
S1130D208083049881E00895E5E1F4E0808188609F
S1130D308083049880E00895E5E1F4E08081886090
S1130D408083049880E00895EF92FF920F931F939D
S1130D50CF93DF936894EE24E3F800E018E00F2EBD
S1130D60FEEFFF2EF02DC3E06AEF70E080E090E02C
S1130D7039DACFDBF80185818068858378943DDD9D
S1130D80D82FC15031F0823469F4B8DF882361F37D
S1130D901DC0FF2039F0823429F4B0DFFA9488238F
S1130DA011F30BC0D63649F4CAD968EE73E080E07B
S1130DB090E018DAACD98ADA0CC0EA94EE2049F053
S1130DC0D23439F49BDF882351F203C0F110E5CF0C
S1130DD0F4CF8D2FDF91CF911F910F91FF90EF9062
S1130DE008950F931F93CF93DF936623C1F1EC0112
S1130DF08C01060F111D8FEF9FEF1BC0BC01660F06
S1130E00771FFD01E423F523EF2B11F06F5F7F4F74
S1130E1056954795992334F4CB01E1E28E27E0E11E
S1130E209E2701C0CB012150310941F70C171D0742
S1130E30C1F0A991B0E028E030E040E850E0DECF16
S1130E4099233CF4880F991F41E2842740E19427B9
S1130E5002C0880F991F2150310991F705C08FEF07
S1130E609FEF20E130E0ECCFDF91CF911F910F9104
S1130E700895F8942098E0E3F4E08081877F8083EC
S1130E804398E3E5F4E08081877F8083539B06C029
S1130E9089EF90E0539B02C00197E1F7309B02C0B9
S1130EA080E801C080E053997FC029EF30E0539976
S1130EB07BC021503109D9F777C0539B03C021501F
S1130EC03109D9F730998064539973C029EF30E020
S1130ED053996FC021503109D9F76BC0539B03C09C
S1130EE021503109D9F730998062539967C029EFAD
S1130EF030E0539963C021503109D9F75FC0539B47
S1130F0003C021503109D9F73099806153995BC0EE
S1130F1029EF30E0539957C021503109D9F753C014
S1130F20539B03C021503109D9F7309988605399F4
S1130F304FC029EF30E053994BC021503109D9F704
S1130F4047C0539B03C021503109D9F730998460BD
S1130F50539943C029EF30E053993FC021503109E0
S1130F60D9F73BC0539B03C021503109D9F73099BD
S1130F708260539937C029EF30E0539933C0215030
S1130F803109D9F72FC0539B03C021503109D9F738
S1130F903099816053992BC029EF30E0539927C0D1
S1130FA021503109D9F70895539B8CCF29EF30E0B4
S1130FB084CF539B98CF29EF30E090CF539BA4CF9D
S1130FC029EF30E09CCF539BB0CF29EF30E0A8CF7E
S1130FD0539BBCCF29EF30E0B4CF539BC8CF29EF4C
S1130FE030E0C0CF539BD4CF29EF30E0CCCF08956D
S1130FF0DF92EF92FF920F931F93CF93DF93CDB7BE
S1131000DEB72597CDBFDEBFF8942098E0E3F4E087
S11310108081877F80832DDF082F89832ADFD82E64
S11310208A8327DFE82E8B8324DF182F8C8321DF2C
S1131030F82E8D8363E0CE010196D3DE212F30E0BC
S1131040322F22272F0D311D8217930771F500933C
S1131050AE3E07700230A9F028F4002341F00130BD
S113106059F01EC0033091F00430A9F019C0EEE726
S1131070FEE3D186E2861CC0EEE7FEE3D386E48677
S113108017C0EEE7FEE3D586E68612C0EEE7FEE380
S1131090D786E08A0DC0EEE7FEE3D18AE28A08C073
S11310A0EEE7FEE3D38AE48A03C086E68093AE3E8D
S11310B08EE08093B13EE0E4F4E081858260818734
S11310C0789489812596CDBFDEBFDF91CF911F91A2
S11310D00F91FF90EF90DF900895209A4398882312
S11310E014F0289894C0289A92C029EF30E0539BBA
S11310F090C021503109D9F78CC0539903C02150B5
S11311003109D9F786FD02C0289888C0289A86C07C
S113111029EF30E0539B84C021503109D9F780C0B6
S1131120539903C021503109D9F785FD02C028988D
S11311307CC0289A7AC029EF30E0539B78C02150B4
S11311403109D9F774C0539903C021503109D9F733
S113115084FD02C0289870C0289A6EC029EF30E040
S1131160539B6CC021503109D9F768C0539903C00F
S113117021503109D9F783FD02C0289864C0289A08
S113118062C029EF30E0539B60C021503109D9F788
S11311905CC0539903C021503109D9F782FD02C0C4
S11311A0289858C0289A56C029EF30E0539B54C061
S11311B021503109D9F750C0539903C02150310946
S11311C0D9F781FD02C028984CC0289A4AC029EF5B
S11311D030E0539B48C021503109D9F744C053999A
S11311E003C021503109D9F780FD02C0289840C0BE
S11311F0289A3EC089EF90E0539B3CC00197E1F7E9
S113120039C0539902C00197E1F720980895539982
S11312106CCF539977CF29EF30E06FCF539978CFC4
S1131220539983CF29EF30E07BCF539984CF5399DF
S11312308FCF29EF30E087CF539990CF53999BCF2D
S113124029EF30E093CF53999CCF5399A7CF29EF3F
S113125030E09FCF5399A8CF5399B3CF29EF30E013
S1131260ABCF5399B4CF5399BFCF29EF30E0B7CF69
S11312705399C0CF5399C9CF89EF90E0C2CF0F9350
S11312801F93CF93DF9300D964E085EA9AE90DD8E0
S11312906CE271E080E090E0A5D783E0BAD737D75D
S11312A015D81092AC3E1092AD3E4EDD8091B43E06
S11312B0813451F023DD882309F47EC084E08093D7
S11312C0B13E3DD781E083C061DAB6DC38D765E151
S11312D085E99EE386DDE5E9FEE3958B868B489AF6
S11312E0C0E3D5E7289861E070E080E090E0C7D7DC
S11312F0539B64C02197B1F761C08FE295E7539B7C
S11313005FC00197E1F75CC08FE295E753995AC03B
S11313100197E1F757C08991E0DE0C171D07D9F753
S11313204898B2D8C5E9DEE3888162E090E066D8E7
S1131330898162E090E062D88A8162E090E05ED8C0
S11313408B8162E090E05AD88C8162E090E056D8BC
S11313508D8162E090E052D88E8162E090E04ED8B8
S11313608F8162E090E04AD8AFD8888562E090E04F
S113137045D8898562E090E041D88A8562E090E0B2
S11313803DD88B8562E090E039D88C8562E090E0AE
S113139035D88D8562E090E031D88E8562E090E0AA
S11313A02DD88F8562E090E029D860ED77E080E069
S11313B090E018D780E00BC081E009C053999DCF1D
S11313C0539BA2CFC5E9DEE30CEA1EE3A4CFDF9171
S11313D0CF911F910F9108951092003E6ED6F8940C
S11313E062E070E088E790E0FAD21092B13EEEE756
S11313F0FEE385E99EE311928E179F07E1F7429879
S1131400E2E5F4E08081886080834198E1E5F4E0DE
S11314108081886080838081887F83608083269830
S1131420E6E3F4E08081877F808305984898409ABA
S113143048984398E3E5F4E08081877F80837FD6F2
S1131440F89422D869E08AEA9AE92FD7CEE165E0D8
S113145070E080E090E0C6D681E0DBD6C150B9F7F9
S1131460E1E1F4E08081887F8083E2E1F4E080813F
S1131470887F8083E3E1F4E08081887F8083E4E1F6
S1131480F4E08081887F8083E5E1F4E08081887FD7
S11314908083E6E1F4E08081887F8083E7E1F4E003
S11314A08081887F8083E1E3F4E08081887F80838A
S11314B0E2E3F4E08081887F8083E3E3F4E08081E9
S11314C0887F8083E4E3F4E08081887F8083E5E3A0
S11314D0F4E08081887F8083E6E3F4E08081887F84
S11314E08083E7E3F4E08081887F80838FEF83B992
S11314F087B98FE38BB9E1E5F4E08081887F83606D
S11315008083EAE4FAE080818E7C8083EBE4FAE075
S1131510808181638083E0E0F8E0168278948CE631
S113152095E0808791871092B13EAED769E084EB55
S11315309AE9BBD66CE271E080E090E053D6CEE746
S1131540DEE30DE06894CC24C3F80F2EFCE0BF2E3C
S1131550F02D11E00F2EFBE06F2EF02D0F2EFAE090
S11315607F2EF02D0F2EF9E08F2EF02D0F2EF7E0A9
S1131570EF2EF02D0F2EF6E09F2EF02D0F2EF5E01E
S1131580AF2EF02D6894FF24F2F80F2EF3E0DF2E37
S1131590F02D7AD78091B13E62E090E02FD7AFD79B
S11315A08091AE3E62E090E029D7A9D7898562E0B8
S11315B090E024D78A8562E090E020D7A0D78B857D
S11315C062E090E01BD78C8562E090E017D77CD76F
S11315D08D8562E090E012D78E8562E090E00ED7B0
S11315E08ED78F8562E090E009D7888962E090E029
S11315F005D785D7898962E090E000D78A8962E0BF
S113160090E0FCD67CD78B8962E090E0F7D68C8999
S113161062E090E0F3D6E091B13E8E2F90E08F30FF
S1131620910508F0B2C0FC01E35CFF4F099466DB4E
S1131630882329F01093B13E812F06D6A8C0F092DA
S1131640B13EA5C05BDB882331F082E08093B13EDC
S1131650812FFAD59CC0F092B13E99C04FDB88230C
S113166029F0D092B13E8D2DEFD591C0F092B13ECC
S11316708EC02EDB81118BC0F092B13E88C03EDB60
S1131680811105C0812FC5D5A092B13E80C01093B1
S1131690B13E7DC033DB811105C0812FBAD5909254
S11316A0B13E75C01093B13E72C0E092B13E6FC0BE
S11316B025DB882329F01093B13E812FC5D567C05F
S11316C0DEDD882319F00093B13E61C08092B13E03
S11316D05EC014DB882329F01093B13E812FB4D56A
S11316E056C0CDDD0093B13E52C008DB882329F0FB
S11316F01093B13E812FA8D54AC0C1DD811103C02A
S11317000093B13E44C07092B13E41C0F7DA8823E1
S113171029F01093B13E812F97D539C0B0DD8111E6
S113172003C00093B13E33C06092B13E30C0E6DAEC
S1131730882329F01093B13E812F86D528C09FDDE0
S1131740811103C00093B13E22C0B092B13E1FC0CC
S1131750D5DA882329F01093B13E812F75D517C0AF
S11317608EDD811103C00093B13E11C0B092B13E31
S11317700EC08091AE3E84FF0AC01092AE3EC0926D
S1131780B13E05C00093B13E02C00093B13E7894CF
S1131790000068EE73E080E090E024D5FACE1F925A
S11317A00F920FB60F9211240F931F932F933F9311
S11317B04F935F936F937F938F939F93AF93BF9355
S11317C0CF93DF93EF93FF93F894C1E5D4E088813E
S11317D0887F888300E414E0F8018185886081872C
S11317E007DC8AE016D51092023E80E88093043E1E
S11317F01092013E1092053E1092003EF801818540
S1131800886081878881887F836088837894FF914A
S1131810EF91DF91CF91BF91AF919F918F917F9184
S11318206F915F914F913F912F911F910F910F9065
S11318300FBE0F901F9018951F920F920FB60F9224
S113184011242F938F939F93EF93FF938091B23E34
S11318509091B33E8C579E4330F08CE79EE3809387
S1131860B23E9093B33EE091B23EF091B33E80918C
S1131870000880838091B23E9091B33E019680939C
S1131880B23E9093B33EFF91EF919F918F912F9130
S11318900F900FBE0F901F9018951F920F920FB6C6
S11318A00F9211248F93EF93FF93E0E2F4E081858C
S11318B080648187FF91EF918F910F900FBE0F90FD
S11318C01F9018951F920F920FB60F9211248F93A9
S11318D08091043E86958093043E8091013E8F5F03
S11318E08093013E883060F08091053E8F5F809345
S11318F0053E1092033E80E88093043E1092013E20
S11319008091023E8F5F803418F48093023E09C0B8
S11319101092023E80E88093043E1092013E1092A1
S1131920053E81E0809343018F910F900FBE0F908D
S11319301F90189580E0089580E0089580E0089550
S1131940E0E1F4E0808188608193E83184E0F80785
S1131950C9F7E0E3F4E0808188608193E83384E0B0
S1131960F807C9F7E0E5F4E0808188608193E83501
S113197084E0F807C9F708952398E3E3F4E080814D
S1131980877F8083229A2A981ED00895D9DFD4DFD6
S113199005D0F2DFD3DF15D0CDDF0895E0E4F1E028
S11319A081818111FDCFE0E4F1E089EA808388EE52
S11319B093E08287938781E08283108A128A80E091
S11319C0089580E00895E0E0F8E08CE695E08087F3
S11319D0918780E8858380EC868380E00895DC012C
S11119E028ED209334006C930895F894FFCF03
S11319EE24505542582C34302C474C4C2C312C302E
S11319FE2C312C312C312C302A35430D0A245055E0
S1131A0E42582C34302C4753412C312C302C312C51
S1131A1E312C312C302A34450D0A24505542582C81
S1131A2E34302C4753562C312C302C312C312C3154
S1131A3E2C302A35390D0A24505542582C34302C6A
S1131A4E4747412C312C302C312C312C312C302A5F
S1131A5E35410D0A24505542582C34302C565447D7
S1131A6E2C312C302C312C312C312C302A35450D87
S1131A7E0AFE46FE48FE4CFE5124474E474E512C5C
S1131A8E5A44412A32320D0A24474E474E512C47AE
S1131A9E4E532A32370D0A47505320005374617245
S1131AAE7475702041005374617274757020430014
S9030000FC
