:100000000C944E000C9460000C9460000C94600002
:100010000C94F2070C946F070C9460000C940F087A
:100020000C9460000C9460000C9460000C946000D0
:100030000C9460000C945D070C9460000C946000BC
:100040000C9460000C9460000C9460000C946000B0
:100050000C9460000C9460000C9460000C946000A0
:100060000C9460000C9460000C9460000C94B80731
:100070000C9460000C9460000C9460005F016101BE
:1000800063016501670169016B016D016F01710118
:1000900073017501770179017B017D0111241FBE78
:1000A000CFEFCDBFDFE3DEBF28E3A0E0B8E301C0C0
:1000B0001D92A33FB207E1F70E9494060C945509E4
:1000C0000C9400000E941B090895AB01BC0141156E
:1000D00051056105710561F40895000001968A39A2
:1000E00021E09207D1F7415051096109710919F0D6
:1000F00080E090E0F2CF0895CF93DF9385E0809386
:1001000092018EE08093840183E08093400A84E032
:100110008093410AC4E4DAE080E18883A895259AB7
:10012000219A029A44982D9A299A0A980000000070
:10013000000000002D9800000000000000000A9A56
:1001400061E070E080E090E00E946500299881E025
:100150008093450A81E188830000000000000000D0
:10016000299A80914C0A90914D0AA8958091460A4F
:10017000811109C088E293E2E6E4FAE020812111CE
:1001800002C00197D9F780914C0A90914D0AE5E49D
:10019000FAE0108220E12093440A10822D9ADF9128
:1001A000CF9108951F93CF93DF9385E080939201C1
:1001B0008EE08093840111E01093400A84E08093E4
:1001C000410AC4E4DAE080E18883A895259A219A5F
:1001D000029A44982D9A29980A9A0000000000007B
:1001E00000002D9800000000000000000A9861E067
:1001F00070E080E090E00E94650029981093450A25
:1002000081E188830000000000000000299A299AFB
:1002100080914C0A90914D0AA8958091460A8111CF
:1002200009C088E293E2E6E4FAE02081211102C0ED
:100230000197D9F780914C0A90914D0A2D9AE5E4E7
:10024000FAE0108220E12093440A1082DF91CF91DE
:100250001F910895CF93C82F429A882381F04A981E
:100260006AE070E080E090E00E9465004A9A62E3F4
:1002700070E080E090E00E946500C15081F74298F4
:10028000E2E5F4E0808188608083CF910895662361
:1002900071F0DC019C01260F311DE0E0F8E0948153
:1002A00095FFFDCF9D919283A217B307C1F70895E3
:1002B0008F7090E0FC01E25CFF4F0C94490980E3F1
:1002C000089581E3089582E3089583E3089584E324
:1002D000089585E3089586E3089587E3089588E304
:1002E000089589E3089581E4089582E4089583E4FC
:1002F000089584E4089585E4089586E408951F939D
:10030000CF93DF93EC010E945801182FCE019595F1
:1003100087959595879595958795959587950E944D
:10032000580190E0982F8827810F911DDF91CF9180
:100330001F910895DF92EF92FF920F931F93CF9337
:10034000DF9300D000D0CDB7DEB77C01162F8F2D04
:1003500090E00E947F01082FD92EC70199270E94A3
:100360007F01D9820A839B838C83123051F0133032
:1003700071F0113091F461E0CE0104960E944701C2
:1003800011C062E0CE0103960E9447010BC063E0FA
:10039000CE0102960E94470105C064E0CE0101969D
:1003A0000E9447012496CDBFDEBFDF91CF911F9100
:1003B0000F91FF90EF90DF90089561E089EB92E953
:1003C0000E9447016AE070E080E090E00E946500D2
:1003D00008950F931F93CF93DF936623C1F1EC0130
:1003E0008C01060F111D8FEF9FEF1BC0BC01660F24
:1003F000771FFD01E423F523EF2B11F06F5F7F4F93
:1004000056954795992334F4CB01E1E28E27E0E13C
:100410009E2701C0CB012150310941F70C171D0760
:10042000C1F0A991B0E028E030E040E850E0DECF34
:1004300099233CF4880F991F41E2842740E19427D7
:1004400002C0880F991F2150310991F705C08FEF25
:100450009FEF20E130E0ECCFDF91CF911F910F9122
:100460000895F8942098E0E3F4E08081877F80830A
:100470004398E3E5F4E08081877F8083539B06C047
:1004800087E893E1539B02C00197E1F7309B02C0DC
:1004900080E801C080E0539968C099EF539965C026
:1004A0009150E1F762C0539B02C09150E1F730993F
:1004B000806453995EC099EF53995BC09150E1F706
:1004C00058C0539B02C09150E1F730998062539914
:1004D00054C099EF539951C09150E1F74EC0539BCE
:1004E00002C09150E1F73099806153994AC099EF69
:1004F000539947C09150E1F744C0539B02C09150BB
:10050000E1F730998860539940C099EF53993DC005
:100510009150E1F73AC0539B02C09150E1F73099F6
:100520008460539936C099EF539933C09150E1F7E5
:1005300030C0539B02C09150E1F7309982605399CB
:100540002CC099EF539929C09150E1F726C0539BD5
:1005500002C09150E1F730998160539922C099EF20
:1005600053991FC09150E1F70895539BA0CF99EF85
:100570009ACF539BAACF99EFA4CF539BB4CF99EFB7
:10058000AECF539BBECF99EFB8CF539BC8CF99EF57
:10059000C2CF539BD2CF99EFCCCF539BDCCF99EFF7
:1005A000D6CF0895209A882314F0289893C0289ACB
:1005B00091C029EF30E0539B8FC021503109D9F70A
:1005C0008BC0539903C021503109D9F786FD02C071
:1005D000289887C0289A85C029EF30E0539B83C0B4
:1005E00021503109D9F77FC0539903C021503109F7
:1005F000D9F785FD02C028987BC0289A79C029EFD9
:1006000030E0539B77C021503109D9F773C053991B
:1006100003C021503109D9F784FD02C028986FC06A
:10062000289A6DC029EF30E0539B6BC021503109EF
:10063000D9F767C0539903C021503109D9F783FD19
:1006400002C0289863C0289A61C029EF30E0539B0C
:100650005FC021503109D9F75BC0539903C02150C5
:100660003109D9F782FD02C0289857C0289A55C091
:1006700029EF30E0539B53C021503109D9F74FC0C7
:10068000539903C021503109D9F781FD02C0289840
:100690004BC0289A49C029EF30E0539B47C02150F6
:1006A0003109D9F743C0539903C021503109D9F713
:1006B00080FD02C028983FC0289A3DC089EF90E095
:1006C000539B3BC00197E1F738C053993BC001975A
:1006D000E1F7089553996DCF539978CF29EF30E022
:1006E00070CF539979CF539984CF29EF30E07CCFE5
:1006F000539985CF539990CF29EF30E088CF539904
:1007000091CF53999CCF29EF30E094CF53999DCF4F
:100710005399A8CF29EF30E0A0CF5399A9CF53998F
:10072000B4CF29EF30E0ACCF5399B5CF5399C0CFB8
:1007300029EF30E0B8CF5399C1CF539903C089EF67
:1007400090E0C3CF0895CF92DF92EF92FF920F9384
:100750001F93CF93DF93CDB7DEB72B97CDBFDEBF0F
:10076000F8942098E0E3F4E08081877F80830E9402
:100770003102E82E89830E943102082F8A830E9469
:100780003102182F8B830E943102F82E8C8362E095
:10079000CE0101960E94E901212F30E0322F22275D
:1007A0002F0D311D8217930709F072C1E092E638D0
:1007B0000F2EFFEBEF2EF8E3FF2EF02D8091043883
:1007C000D70119968C931997E02FF0E0E552F74C7A
:1007D000808158968C93209A43986AE1C7010E94C1
:1007E000E901F701928F838F8081882314F0289884
:1007F0007DC1289A7BC18FE295E7539B79C1019710
:10080000E1F776C1D8018D918D010E94D202E016E8
:10081000F106C1F72098309B09C01AE502C0309B51
:1008200006C0000000001150D1F701C01AE50E9477
:1008300010090E9410098AE08A878DE08B8762E0A8
:10084000CE010A960E9447010E94DD010E94DD014F
:100850000E94DD010F2EFFEBEF2EF8E3FF2EF02DAF
:10086000F701818162E090E00E949A010E94DD011F
:10087000D70112968C9162E090E00E949A010E944A
:10088000DD01F701838162E090E00E949A010E94FD
:10089000DD01D70114968C9162E090E00E949A01EC
:1008A0000E94DD01F701858162E090E00E949A01DB
:1008B0000E94DD01D70116968C9162E090E00E94C3
:1008C0009A010E94DD01F701878162E090E00E94B9
:1008D0009A010E94DD01D70118968C9162E090E0A8
:1008E0000E949A010E94DD010E94DD010E94DD014B
:1008F000F701818562E090E00E949A010E94DD018B
:100900000E94DD010E94DD01D7011A968C9162E000
:1009100090E00E949A010E94DD01F701838562E068
:1009200090E00E949A010E94DD01D7011C968C91F3
:1009300062E090E00E949A010E94DD01F701858546
:1009400062E090E00E949A010E94DD01D7011E96AC
:100950008C9162E090E00E949A010E94DD01F70113
:10096000878562E090E00E949A010E94DD01D70134
:1009700050968C9162E090E00E949A010E94DD0105
:10098000F701818962E090E00E949A010E94DD01F6
:10099000D70152968C9162E090E00E949A010E94E9
:1009A000DD01F701838962E090E00E949A010E94D4
:1009B000DD01D70154968C9162E090E00E949A018B
:1009C0000E94DD01F701858962E090E00E949A01B2
:1009D0000E94DD010E94DD010E94DD01D7015696D3
:1009E0008C9162E090E00E949A010E94DD010E94D9
:1009F000DD010E94DD01F701808162E090E00E944C
:100A00009A01D70157968C9162E090E00E949A017A
:100A10000E94DD010E94DD010E94DD01F701808D51
:100A200062E090E00E949A0162E0CE010A960E9484
:100A3000470162E0CE010A960E944701A89562E351
:100A400070E080E090E00E946500112309F446C048
:100A50008AE08093053881E080930338109207384C
:100A60008093013810920438E9ECF8E3D6011D9226
:100A70006D01EA17FB07D1F725ED38E38FEF81937E
:100A80002E173F07E1F7EFEBF8E3168A178A26C027
:100A900088E08093E6388AE08A878DE08B870E9421
:100AA00010090E94100962E0CE010A960E944701D7
:100AB00063E08EEA92E90E94470162E0CE010A9665
:100AC0000E94470168E082EB92E90E944701A895E5
:100AD00062E370E080E090E00E946500E0E4F4E012
:100AE0008185826081877894898110C0539983CEF3
:100AF0000F2EFFEBCF2EF8E3DF2EF02D0F2EFBEDA8
:100B0000EF2EF8E3FF2EF02D86017CCE2B96CDBF85
:100B1000DEBFDF91CF911F910F91FF90EF90DF909B
:100B2000CF90089510920608239A229A2A982B981B
:100B30000895459A4D98E4E1F4E08081877F8083B1
:100B4000049A0C980E9492050895CF93DF93009821
:100B5000E0E1F4E09081986090830198E1E1F4E0B5
:100B60009081986090830398E3E1F4E0908198602D
:100B70009083E4E1F4E09081977F9083049A0C984D
:100B80000598E5E1F4E09081986090830698E6E1AD
:100B9000F4E09081986090830798E7E1F4E0908119
:100BA000986090832098E0E3F4E09081977F9083B1
:100BB0002198E1E3F4E09081986090832298E2E349
:100BC000F4E09081977F90832398E3E3F4E09081B1
:100BD000977F90832498E4E3F4E090819860908379
:100BE0002598E5E3F4E09081986090832698E6E309
:100BF000F4E09081977F90832798E7E3F4E0908179
:100C0000986090834098E0E5F4E09081986090834C
:100C10004198E1E5F4E0908198609083882329F081
:100C20008081887F8560808305C0E1E5F4E0808174
:100C3000887F80834298E2E5F4E080818860808349
:100C40004398E3E5F4E08081877F80834498E4E57E
:100C5000F4E0808188608083C5E5D4E08881877F67
:100C60008883459A4D981092A100109200060E9428
:100C70009905888188608883DF91CF91089580E00D
:100C800090E0000001968C339105D9F708950F93F9
:100C90001F93CF93DF93C7E0D0E0082F10E02F9889
:100CA000000000002F9A0000000098010C2E02C0E6
:100CB000359527950A94E2F720FD02C02F9801C0D0
:100CC0002F9A0E943F06219750F7DF91CF911F91F5
:100CD0000F9108951F93CF93DF93162FD42FC22F18
:100CE0002F98279A2F98000000002F9A00000000EC
:100CF00080FD02C02F9801C02F9A0E943F06812FCD
:100D00000E9447068D2F0E9447068C2F0E9447069F
:100D1000DF91CF911F91089500000895269A2E9893
:100D20000E948C0626980895109204380E94620052
:100D300088ED84BFE0E0F1E0118284BF1082F89476
:100D400062E070E088E790E00E944F091092EC3872
:100D5000AFEBB8E3E9ECF8E31D92AE17BF07E1F79C
:100D600025ED38E38FEF8193E217F307E1F7EFEB1F
:100D7000F8E3168A178A108E118E128E138EEBED01
:100D8000F8E325EE38E380EF81938F5F2E173F075E
:100D9000D9F781E00E94A5050000A8950E941009DE
:100DA0000E9410098AE00E942A0165E188EC92E91C
:100DB0000E94470181E00E94A50568E873E180E098
:100DC00090E00E946500E0E5F0E083E080830000B1
:100DD00080818160808388950E9410090E9410099B
:100DE000F8940E9410096DE08EED92E90E9447018F
:100DF000A89568EE73E080E090E00E946500109294
:100E0000EF3880EC8093EB38279A21E341E0609142
:100E1000EB388091EF380E946A0668EE73E080E05C
:100E200090E00E94650021E341E06091EB38809101
:100E3000EF380E946A068FEF83B987B9E6E3F4E0E2
:100E40008081887F82608083EAE4FAE080818E7C02
:100E50008083EBE4FAE0808181638083C12CDD2410
:100E6000D39401E514E0C6E3D4E00F2EF0E5EF2EB5
:100E7000F12CF02D0F2EF3E0BF2EF02DA895F601EA
:100E800010820E9499050E948E066FE070E080E05B
:100E900090E00E94650081E00E94A5057894F80129
:100EA0008081887F856080838881887F8260888355
:100EB000F701B08200008895E1CF1F920F920FB624
:100EC0000F9211248F939F9380914C0A90914D0A19
:100ED0009F918F910F900FBE0F901F9018951F92AA
:100EE0000F920FB60F9211242F933F934F935F935E
:100EF0006F937F938F939F93AF93BF93EF93FF93E2
:100F0000F894E1E5F4E08081887F8083E0E4F4E018
:100F10008185826081878091EC38883011F00E9451
:100F2000A303E0E4F4E08185826081878091EC385E
:100F3000873031F481E00E94A50581E00E94A5057B
:100F4000E1E5F4E08081887F856080837894FF917B
:100F5000EF91BF91AF919F918F917F916F915F9131
:100F60004F913F912F910F900FBE0F901F901895AA
:100F70001F920F920FB60F9211248F939F93EF93AE
:100F8000FF93E091ED38F091EE3888E3EF3BF807FE
:100F9000D8F08EEB98E38093ED389093EE38FC0117
:100FA000809100088083809100088A3019F481E0E4
:100FB0008093E5388091ED389091EE3801968093DA
:100FC000ED389093EE3805C088E3E930F80758F320
:100FD000E7CFFF91EF919F918F910F900FBE0F90F0
:100FE0001F9018951F920F920FB60F9211248F9396
:100FF000EF93FF9381E080930838E0E2F4E081858D
:1010000080648187E6E3F4E08081887F8083FF91BC
:10101000EF918F910F900FBE0F901F9018951F9218
:101020000F920FB60F9211242F933F934F935F931C
:101030006F937F938F939F93AF93BF93EF93FF93A0
:1010400080910738873309F50E947C009595879534
:10105000811524E0920714F08FEF93E0EFEBF8E3B3
:1010600047899C01220F232F221F330B922F96704A
:101070002081922B9083842B878B80910138882349
:1010800021F00E94D2008093D5380E9410090E945E
:10109000100980910838882331F061E08CEE92E9E4
:1010A0000E94470105C061E08EEE92E90E9447016F
:1010B0006EE170E080E090E00E946500809107386A
:1010C0008C3328F0909100389150909300388F5FC6
:1010D000809307388C33A8F080910038853088F4ED
:1010E0008AE38093003881E08093013810920738BA
:1010F0009AE0909305388093033880E88093023813
:1011000024C080910238869519F0809302380EC071
:1011100080E880930238809103388F5F893018F41B
:101120008093033803C081E08093033880910638B0
:101130008F5F853018F48093063807C01092063808
:10114000809105388F5F8093053880910838882317
:1011500001F110920138809104388F5F8093043838
:10116000E0910338F0E0E154F74C9081809102382F
:10117000892B80830E94D2002091053830E0F9014C
:10118000E154F74C9081891720F4F901E154F74CB0
:10119000808310920838E6E3F4E08081887F8260E3
:1011A000808381E080935301FF91EF91BF91AF91D4
:1011B0009F918F917F916F915F914F913F912F916F
:1011C0000F900FBE0F901F90189580E0089542E099
:1011D00068ED88E790E00E942A0940E068ED80E72A
:1011E00090E00E942A0940E068ED80E690E00E94CD
:1011F0002A0980E0089580E00895E0E1F4E080812C
:1012000088608193E83184E0F807C9F7E0E3F4E00F
:10121000808188608193E83384E0F807C9F70895F6
:101220002398E3E3F4E08081877F8083229A2A98E1
:101230000E943D0908950E94FD080E94E7080E944F
:101240002E090E9410090E94FB080E943B090E947F
:10125000E5080895FC0164BF40830895E0E4F1E0EF
:1012600081818111FDCFE0E4F1E081E7808B81E0B5
:10127000828B80E0089580E00895E0E0F8E08CE65D
:1012800095E08087918780E8858380EC868380E085
:101290000895EE0FFF1F0590F491E02D0994DC01F5
:0E12A00028ED209334006C930895F894FFCF4E
:1012AE0042414400202020202020202000470047DB
:1012BE00505320474E53200D0A000D0A4B494C4CFB
:1012CE002043555252454E5420544553540D0A0056
:1012DE000D0A424F4F542054494E590D0A00310009
:0212EE003000CE
:00000001FF
