S01500004644545F54494E595F323032312E737265636A
S11300000C9486000C9498000C9498000C940E0E9A
S11300100C94DF0D0C945B0D0C9498000C94540E0E
S11300200C9498000C9498000C9498000C949800EC
S11300300C9498000C94490D0C9498000C9498001E
S11300400C9498000C9498000C9498000C949800CC
S11300500C9498000C9498000C9498000C949800BC
S11300600C9498000C9498000C9498000C94A50D92
S11300700C9498000C9498000C949800D100D4002F
S1130080D700DA00DD00E000E300E600E9000F013C
S1130090F800FA00FC00FE0000010201040107015F
S11300A00A011C011F012201250128012B012E0137
S11300B03101340149014901490149014901490119
S11300C0490137013A013D014001430146018101E3
S11300D05501570159015B015E016101640167012A
S11300E06A017C017C017C017C017C017C017C0136
S11300F07F016D017001730176017901E00CE40C5C
S1130100EF0CF70C020D0D0D180D230D11241FBE5D
S1130110CFEFCDBFDFE3DEBF29E3A0E0B8E301C04A
S11301201D92A530B207E1F70E94490C0C94610FAF
S11301300C9400000E94270F089529E038E32093CF
S1130140033930930439A091FF38B09100391597E1
S1130150E0910339F09104399F012F5F3F4F2093C1
S11301600339309304399181981306C09281961310
S113017003C09381941731F02A173B0748F38AE9A7
S113018092E0089580E090E00895482F862F90E053
S1130190FC01F197E930F105F8F4E25CFF4F0C94AF
S11301A0550F81E090E01AC082E090E017C083E030
S11301B090E014C084E090E011C085E090E00EC0AF
S11301C086E090E00BC087E090E008C088E090E013
S11301D005C089E090E002C080E090E050E0FA01C0
S11301E0F097EA30F105C8F4E95BFF4F0C94550F22
S11301F00A960895449608954E960895889608950B
S1130200C2960895CC9608958A5B9F4F0895805BAB
S11302109F4F0895865A9F4F089580E090E0089577
S1130220482F862F90E0FC01F197E631F10588F51F
S1130230EF5AFF4F0C94550F81E090E02CC082E000
S113024090E029C083E090E026C084E090E023C0E1
S113025085E090E020C086E090E01DC087E090E05B
S11302601AC088E090E017C089E090E014C08AE0EA
S113027090E011C08BE090E00EC08CE090E00BC0E9
S11302808DE090E008C08EE090E005C08FE090E043
S113029002C080E090E050E0FA01F097E731F10508
S11302A058F5E959FF4F0C94550F409608958096E0
S11302B00895C0960895805C9F4F0895805B9F4F7A
S11302C00895805A9F4F089580599F4F08958058EC
S11302D09F4F089580579F4F089580EB90E00895B5
S11302E080EC90E0089580ED90E0089580EE90E039
S11302F0089580EF90E0089580E090E0089580EA0A
S113030090E00895AB01BC014115510561057105EB
S113031061F40895000001968A3921E09207D1F72B
S1130320415051096109710919F080E090E0F2CF60
S11303300895CF93C82F219A882381F0299862E3E6
S113034070E080E090E00E948201299A60E570E00C
S113035080E090E00E948201C15081F72198E1E39E
S1130360F4E0808188608083CF910895AB01BC0163
S1130370411551056105710559F408950000019670
S11303808E329105D9F7415051096109710919F06B
S113039080E090E0F3CF0895662371F0DC019C01C6
S11303A0260F311DE0E0F8E0948195FFFDCF9D918B
S11303B09283A217B307C1F70895CF93DF93CDB704
S11303C0DEB7C159D109CDBFDEBF68EE73E080E06E
S11303D090E00E9482018DE1E6ECFEE9DE011196D7
S11303E001900D928A95E1F76DE1CE0101960E948C
S11303F0CC018DE1E3EEFEE9DE015E9601900D9203
S11304008A95E1F76DE1CE014E960E94CC018DE113
S1130410E0E0FFE9DE01DB9601900D928A95E1F7B9
S11304206DE1CE01CB960E94CC018DE1EDE1FFE9B7
S1130430DE01A85ABF4F01900D928A95E1F76DE154
S1130440CE01885A9F4F0E94CC018DE1EAE3FFE977
S1130450DE01AB58BF4F01900D928A95E1F76DE133
S1130460CE018B589F4F0E94CC01CF56DF4FCDBF9A
S1130470DEBFDF91CF9108958AE098E38093FF383F
S11304809093003980E090E028E5E091FF38F09106
S11304900039E80FF91F20830196863B9105A9F7DF
S11304A08AE098E38093FF38909300390895AF92DF
S11304B0BF92CF92DF92EF92FF920F931F93CF934D
S11304C0DF93CDB7DEB76F97CDBFDEBFB82E8FE019
S11304D0E7E5FFE9DE01119601900D928A95E1F7B7
S11304E004E0A12CC12C6894DD24D3F80F2EF1EC88
S11304F0EF2EF8E3FF2EF02DA8956FE0CE010196C4
S11305000E94CC010E943C02F601858180688583AB
S11305101092F73878948091F73881110AC064E614
S113052070E080E090E00E9482011FE0115009F029
S113053011C18091F5389091F63801968093F53881
S11305409093F638813DF2E09F0724F02091FE3825
S1130550213019F48D3A934034F08AE980930239BA
S11305608AE992E0FEC0F60185818F77858341E4B4
S113057064E48AE50E949D00892B09F067C02091FC
S1130580033930910439D9011297F8E3A03CBF072D
S113059009F078F4FD0180818A3269F0319610E027
S11305A0DF011827EE16FF0639F081918A32C1F770
S11305B003C010E001C010E012966C9112971196DE
S11305C08C910E941001212F30E028173907F1F592
S11305D034C0CF010196809303399093043981810B
S11305E08C3261F52F5F223049F522812C3271F172
S11305F03681383559F18A2D90E0A4E1B0E0AC0F92
S1130600BD1FA80FB91F3C93A0E1B0E0AC0FBD1F04
S1130610A80FB91F35813C93A8E1B0E0AC0FBD1F12
S1130620A80FB91F33813C93ECE1F0E0EC0FFD1F00
S1130630E80FF91F2083A39409C020E0E091033957
S1130640F091043988E3E03CF80718F2BB2019F074
S113065082E00E949901015009F04ECF1F8981E088
S11306609E89911380E09D89191301C08F5F9C8935
S1130670191301C08F5F833008F45DC00B8981E0DA
S11306809A89901380E09989091301C08F5F988932
S1130690091301C08F5F833008F450C0FB8C81E0E4
S11306A09A8D9F1180E0998DF91201C08F5F988D0A
S11306B0F91201C08F5F833008F443C0EF8C81E0EE
S11306C09E8D9E1180E09D8DE91201C08F5F9C8DEF
S11306D0E91201C08F5F8330B8F12091EB38ECED63
S11306E0F8E385EF98E31192E817F907E1F720930F
S11306F0EB38ECE2FE1659F1E0910339F09104393C
S1130700628581850E94C5000F2EFCEDCF2EF8E393
S1130710DF2EF02DF6018187612F802F0E94C50006
S1130720F60182876F2D8E2D0E94C500F601838706
S113073080E090E016C08AE992E013C08AE992E072
S113074010C08AE992E00DC08AE992E00AC08AE901
S113075092E007C064E670E080E090E00E948201CD
S1130760E5CE6F96CDBFDEBFDF91CF911F910F9184
S1130770FF90EF90DF90CF90BF90AF900895CF930C
S1130780C82F0E945702009739F4E0910339F09181
S113079004392285283551F58C2F0E945702009781
S11307A039F4E0910339F091043922852835F1F4C4
S11307B08C2F0E945702009739F4E0910339F0918D
S11307C004392285283591F48C2F0E945702009712
S11307D041F4E0910339F09104392285283531F44C
S11307E003C08AE992E002C08AE992E0CF910895B9
S11307F0BF92CF92DF92EF92FF920F931F93CF930A
S1130800DF93D82E109202396894BB24B2F8C12C1D
S1130810E12C6894FF24F3F801EC18E3A8950E94F6
S11308203C02E7018D8180688D831092F7387894BB
S11308308091F73881110AC064E670E080E090E0AE
S11308400E948201CFE0C15009F088C08091F53840
S11308509091F63801968093F5389093F638813D5F
S1130860D2E09D0724F02091FE38213019F48D3A0E
S1130870934034F08AE9809302398AE992E075C0A2
S1130880E7018D818F778D8343E46DE482E50E94D7
S11308909D00892B09F044C0E0910339F09104399B
S11308A0DF011297D8E3A03CBD0709F078F4ED010D
S11308B088818A3269F03197C0E0DF01C827E017E8
S11308C0F10739F081918A32C1F703C0C0E001C059
S11308D0C0E012966C91129711968C910E941001AF
S11308E02C2F30E028173907D9F411C0CF01019615
S11308F0809303399093043981818C3249F42F5FBA
S1130900223031F48281813459F4C39409C020E047
S1130910E0910339F0910439D8E3E03CFD0730F36A
S1130920DD2019F081E00E949901BA94B11076CFCC
S1130930E1E0EC1568F4E0910339F0910439818128
S1130940813431F489E28093023980E090E00DC073
S11309508AE9809302398AE992E007C064E670E08C
S113096080E090E00E9482016ECFDF91CF911F91D1
S11309700F91FF90EF90DF90CF90BF9008957F92FA
S11309808F929F92AF92BF92CF92DF92EF92FF929B
S11309900F931F93CF93DF93CDB7DEB7AF97CDBF40
S11309A0DEBFA82E8FE0E6E6FFE9DE011196019096
S11309B00D928A95E1F721E02F8F92E09A8F83E0E0
S11309C0898F2F8B9A8B898B2FA39AA389A36894E1
S11309D0BB24B3F8812CC12C6894DD24D3F80F2EEA
S11309E0F1ECEF2EF8E3FF2EF02DA8956FE0CE0189
S11309F001960E94CC010E943C02D60115968C916E
S1130A001597806815968C931092F7387894809196
S1130A10F73881110AC064E670E080E090E00E943B
S1130A2082011FE0115009F0ECC10091F5381091DA
S1130A30F638013DB2E01B0724F08091FE38813086
S1130A4021F40D3AE3E01E0734F08AE98093023979
S1130A508AE992E0DDC10F5F1F4F912E0093F538B4
S1130A601093F638D60115968C9115978F771596B5
S1130A708C93AA2019F083E00E94990143E56EE467
S1130A8087E40E949D00892B09F07BC020910339E3
S1130A9030910439D9011297E8E3A03CBE0709F06C
S1130AA078F4FD0180818A3269F03196712CDF017E
S1130AB07826EE15FF0539F081918A32C1F703C01B
S1130AC0712C01C0712C12966C91129711968C9115
S1130AD00E941001272D30E02817390709F051C072
S1130AE046C0CF01019680930339909304398181E4
S1130AF08C32F1F52F5F2230D9F582818C3209F4E2
S1130B0040C08835F1F1882D90E048E150E04C0F69
S1130B105D1F480F591F9F0127503109D9012C919E
S1130B20DA012C9340E150E04C0F5D1F480F591F30
S1130B309F0128503109D9012C91DA012C9340E20C
S1130B4050E04C0F5D1F480F591F9F01255031097C
S1130B50D9012C91DA012C93A8E2B0E0AC0FBD1FAF
S1130B60A80FB91F369720812C9383940AC020E0E4
S1130B70E0910339F0910439B8E3E03CFB0708F451
S1130B80B0CFBA94B11031CF6F8D81E09E8D9613A2
S1130B9080E09D8D691301C08F5F9C8D691301C036
S1130BA08F5F9B8D691301C08F5F9A8D691301C09C
S1130BB08F5F998D691301C08F5F988D691301C090
S1130BC08F5F863008F40EC18F8991E02E89281337
S1130BD090E02D89821301C09F5F2C89821301C08C
S1130BE09F5F2B89821301C09F5F2A89821301C0F2
S1130BF09F5F2989821301C09F5F2889821301C0E6
S1130C009F5F963008F4F1C0EFA491E02EA52E1159
S1130C1090E02DA5E21201C09F5F2CA5E21201C055
S1130C209F5F2BA5E21201C09F5F2AA5E21201C0BB
S1130C309F5F29A5E21201C09F5F28A5E21201C0AF
S1130C409F5F963008F4D4C0FFA091E02EA12F112D
S1130C5090E02DA1F21201C09F5F2CA1F21201C0FD
S1130C609F5F2BA1F21201C09F5F2AA1F21201C063
S1130C709F5F29A1F21201C09F5F28A1F21201C057
S1130C809F5F963008F4B7C0ECE2FE1609F4B6C0D4
S1130C900E94C5000F2EFCEDCF2EF8E3DF2EF02DC1
S1130CA0D6011C968C936F2D8E2D0E94C500F601E3
S1130CB08587E0900339F0900439D7011497F70140
S1130CC035976C9180810E94C500D6011E968C9345
S1130CD0F70160A1878D0E94C500D60150968C93C0
S1130CE0F70184858E3421F480E88093DC3802C0D7
S1130CF01092DC38D70112966C91129711968C9150
S1130D000E94C5000F2EFCEDCF2EF8E3DF2EF02D50
S1130D10F6019081890F8083D70114966C91149702
S1130D2013968C910E94C500F6018183D701179612
S1130D306C91179716968C910E94C500F6018283D8
S1130D40D70119966C91199718968C910E94C50039
S1130D50F6018383D7015A968C91853421F48DE270
S1130D608093E03803C08BE28093E038F7018685F6
S1130D70813319F484E68093E138D70150966C915D
S1130D8050971F968C910E94C5000F2EFCEDCF2E1C
S1130D90F8E3DF2EF02DF6019581890F8583D701C5
S1130DA052966C91529751968C910E94C500F6010F
S1130DB08683D70155966C91559754968C910E94D1
S1130DC0C500F6018783D70157966C9157975696BD
S1130DD08C910E94C500F6018087918A028B80E085
S1130DE090E016C08AE992E013C08AE992E010C04C
S1130DF08AE992E00DC08AE992E00AC08AE992E0A9
S1130E0007C064E670E080E090E00E9482010ACEB0
S1130E10AF96CDBFDEBFDF91CF911F910F91FF90B1
S1130E20EF90DF90CF90BF90AF909F908F907F9086
S1130E300895CF93C82F0E94BF04009761F4E091F6
S1130E400339F091043923A5283529F02091EC3891
S1130E50243008F049C08C2F0E94BF04009759F435
S1130E60E0910339F091043923A5283521F020912C
S1130E70EC382430C8F58C2F0E94BF04009759F435
S1130E80E0910339F091043923A5283521F020910C
S1130E90EC38243048F58C2F0E94BF04009759F495
S1130EA0E0910339F091043923A5283521F02091EC
S1130EB0EC382430C8F48C2F0E94BF04009761F4EE
S1130EC0E0910339F091043923A5283541F02091AC
S1130ED0EC38243038F008C08AE992E005C08AE989
S1130EE092E002C08AE992E0CF9108950F931F9394
S1130EF0CF93DF936623C1F1EC018C01060F111D22
S1130F008FEF9FEF1BC0BC01660F771FFD01E42329
S1130F10F523EF2B11F06F5F7F4F5695479599237B
S1130F2034F4CB01E1E28E27E0E19E2701C0CB013E
S1130F302150310941F70C171D07C1F0A991B0E008
S1130F4028E030E040E850E0DECF99233CF4880FFD
S1130F50991F41E2842740E1942702C0880F991F1A
S1130F602150310991F705C08FEF9FEF20E130E068
S1130F70ECCFDF91CF911F910F910895F8942098B1
S1130F80E0E3F4E08081877F80834398E3E5F4E045
S1130F908081877F8083539B06C087E893E1539BBE
S1130FA002C00197E1F7309B02C080E801C080E0F5
S1130FB0539968C099EF539965C09150E1F762C0A5
S1130FC0539B02C09150E1F73099806453995EC0FD
S1130FD099EF53995BC09150E1F758C0539B02C0FD
S1130FE09150E1F730998062539954C099EF539925
S1130FF051C09150E1F74EC0539B02C09150E1F7AC
S11310003099806153994AC099EF539947C09150E0
S1131010E1F744C0539B02C09150E1F730998860D6
S1131020539940C099EF53993DC09150E1F73AC0AC
S1131030539B02C09150E1F730998460539936C0B4
S113104099EF539933C09150E1F730C0539B02C0DC
S11310509150E1F73099826053992CC099EF5399DC
S113106029C09150E1F726C0539B02C09150E1F78B
S113107030998160539922C099EF53991FC09150C0
S1131080E1F70895539BA0CF99EF9ACF539BAACF32
S113109099EFA4CF539BB4CF99EFAECF539BBECF60
S11310A099EFB8CF539BC8CF99EFC2CF539BD2CF00
S11310B099EFCCCF539BDCCF99EFD6CF0895209AEC
S11310C0882314F0289893C0289A91C029EF30E01F
S11310D0539B8FC021503109D9F78BC0539903C05A
S11310E021503109D9F786FD02C0289887C0289A73
S11310F085C029EF30E0539B83C021503109D9F7D3
S11311007FC0539903C021503109D9F785FD02C02E
S113111028987BC0289A79C029EF30E0539B77C088
S113112021503109D9F773C0539903C021503109B3
S1131130D9F784FD02C028986FC0289A6DC029EFA2
S113114030E0539B6BC021503109D9F767C05399E4
S113115003C021503109D9F783FD02C0289863C028
S1131160289A61C029EF30E0539B5FC021503109B8
S1131170D9F75BC0539903C021503109D9F782FDD7
S113118002C0289857C0289A55C029EF30E0539BD5
S113119053C021503109D9F74FC0539903C021508E
S11311A03109D9F781FD02C028984BC0289A49C05B
S11311B029EF30E0539B47C021503109D9F743C090
S11311C0539903C021503109D9F780FD02C02898F2
S11311D03FC0289A3DC089EF90E0539B3BC00197E4
S11311E0E1F738C053993BC00197E1F7089553994B
S11311F06DCF539978CF29EF30E070CF539979CFE1
S1131200539984CF29EF30E07CCF539985CF5399FC
S113121090CF29EF30E088CF539991CF53999CCF49
S113122029EF30E094CF53999DCF5399A8CF29EF5C
S113123030E0A0CF5399A9CF5399B4CF29EF30E030
S1131240ACCF5399B5CF5399C0CF29EF30E0B8CF85
S11312505399C1CF539903C089EF90E0C3CF089548
S11312600F931F93CF93DF938C01209A439867E1E8
S11312700E947607F801978B808FC0E3D5E7289802
S113128061E070E080E090E00E94B601539B1AC0D8
S11312902197A9F717C08FE295E7539B15C00197D3
S11312A0E1F712C0539902C00197E1F7409A489AB6
S11312B0E801075E1F4F89910E945F080C171D0704
S11312C0D1F707C05399E7CF5399F0CF8FE295E751
S11312D0E9CFDF91CF911F910F910895CF92DF92C3
S11312E0EF92FF920F931F93CF93DF93CDB7DEB7A7
S11312F02997CDBFDEBFF8940E94BE0789830E9460
S1131300BE078A830E94BE078B830E94BE078C831C
S113131062E0CE0101960E947607209A2B8130E08C
S1131320322F22274C81240F311D8217930709F095
S113133046C089818093F83800EC18E38091043822
S1131340F8018187EA81F0E0E452F74C8081F801EA
S1131350808F43986AE1C8010E947607F801928F52
S1131360838F8081882314F0289831C0289A2FC055
S11313708FE295E7539B2DC00197E1F72AC0F8014E
S113138081918F010E945F080C151D05C1F72098FB
S1131390309B2DC088EC02C0309B29C000000000A7
S11313A0000000008150C1F70AC0F70111927F01CB
S11313B08E179F07D1F7E0ECF8E3168A178AE0E46A
S11313C0F4E08185826081877894898115C053997E
S11313D0CFCF0F2EF0ECEF2EF8E3FF2EF02D0F2ED3
S11313E0FCEDCF2EF8E3DF2EF02D8701C8CF10924D
S11313F0043886ED98E3D9CF2996CDBFDEBFDF91BF
S1131400CF911F910F91FF90EF90DF90CF900895AF
S11314102398E3E3F4E09081977F90832A9A229AB9
S11314202CE635E02093080830930908882321F03E
S113143080EC8093060810C02398E3E3F4E08081F5
S1131440877F80832A9A229AE0E0F8E08CE695E090
S11314508087918780E48683E0E0F8E08181808161
S113146008950498E4E1F4E0808188608083459ADB
S11314704D9A8AE098E38093FF389093003981E095
S11314800E94080A089510920608239A229A2A981C
S11314902B98E2E3F4E08081877F8083E3E3F4E048
S11314A08081877F80830895459A4D98E4E1F4E034
S11314B08081877F8083049A0C980E94430A089550
S11314C0AF92BF92CF92DF92EF92FF920F931F934E
S11314D0CF93DF93E82E6894AA24A3F800E018E0E1
S11314E0C6E3D4E00F2EF9EFBF2EF02D0F2EF3E05C
S11314F0FF2EF02DA8956AEF70E080E090E00E9446
S113150082010E943C02F801858180688583789479
S11315108E2D0E94F8036C018881887F8260888305
S1131520EE2019F081E00E949901FA94FF2029F03D
S1131530FAE9CF16F2E0DF06E9F2EE2019F081E0D5
S11315400E949901BA94BB2031F08AE9C81682E05E
S1131550D80661F215C00E94540A68EE73E080E078
S113156090E00E9482010E94310A0E94DD01AA9447
S1131570AA2031F0EAE9CE16E2E0DE0609F4B2CFA1
S1131580C601DF91CF911F910F91FF90EF90DF90F3
S1131590CF90BF90AF9008950098E0E1F4E090817F
S11315A0986090830198E1E1F4E0908198609083E1
S11315B00298E2E1F4E09081986090830398E3E17B
S11315C0F4E0908198609083E4E1F4E09081977F67
S11315D09083049A0C980598E5E1F4E09081986072
S11315E090839081987F956090830698E6E1F4E07B
S11315F09081986090830798E7E1F4E09081986087
S113160090832098E0E3F4E09081977F9083219881
S1131610E1E3F4E09081986090832498E4E3F4E0BB
S11316209081986090832598E5E3F4E09081986038
S113163090832698E6E3F4E09081977F908327983F
S1131640E7E3F4E09081986090834098E0E5F4E06B
S11316509081986090834198E1E5F4E090819860EE
S11316609083882329F08081887F8560808305C0EA
S1131670E1E5F4E08081887F80834298E2E5F4E04C
S11316808081886080834398E3E5F4E08081877FEC
S113169080834498E4E5F4E0808188608083E5E514
S11316A0F4E08081877F80831092A100109200066D
S11316B00E94540A0895EF92FF921F93CF93DF93F1
S11316C0D82F0E94310A0E94DD01DD2309F46CC089
S11316D081E00E9499010E94DD0181E00E9499014C
S11316E00E94DD0181E00E94990162C00E94540AB7
S11316F00F2EFAE9EF2EF2E0FF2EF02D68C0C15054
S113170021F410C0C11109C00DC08D2F0E94BF0368
S1131710892BA9F7F7CFC15029F08D2F0E94190703
S1131720892BC9F76AE085E79FE90E94CC01F89408
S1131730C0E0A895CF5F409A48988CED98E30E944A
S113174030090E94BE07182F6AE080E89FE90E94D2
S1131750CC016C2F629566956695637070E080E0AD
S113176090E00E948201173411F0CE3111F7789481
S1131770A895DD2311F0219A299860ED77E080E0A7
S113178090E00E948201A89560ED77E080E090E00F
S11317900E948201A8950E94430A2198E1E3F4E0A3
S11317A080818860808313C00E94DD010E94DD0176
S11317B01092F5381092F6381092EB388D2F0E9463
S11317C0600A7C01892B09F091CFCFE09ECFC7013D
S11317D0DF91CF911F91FF90EF90089580E090E00A
S11317E00000019688329105D9F708950F931F934D
S11317F0CF93DF93C7E0D0E0082F10E02F980000CC
S113180000002F9A0000000098010C2E02C03595AC
S113181027950A94E2F720FD02C02F9801C02F9A61
S11318200E94EE0B219750F7DF91CF911F910F91FA
S113183008950F931F93CF93DF93082F162FD42F60
S1131840C22F2F98279A0E94EE0B2F9A00FD02C0F8
S11318502F9801C02F9A0E94EE0B812F0E94F60B45
S11318608D2F0E94F60B8C2F0E94F60BDF91CF91E7
S11318701F910F91089580E090E0000001968C3351
S11318809105D9F708952E98269A0E943B0C269824
S11318900895109204388EEF80930038ECEDF8E34D
S11318A085EF98E31192E817F907E1F70E949A008F
S11318B088ED84BF1092010184BFF89462E070E067
S11318C088E790E00E945B0F1092FE38C0ECD8E3EA
S11318D00CED18E3FE011192E017F107E1F781E046
S11318E00E94CC0A8BE0809300010000A895F89434
S11318F0F8941992C017D107E1F781E00E94CC0A4D
S11319000000A895F8941092013980EA8093FD387C
S11319108FEF83B987B9279A21E341E06091FD38BD
S1131920809101390E94190C64EF71E080E090E02D
S11319300E94820121E341E06091FD3880910139E8
S11319400E94190CE6E3F4E08081887F8260808342
S11319501092FE380F2EF7E0EF2EF02D812C9924F3
S113196093940F2EFBE0BF2EF02D6894552451F86C
S11319700F2EF6E0AF2EF02D0F2EF5E06F2EF02D8A
S11319806894772472F80F2EF3E0FF2EF02D01E512
S113199014E0C6E3D4E00F2EF0E5CF2ED12CF02DC9
S11319A0A8950E94430CE091FE388E2F90E0883079
S11319B0910508F059C0FC01E258FF4F0C94550FF3
S11319C081E08093FE3853C081E00E945B0B892B39
S11319D019F4E092FE384BC0F092FE3848C080E023
S11319E00E945B0B0E94540AE092FE3840C081E0E2
S11319F00E945B0B892B19F4E092FE3838C0709278
S1131A00FE3835C080E00E945B0B892B19F4E0920C
S1131A10FE382DC06092FE382AC080E00E945B0B25
S1131A20892B19F4E092FE3822C0A092FE381FC020
S1131A3080E00E945B0B892B19F4E092FE3817C0FA
S1131A40A092FE3814C0A895F401B0820E94540AF2
S1131A50A8950E94430C8091F83884FF08C0109226
S1131A60F8385092FE3803C0E092FE38A89581E021
S1131A700E94CC0A7894F8018081887F85608083F5
S1131A808881887F82608883F601F08200008895CF
S1131A9087CF1F920F920FB60F9211248F939F93AB
S1131AA080914C0A90914D0A9F918F910F900FBE97
S1131AB00F901F9018951F920F920FB60F9211243A
S1131AC02F933F934F935F936F937F938F939F9342
S1131AD0AF93BF93EF93FF93F894E1E5F4E0808133
S1131AE0887F8083E0E4F4E081858260818780914F
S1131AF0FE38883011F00E946E09E0E4F4E081853C
S1131B00826081878091FE38873031F481E00E94C1
S1131B10CC0A81E00E94CC0AA895E1E5F4E080813A
S1131B20887F856080837894FF91EF91BF91AF9116
S1131B309F918F917F916F915F914F913F912F91E1
S1131B400F900FBE0F901F9018951F920F920FB613
S1131B500F9211248F939F93EF93FF93E091FF389B
S1131B60F091003988E3E03CF807D8F08FEB98E374
S1131B708093FF3890930039FC01809100088083A2
S1131B80809100088A3019F481E08093F7388091BD
S1131B90FF389091003901968093FF389093003973
S1131BA005C088E3EA30F80758F3E7CFFF91EF91D7
S1131BB09F918F910F900FBE0F901F9018951F92B9
S1131BC00F920FB60F9211248F93EF93FF93A89562
S1131BD08091073881110AC081E080930738E0ECD6
S1131BE0F8E386898F5F868B10920038109208384C
S1131BF0269881E080930938E0E2F4E081858064EE
S1131C008187E6E3F4E08081887F8083FF91EF9110
S1131C108F910F900FBE0F901F9018951F920F92E7
S1131C200FB60F9211242F933F934F935F936F93AB
S1131C307F938F939F93AF93BF93CF93DF93EF9350
S1131C40FF93F8948091090485FF16C0C0E0D4E0A6
S1131C50898580628987A89581E00E949901109204
S1131C60FE38E5E1F4E08081887F856080838985A2
S1131C7080628987789405C0E0E0F4E08185826021
S1131C808187FF91EF91DF91CF91BF91AF919F91A8
S1131C908F917F916F915F914F913F912F910F9011
S1131CA00FBE0F901F9018951F920F920FB60F92B0
S1131CB011242F933F934F935F936F937F938F934D
S1131CC09F93AF93BF93EF93FF93A89580910638AA
S1131CD08C3328F0909101389150909301388F5FA4
S1131CE0809306388C3398F080910138853078F4ED
S1131CF08AE380930138109206388AE0809305388D
S1131D0081E08093033880E88093023815C0809185
S1131D100238869519F0809302380EC080E88093CB
S1131D200238809103388F5F893018F48093033828
S1131D3003C081E080930338809109388823A1F09F
S1131D40809104388F5F80930438809106388C33F7
S1131D5050F5E0910338F0E0E054F74C9081809125
S1131D600238892B80831FC0809108388F5F80934D
S1131D700838853620F084E68093083814C085300E
S1131D8091F480910538E82FF0E0E054F74C9091FD
S1131D90003895509083109207389EEF9093003846
S1131DA08F5F809305380E94430C10920938E6E354
S1131DB0F4E08081887F8260808381E08093530196
S1131DC0FF91EF91BF91AF919F918F917F916F910F
S1131DD05F914F913F912F910F900FBE0F901F90E5
S1131DE0189580E0089542E068ED88E790E00E944D
S1131DF0360F40E068ED80E790E00E94360F40E047
S1131E0068ED80E690E00E94360F80E0089580E05F
S1131E100895E0E1F4E0808188608193E83184E012
S1131E20F807C9F7E0E3F4E0808188608193E83340
S1131E3084E0F807C9F708952398E3E3F4E0808188
S1131E40877F8083229A2A980E94490F08950E94CE
S1131E50090F0E94F30E0E943A0F0E941C0F0E9469
S1131E60070F0E94470F0E94F10E0895FC0164BF02
S1131E7040830895E0E4F1E081818111FDCFE0E445
S1131E80F1E081E7808B81E0828B80E0089580E03F
S1131E900895E0E0F8E08CE695E08087918780E89B
S1131EA0858380EC868380E00895EE0FFF1F059004
S1131EB0F491E02D0994DC0128ED209334006C9317
S1091EC00895F894FFCF21
S1131EC624505542582C34302C474C4C2C312C3051
S1131ED62C312C312C312C302A35430D0A24505503
S1131EE642582C34302C4753412C312C302C312C75
S1131EF6312C312C302A34450D0A24505542582CA5
S1131F0634302C4753562C312C302C312C312C3177
S1131F162C302A35390D0A24505542582C34302C8D
S1131F264747412C312C302C312C312C312C302A82
S1131F3635410D0A24505542582C34302C565447FA
S1131F462C312C302C312C312C312C302A35450DAA
S1131F560A24474E474E512C5A44412A32320D0A1E
S1131F6624474E474E512C474E532A32370D0A47C3
S1131F76505320474E53200D0A0054494E592D42C2
S1131F86494720434C4F434B205345542041545416
S10B1F96454D5054200D0A00D2
S9030000FC
