S02B000047657474696E672073746172746564206576656E747320415474696E793831372061737369676E6D0B
S113000019C020C01FC01EC01DC01CC01EC01AC005
S113001019C018C017C016C015C014C013C012C030
S113002011C010C00FC00EC00DC00CC00BC00AC060
S113003009C008C011241FBECFEFCDBFDFE3DEBF70
S113004016D056C0DDCF38D008951F920F920FB648
S11300500F9211248F9380E18093270481E0809391
S113006043018F910F900FBE0F901F901895EBDFF7
S1130070FFCF80E0089580E00895789480E00895AB
S1130080E0E1F4E0808188608193E83184E0F8075E
S1130090C9F7E0E3F4E0808188608193E83384E089
S11300A0F807C9F7E0E5F4E0808188608193E835DA
S11300B084E0F807C9F70895E3DF249A2C98DBDF7E
S11300C004D0DBDF13D0D5DF0895E0E4F1E08181D3
S11300D08111FDCFE0E4F1E089E2808384EF91E0D7
S11300E08287938781E0828380E0089580E0089589
S10700F0F894FFCFAE
S9030000FC
