:100000000C9496000C94A8000C94A8000C941C105E
:100010000C94FD0F0C94790F0C94A8000C944B10C9
:100020000C94A8000C94A8000C94A8000C94A800B0
:100030000C94A8000C94670F0C94A8000C94A800D2
:100040000C94A8000C94A8000C94A8000C94A80090
:100050000C94A8000C94A8000C94A8000C94A80080
:100060000C94A8000C94A8000C94A8000C94C30F46
:100070000C94A8000C94A8000C94A800E100E400E3
:10008000E700EA00ED00F000F300F600F9001F01C0
:1000900008010A010C010E011001120114011701DF
:1000A0001A012C012F013201350138013B013E01BB
:1000B000410144015901590159015901590159019D
:1000C000590147014A014D01500153015601910167
:1000D0006501670169016B016E01710174017701AE
:1000E0007A018C018C018C018C018C018C018C01BA
:1000F0008F017D0180018301860189015302550230
:10010000570259025B025D025F02610263026502EF
:10011000670269026B026D026F027102E60EE90E60
:10012000FC0E0C0F160F200F2A0F340F11241FBEC8
:10013000CFEFCDBFDFE3DEBF29E3A0E0B8E301C02E
:100140001D92A730B207E1F70E940B0E0C949C1190
:100150000C9400000E94621108952BE038E3209374
:10016000053930930639A0910139B09102391597BC
:10017000E0910539F09106399F012F5F3F4F2093A1
:100180000539309306399181981306C092819613F0
:1001900003C09381941731F02A173B0748F38AE98B
:1001A00092E0089580E090E00895482F862F90E037
:1001B000FC01F197E930F105F8F4E25CFF4F0C9493
:1001C000901181E090E01AC082E090E017C083E0D7
:1001D00090E014C084E090E011C085E090E00EC093
:1001E00086E090E00BC087E090E008C088E090E0F7
:1001F00005C089E090E002C080E090E050E0FA01A4
:10020000F097EA30F105C8F4E95BFF4F0C949011C8
:100210000A960895449608954E96089588960895EE
:10022000C2960895CC9608958A5B9F4F0895805B8F
:100230009F4F0895865A9F4F089580E090E008955B
:10024000482F862F90E0FC01F197E631F10588F503
:10025000EF5AFF4F0C94901181E090E02CC082E0A7
:1002600090E029C083E090E026C084E090E023C0C5
:1002700085E090E020C086E090E01DC087E090E03F
:100280001AC088E090E017C089E090E014C08AE0CE
:1002900090E011C08BE090E00EC08CE090E00BC0CD
:1002A0008DE090E008C08EE090E005C08FE090E027
:1002B00002C080E090E050E0FA01F097E731F105EC
:1002C00058F5E959FF4F0C94901140960895809687
:1002D0000895C0960895805C9F4F0895805B9F4F5E
:1002E0000895805A9F4F089580599F4F08958058D0
:1002F0009F4F089580579F4F089580EB90E0089599
:1003000080EC90E0089580ED90E0089580EE90E01C
:10031000089580EF90E0089580E090E0089580EAED
:1003200090E00895AB01BC014115510561057105CF
:1003300061F40895000001968A3921E09207D1F70F
:10034000415051096109710919F080E090E0F2CF44
:100350000895CF93C82F429A882381F04A986AE083
:1003600070E080E090E00E9492014A9A62E370E0BF
:1003700080E090E00E949201C15081F74298E2E54E
:10038000F4E0808188608083CF910895AB01BC0147
:10039000411551056105710559F408950000019654
:1003A0008E329105D9F7415051096109710919F04F
:1003B00080E090E0F3CF0895662371F0DC019C01AA
:1003C000260F311DE0E0F8E0948195FFFDCF9D916F
:1003D0009283A217B307C1F70895CF93DF93CDB7E8
:1003E000DEB7C159D109CDBFDEBF68EE73E080E052
:1003F00090E00E9492018DE1ECE3F3EADE011196B8
:1004000001900D928A95E1F76DE1CE0101960E946F
:10041000DC018DE1E9E5F3EADE015E9601900D92E3
:100420008A95E1F76DE1CE014E960E94DC018DE1E7
:10043000E6E7F3EADE01DB9601900D928A95E1F79B
:100440006DE1CE01CB960E94DC018DE1E3E9F3EA98
:10045000DE01A85ABF4F01900D928A95E1F76DE138
:10046000CE01885A9F4F0E94DC018DE1E0EBF3EA58
:10047000DE01AB58BF4F01900D928A95E1F76DE117
:10048000CE018B589F4F0E94DC01CF56DF4FCDBF6E
:10049000DEBFDF91CF9108958F7090E0FC01E258AC
:1004A000FF4F0C94901180E3089581E3089582E357
:1004B000089583E3089584E3089585E3089586E32A
:1004C000089587E3089588E3089589E3089581E412
:1004D000089582E4089583E4089584E4089585E40A
:1004E000089586E408951F93CF93DF93EC010E9453
:1004F0004C02182FCE0195958795959587959595E2
:100500008795959587950E944C0290E0982F8827B3
:10051000810F911DDF91CF911F910895DF92EF928E
:10052000FF920F931F93CF93DF9300D000D0CDB7EE
:10053000DEB77C01162F8F2D90E00E947302082FEA
:10054000D92EC70199270E947302D9820A839B83FF
:100550008C83123051F0133071F0113091F461E05E
:10056000CE0104960E94DC0111C062E0CE01039628
:100570000E94DC010BC063E0CE0102960E94DC0108
:1005800005C064E0CE0101960E94DC012496CDBF37
:10059000DEBFDF91CF911F910F91FF90EF90DF9021
:1005A0000895CF93DF93CDB7DEB72897CDBFDEBFD9
:1005B0000E94571188E0EDECF3EADE0111960190FC
:1005C0000D928A95E1F768E0CE0101960E94DC0168
:1005D0006AE070E080E090E00E9492012896CDBF32
:1005E000DEBFDF91CF91089561E08EEF93EA0E9424
:1005F000DC016AE070E080E090E00E9492010895E2
:100600008CE098E3809301399093023980E090E088
:1006100028E5E0910139F0910239E80FF91F2083B4
:100620000196863B9105A9F78CE098E38093013908
:10063000909302390895BF92CF92DF92EF92FF928A
:100640000F931F93CF93DF93CDB7DEB76F97CDBFD7
:10065000DEBF8FE0E5EDF3EADE01119601900D9229
:100660008A95E1F704E0B12CC12C6894DD24D3F81D
:100670000F2EF3ECEF2EF8E3FF2EF02DA8956FE090
:10068000CE0101960E94DC010E940003F6018581E3
:10069000806885831092F93878948091F9388111B7
:1006A0000AC064E670E080E090E00E9492011FE0E2
:1006B000115009F00CC18091F7389091F8380196EB
:1006C0008093F7389093F838813DF2E09F0724F04B
:1006D00020910039213019F48D3A934034F08AE9A1
:1006E000809304398AE992E0F9C0F60185818F7719
:1006F000858341E464E48AE50E94AD00892B09F01A
:1007000067C02091053930910639D9011297F8E375
:10071000A23CBF0709F078F4FD0180818A3269F0BC
:10072000319610E0DF011827EE16FF0639F08191AF
:100730008A32C1F703C010E001C010E012966C913C
:10074000129711968C910E942001212F30E02817DA
:100750003907F1F534C0CF010196809305399093A4
:10076000063981818C3261F52F5F223049F5228173
:100770002C3271F13681383559F18B2D90E0A4E19E
:10078000B0E0AC0FBD1FA80FB91F3C93A0E1B0E0D3
:10079000AC0FBD1FA80FB91F35813C93A8E1B0E095
:1007A000AC0FBD1FA80FB91F33813C93ECE1F0E003
:1007B000EC0FFD1FE80FF91F2083B39409C020E060
:1007C000E0910539F091063988E3E23CF80718F228
:1007D000015009F053CF1F8981E09E89911380E079
:1007E0009D89191301C08F5F9C89191301C08F5F08
:1007F000833008F45DC00B8981E09A89901380E012
:100800009989091301C08F5F9889091301C08F5F0F
:10081000833008F450C0FB8C81E09A8D9F1180E0FA
:10082000998DF91201C08F5F988DF91201C08F5F09
:10083000833008F443C0EF8C81E09E8D9E1180E0F0
:100840009D8DE91201C08F5F9C8DE91201C08F5F01
:100850008330B8F12091ED38EEEDF8E387EF98E3BF
:100860001192E817F907E1F72093ED38ECE2FE1654
:1008700059F1E0910539F0910639628581850E9430
:10088000D5000F2EFEEDCF2EF8E3DF2EF02DF60172
:100890008187612F802F0E94D500F60182876F2DFE
:1008A0008E2D0E94D500F601838780E090E016C06F
:1008B0008AE992E013C08AE992E010C08AE992E0E6
:1008C0000DC08AE992E00AC08AE992E007C064E6B6
:1008D00070E080E090E00E949201EACE6F96CDBF7A
:1008E000DEBFDF91CF911F910F91FF90EF90DF90CE
:1008F000CF90BF9008950E941B03009739F4E091B8
:100900000539F09106392285283539F50E941B03F7
:10091000009739F4E0910539F091063922852835A0
:10092000E1F40E941B03009739F4E0910539F0913E
:1009300006392285283589F40E941B03009741F46B
:10094000E0910539F09106392285283531F403C04C
:100950008AE992E008958AE992E00895CF92DF92C1
:10096000EF92FF920F931F93CF93DF93109204396E
:100970006894CC24C2F8D12CE12C6894FF24F3F8BD
:1009800003EC18E3A8950E940003E7018D818068BD
:100990008D831092F93878948091F93881110AC0CA
:1009A00064E670E080E090E00E949201CFE0C150E8
:1009B00009F083C08091F7389091F83801968093C0
:1009C000F7389093F838813DD2E09D0724F02091CC
:1009D0000039213019F48D3A934034F08AE980933C
:1009E00004398AE992E070C0E7018D818F778D83A9
:1009F00043E46DE482E50E94AD00892B09F044C018
:100A0000E0910539F0910639DF011297D8E3A23C55
:100A1000BD0709F078F4ED0188818A3269F03197D9
:100A2000C0E0DF01C827E017F10739F081918A3271
:100A3000C1F703C0C0E001C0C0E012966C911297EC
:100A400011968C910E9420012C2F30E02817390735
:100A5000D9F411C0CF0101968093053990930639DE
:100A600081818C3249F42F5F223031F482818134CC
:100A700059F4D39409C020E0E0910539F09106398A
:100A8000D8E3E23CFD0730F3CA94C1107BCFE1E02C
:100A9000ED1568F4E0910539F091063981818134D2
:100AA00031F489E28093043980E090E00DC08AE956
:100AB000809304398AE992E007C064E670E080E040
:100AC00090E00E94920173CFDF91CF911F910F911F
:100AD000FF90EF90DF90CF9008958F929F92AF920A
:100AE000BF92CF92DF92EF92FF920F931F93CF931B
:100AF000DF93CDB7DEB7AF97CDBFDEBF8FE0E4EEBB
:100B0000F3EADE01119601900D928A95E1F721E05A
:100B10002F8F92E09A8F83E0898F2F8B9A8B898B0E
:100B20002FA39AA389A36894BB24B3F8A12CC12C4A
:100B30006894DD24D3F80F2EF3ECEF2EF8E3FF2EAC
:100B4000F02DA8956FE0CE0101960E94DC010E9475
:100B50000003D60115968C911597806815968C9395
:100B60001092F93878948091F93881110AC064E6BE
:100B700070E080E090E00E9492011FE0115009F0C7
:100B8000E7C10091F7381091F838013DB2E01B073A
:100B900024F080910039813021F40D3AE3E01E0702
:100BA00034F08AE9809304398AE992E0D8C10F5F72
:100BB0001F4F912E0093F7381093F838D6011596F1
:100BC0008C9115978F7715968C9343E56EE487E4A7
:100BD0000E94AD00892B09F07BC02091053930912E
:100BE0000639D9011297E8E3A23CBE0709F078F470
:100BF000FD0180818A3269F03196812CDF018826DF
:100C0000EE15FF0539F081918A32C1F703C0812CBE
:100C100001C0812C12966C91129711968C910E94B2
:100C20002001282D30E02817390709F051C046C0AF
:100C3000CF010196809305399093063981818C32DA
:100C4000F1F52F5F2230D9F582818C3209F440C052
:100C50008835F1F18A2D90E048E150E04C0F5D1F9E
:100C6000480F591F9F0127503109D9012C91DA01F2
:100C70002C9340E150E04C0F5D1F480F591F9F011E
:100C800028503109D9012C91DA012C9340E250E02F
:100C90004C0F5D1F480F591F9F0125503109D90185
:100CA0002C91DA012C93A8E2B0E0AC0FBD1FA80F85
:100CB000B91F369720812C93A3940AC020E0E091BD
:100CC0000539F0910639B8E3E23CFB0708F4B0CFF0
:100CD000BA94B11036CF6F8D81E09E8D961380E06F
:100CE0009D8D691301C08F5F9C8D691301C08F5F5B
:100CF0009B8D691301C08F5F9A8D691301C08F5F4F
:100D0000998D691301C08F5F988D691301C08F5F42
:100D1000863008F40EC18F8991E02E89281390E067
:100D20002D89821301C09F5F2C89821301C09F5FB0
:100D30002B89821301C09F5F2A89821301C09F5FA4
:100D40002989821301C09F5F2889821301C09F5F98
:100D5000963008F4F1C0EFA491E02EA52E1190E09A
:100D60002DA5E21201C09F5F2CA5E21201C09F5F7A
:100D70002BA5E21201C09F5F2AA5E21201C09F5F6E
:100D800029A5E21201C09F5F28A5E21201C09F5F62
:100D9000963008F4D4C0FFA091E02EA12F1190E06E
:100DA0002DA1F21201C09F5F2CA1F21201C09F5F22
:100DB0002BA1F21201C09F5F2AA1F21201C09F5F16
:100DC00029A1F21201C09F5F28A1F21201C09F5F0A
:100DD000963008F4B7C0ECE2FE1609F4B6C00E94E3
:100DE000D5000F2EFEEDCF2EF8E3DF2EF02DD6012D
:100DF0001C968C936F2D8E2D0E94D500F601858751
:100E0000E0900539F0900639D7011497F70135972E
:100E10006C9180810E94D500D6011E968C93F701BB
:100E200060A1878D0E94D500D60150968C93F70162
:100E300084858E3421F480E88093DE3802C01092DD
:100E4000DE38D70112966C91129711968C910E9400
:100E5000D5000F2EFEEDCF2EF8E3DF2EF02DF6019C
:100E60009081890F8083D70114966C911497139603
:100E70008C910E94D500F6018183D70117966C9161
:100E8000179716968C910E94D500F6018283D701A0
:100E900019966C91199718968C910E94D500F601BD
:100EA0008383D7015A968C91853421F48DE2809307
:100EB000E23803C08BE28093E238F7018685813304
:100EC00019F484E68093E338D70150966C915097DB
:100ED0001F968C910E94D5000F2EFEEDCF2EF8E3C9
:100EE000DF2EF02DF6019581890F8583D70152966B
:100EF0006C91529751968C910E94D500F601868391
:100F0000D70155966C91559754968C910E94D500B7
:100F1000F6018783D70157966C91579756968C9117
:100F20000E94D500F6018087918A028B80E090E0D4
:100F300016C08AE992E013C08AE992E010C08AE9FB
:100F400092E00DC08AE992E00AC08AE992E007C007
:100F500064E670E080E090E00E9492010FCEAF96D0
:100F6000CDBFDEBFDF91CF911F910F91FF90EF902A
:100F7000DF90CF90BF90AF909F908F9008950E9488
:100F80006D05009761F4E0910539F091063923A5CC
:100F9000283529F02091EE38243008F045C00E9411
:100FA0006D05009759F4E0910539F091063923A5B4
:100FB000283521F02091EE382430B0F50E946D05DF
:100FC000009759F4E0910539F091063923A52835A9
:100FD00021F02091EE38243038F50E946D050097FD
:100FE00059F4E0910539F091063923A5283521F00F
:100FF0002091EE382430C0F40E946D05009761F412
:10100000E0910539F091063923A5283541F020916A
:10101000EE38243038F008958AE992E008958AE99C
:1010200092E008958AE992E008950F931F93CF9379
:10103000DF936623C1F1EC018C01060F111D8FEFC8
:101040009FEF1BC0BC01660F771FFD01E423F52352
:10105000EF2B11F06F5F7F4F56954795992334F42E
:10106000CB01E1E28E27E0E19E2701C0CB012150B8
:10107000310941F70C171D07C1F0A991B0E028E034
:1010800030E040E850E0DECF99233CF4880F991F10
:1010900041E2842740E1942702C0880F991F215024
:1010A000310991F705C08FEF9FEF20E130E0ECCFE1
:1010B000DF91CF911F910F910895F8942098E0E36C
:1010C000F4E08081877F80834398E3E5F4E08081CA
:1010D000877F8083539B06C087E893E1539B02C0C0
:1010E0000197E1F7309B02C080E801C080E053998E
:1010F00068C099EF539965C09150E1F762C0539B66
:1011000002C09150E1F73099806453995EC099EF25
:1011100053995BC09150E1F758C0539B02C0915066
:10112000E1F730998062539954C099EF539951C0B7
:101130009150E1F74EC0539B02C09150E1F73099B6
:10114000806153994AC099EF539947C09150E1F794
:1011500044C0539B02C09150E1F730998860539985
:1011600040C099EF53993DC09150E1F73AC0539B6D
:1011700002C09150E1F730998460539936C099EFDD
:10118000539933C09150E1F730C0539B02C0915046
:10119000E1F73099826053992CC099EF539929C097
:1011A0009150E1F726C0539B02C09150E1F730996E
:1011B0008160539922C099EF53991FC09150E1F774
:1011C0000895539BA0CF99EF9ACF539BAACF99EF45
:1011D000A4CF539BB4CF99EFAECF539BBECF99EF23
:1011E000B8CF539BC8CF99EFC2CF539BD2CF99EFC3
:1011F000CCCF539BDCCF99EFD6CF0895209A88238C
:1012000014F0289893C0289A91C029EF30E0539B9E
:101210008FC021503109D9F78BC0539903C0215099
:101220003109D9F786FD02C0289887C0289A85C061
:1012300029EF30E0539B83C021503109D9F77FC09B
:10124000539903C021503109D9F785FD02C0289870
:101250007BC0289A79C029EF30E0539B77C021509A
:101260003109D9F773C0539903C021503109D9F717
:1012700084FD02C028986FC0289A6DC029EF30E025
:10128000539B6BC021503109D9F767C0539903C0F4
:1012900021503109D9F783FD02C0289863C0289AEC
:1012A00061C029EF30E0539B5FC021503109D9F76D
:1012B0005BC0539903C021503109D9F782FD02C0A8
:1012C000289857C0289A55C029EF30E0539B53C047
:1012D00021503109D9F74FC0539903C0215031092A
:1012E000D9F781FD02C028984BC0289A49C029EF40
:1012F00030E0539B47C021503109D9F743C053997F
:1013000003C021503109D9F780FD02C028983FC0A1
:10131000289A3DC089EF90E0539B3BC00197E1F7CD
:1013200038C053993BC00197E1F7089553996DCFA9
:10133000539978CF29EF30E070CF539979CF5399F3
:1013400084CF29EF30E07CCF539985CF539990CF4C
:1013500029EF30E088CF539991CF53999CCF29EF53
:1013600030E094CF53999DCF5399A8CF29EF30E027
:10137000A0CF5399A9CF5399B4CF29EF30E0ACCF88
:101380005399B5CF5399C0CF29EF30E0B8CF5399D7
:10139000C1CF539903C089EF90E0C3CF08950F9355
:1013A0001F93CF93DF938C01209A439867E10E94AB
:1013B0001508F801978B808FC0E3D5E7289861E086
:1013C00070E080E090E00E94C601539B1AC0219714
:1013D000A9F717C08FE295E7539B15C00197E1F776
:1013E00012C0539902C00197E1F7409A489AE80168
:1013F000075E1F4F89910E94FE080C171D07D1F749
:1014000007C05399E7CF5399F0CF8FE295E7E9CF23
:10141000DF91CF911F910F910895CF92DF92EF92BC
:10142000FF920F931F93CF93DF93CDB7DEB72B9728
:10143000CDBFDEBFF8940E945D0889830E945D08DD
:101440008A830E945D088B830E945D088C8362E022
:10145000CE0101960E941508209A2B8130E0322F90
:1014600022274C81240F311D8217930709F01BC1DD
:1014700089818093FA3802EC18E380910A38F801E8
:101480008187EA81F0E0E252F74C8081F801808F99
:1014900043986AE1C8010E941508F801928F838F72
:1014A0008081882314F0289829C1289A27C18FE2C7
:1014B00095E7539B25C10197E1F722C1F80181917E
:1014C0008F010E94FE080C151D05C1F72098309B66
:1014D0000BC018EC02C0309B08C0000000000000E8
:1014E00000001150C1F701C018EC0E9457110E9472
:1014F00057118AE08A878DE08B8762E0CE010A96D9
:101500000E94DC0162E0CE010A960E94DC0162E0EA
:10151000CE010A960E94DC010F2EF2ECCF2EF8E3EA
:10152000DF2EF02DF601828162E090E00E948E02B3
:10153000F601838162E090E00E948E02F6018481D0
:1015400062E090E00E948E02F601858162E090E008
:101550000E948E02F601868162E090E00E948E0277
:10156000F601878162E090E00E948E02F60180859C
:1015700062E090E00E948E020E94F402F6018185F2
:1015800062E090E00E948E020E94F402F6018285E1
:1015900062E090E00E948E020E94F402F6018385D0
:1015A00062E090E00E948E020E94F402F6018485BF
:1015B00062E090E00E948E020E94F402F6018585AE
:1015C00062E090E00E948E020E94F402F60186859D
:1015D00062E090E00E948E020E94F402F60187858C
:1015E00062E090E00E948E020E94F402F60180897F
:1015F00062E090E00E948E020E94F402F60181896E
:1016000062E090E00E948E020E94F402F60182895C
:1016100062E090E00E948E020E94F402F60183894B
:1016200062E090E00E948E020E94F402F60184893A
:1016300062E090E00E948E020E94F402F601858929
:1016400062E090E00E948E020E94F402F601868918
:1016500062E090E00E948E0262E0CE010A960E9453
:10166000DC01A89562E370E080E090E00E949201C6
:101670001123E1F18AE08093053881E080930338FB
:10168000109206381092043810920A3888ED98E3C8
:10169000F70111927F01E817F907D1F7E2ECF8E3BF
:1016A000168A178A23C08AE08A878DE08B870E947A
:1016B00057110E94571162E0CE010A960E94DC0188
:1016C00063E083EF93EA0E94DC0162E0CE010A96B8
:1016D0000E94DC0168E087EF93EA0E94DC01A89594
:1016E00062E370E080E090E00E949201E0E4F4E0C8
:1016F0008185826081877894898110C05399D7CE83
:101700000F2EF2ECEF2EF8E3FF2EF02D0F2EFEED54
:10171000CF2EF8E3DF2EF02D8701D0CE2B96CDBF54
:10172000DEBFDF91CF911F910F91FF90EF90DF907F
:10173000CF9008952398E3E3F4E09081977F90831E
:101740002A9A229A2CE635E020930808309309085B
:10175000882321F080EC8093060810C02398E3E3EF
:10176000F4E08081877F80832A9A229AE0E0F8E083
:101770008CE695E08087918780E48683E0E0F8E05E
:101780008181808108950498E4E1F4E0808188609B
:101790008083459A4D9A8CE098E380930139909329
:1017A000023981E00E949A0B089510920608239A4C
:1017B000229A2A982B980895459A4D98E4E1F4E0EE
:1017C0008081877F8083049A0C980E94D50B0895AE
:1017D0009F92AF92BF92CF92DF92EF92FF920F93C0
:1017E0001F93CF93DF936894992493F8E12C689426
:1017F000FF24F3F806E314E0C1E1D4E00F2EF9EF83
:10180000AF2EF02D0F2EF3E0BF2EF02DA8956AEF2E
:1018100070E080E090E00E9492010E940003F701D6
:1018200085818068858378940E94AE046C01F801FC
:101830008081887F826080838881887F82608883BE
:10184000BA94BB2031F0FAE9CF16F2E0DF06F1F2EC
:101850001FC0AA94AA2031F08AE9C81682E0D806EF
:1018600089F219C00E94DC0B68EE73E080E090E022
:101870000E9492010E94C30B0E94ED019A9499204C
:1018800051F0EAE9CE16E2E0DE0609F4B7CF03C074
:10189000F1E0AF1639F3C601DF91CF911F910F919F
:1018A000FF90EF90DF90CF90BF90AF909F90089502
:1018B000CF93DF930098E0E1F4E09081986090830B
:1018C0000198E1E1F4E09081977F90830298E2E152
:1018D000F4E09081986090830398E3E1F4E09081D4
:1018E00098609083E4E1F4E09081977F9083049A7C
:1018F0000C980598E5E1F4E0908198609083069853
:10190000E6E1F4E09081986090830798E7E1F4E0E5
:101910009081986090832098E0E3F4E09081977F35
:1019200090832198E1E3F4E090819860908322987D
:10193000E2E3F4E09081977F90832398E3E3F4E07F
:101940009081977F90832498E4E3F4E090819860FD
:1019500090832598E5E3F4E0908198609083269841
:10196000E6E3F4E09081977F90832798E7E3F4E043
:101970009081986090834098E0E5F4E090819860D1
:1019800090834198E1E5F4E090819860908388230A
:1019900029F08081887F8560808305C0E1E5F4E0DF
:1019A0008081887F80834298E2E5F4E080818860CE
:1019B00080834398E3E5F4E08081877F80834498C7
:1019C000E4E5F4E08081877F8083C5E5D4E0888109
:1019D000877F8883459A4D981092A1001092000647
:1019E0000E94DC0B888188608883DF91CF91089505
:1019F0000F931F93CF93DF930E94C30B0E94ED01BF
:101A00000E94ED010E94ED011092F7381092F83813
:101A10001092ED380E94E80B8C01892B59F00E943E
:101A2000DC0B0AE912E04EC0C15029F40FC0C1110D
:101A300009C00CC0CFE00E947B04892BA9F7F7CF27
:101A4000C15021F00E94BF07892BD1F76AE080E0E6
:101A500094EA0E94DC01F894C0E0A895CF5F409A18
:101A600048988EED98E30E94CF090E945D08D82F18
:101A70006AE08BE094EA0E94DC0162E08D2F90E046
:101A80000E948E026C2F629566956695637070E079
:101A900080E090E00E949201D73411F0CE31E9F657
:101AA0007894A89560ED77E080E090E00E94920144
:101AB000A89560ED77E080E090E00E949201A89503
:101AC0000E94D50BC801DF91CF911F910F9108950E
:101AD00080E090E00000019688329105D9F70895E2
:101AE0000F931F93CF93DF93C7E0D0E0082F10E050
:101AF0002F98000000002F9A0000000098010C2E83
:101B000002C0359527950A94E2F720FD02C02F9870
:101B100001C02F9A0E94680D219750F7DF91CF9155
:101B20001F910F9108950F931F93CF93DF93082F69
:101B3000162FD42FC22F2F98279A0E94680D2F9A04
:101B400000FD02C02F9801C02F9A0E94680D812FBE
:101B50000E94700D8D2F0E94700D8C2F0E94700DB1
:101B6000DF91CF911F910F9108950F931F93CF9302
:101B7000DF93C7E0D0E0082F10E00A9800000000D3
:101B80000A9A0000000098010C2E02C03595279596
:101B90000A94E2F720FD02C00A9801C00A9A0E9446
:101BA000680D219750F7DF91CF911F910F91089504
:101BB0000F931F93CF93DF93082F162FD42FC22F8D
:101BC0000A98029A0E94680D0A9A00FD02C00A98BB
:101BD00001C00A9A0E94680D812F0E94B50D8D2FB9
:101BE0000E94B50D8C2F0E94B50DDF91CF911F91F2
:101BF0000F91089580E090E0000001968C339105EC
:101C0000D9F708952E98269A0998019A0E94FA0DFC
:101C100026980198089510920A38109204388EEF91
:101C200080930038109208388AE080930538EEEDF2
:101C3000F8E387EF98E31192E817F907E1F70E94BC
:101C4000AA0088ED84BF1092010184BFF89462E07D
:101C500070E088E790E00E9496118BE00E94A90155
:101C600010920039C2ECD8E30EED18E3FE01119298
:101C7000E017F107E1F781E00E94580C8BE08093B8
:101C800000010E9457110E9457110000A895F89476
:101C90000E94571183E00E94A9016DE089E294EA55
:101CA0000E94DC01A89568EE73E080E090E00E945D
:101CB0009201F8941992C017D107E1F781E00E94D0
:101CC000580C0000A895F8941092033980EA80938C
:101CD000FF388FEF83B987B9279A21E341E06091FC
:101CE000FF38809103390E94930D64EF71E080E02A
:101CF00090E00E94920121E341E06091FF388091E1
:101D000003390E94930DE6E3F4E08081887F8260CE
:101D10008083029A21E341E06091FF38809103398A
:101D20000E94D80D64EF71E080E090E00E94920183
:101D300021E341E06091FF38809103390E94D80D82
:101D4000E1E1F4E08081887F826080831092003935
:101D50000F2EF7E07F2EF02DA12CBB24B3940F2E75
:101D6000FBE05F2EF02D6894442441F80F2EF6E03E
:101D70006F2EF02D0F2EF5E03F2EF02D68942224CB
:101D800022F80F2EF3E08F2EF02D992493940F2E2E
:101D9000F1E5EF2EF4E0FF2EF02D06E314E0C1E1B3
:101DA000D4E00F2EF0E5CF2ED12CF02DA8950E9477
:101DB000020EE09100398E2F90E08830910508F0F6
:101DC0006CC0FC01E257FF4F0C94901190920039C7
:101DD00067C00E94F80C892B19F47092003902C078
:101DE000809200390E9457110E94D1026FE087E370
:101DF00094EA0E94DC0154C00E94F80C0E94DC0BA3
:101E00000E9457110E94D102662D87E494EA0E9435
:101E1000DC017092003944C00E94F80C892B19F43F
:101E2000709200393DC0209200393AC00E94F80CEF
:101E3000892B19F47092003933C03092003930C0C8
:101E40000E94F80C892B19F47092003929C0609215
:101E5000003926C00E94F80C892B19F470920039C1
:101E60001FC0609200391CC0A895F50150820E94E5
:101E7000DC0BA8950E94020E8091FA3884FF04C002
:101E80001092FA38409200390E9457116FE070E0CA
:101E900080E090E00E94920103C070920039A89502
:101EA000892D0E94580C7894F7018081887F856085
:101EB0008083F8018081887F826080838881887F29
:101EC00082608883F6018082000088956FCF1F9220
:101ED0000F920FB60F9211248F939F9380914C0A0B
:101EE00090914D0A9F918F910F900FBE0F901F9070
:101EF00018951F920F920FB60F9211242F933F93B4
:101F00004F935F936F937F938F939F93AF93BF9301
:101F1000EF93FF93F894E1E5F4E08081887F80837C
:101F2000E0E4F4E081858260818780910039883027
:101F300011F00E940D0AE0E4F4E08185826081875F
:101F400080910039873031F481E00E94580C81E0A3
:101F50000E94580CA895E1E5F4E08081887F8560B7
:101F600080837894FF91EF91BF91AF919F918F9172
:101F70007F916F915F914F913F912F910F900FBE85
:101F80000F901F9018951F920F920FB60F92112469
:101F90008F939F93EF93FF93E0910139F091023972
:101FA00088E3E23CF807D8F081EC98E380930139AC
:101FB00090930239FC018091000880838091000891
:101FC0008A3019F481E08093F93880910139909139
:101FD00002390196809301399093023905C088E354
:101FE000EC30F80758F3E7CFFF91EF919F918F9175
:101FF0000F900FBE0F901F9018951F920F920FB663
:102000000F9211248F93EF93FF93A895269881E068
:1020100080930B38E0E2F4E0818580648187E6E319
:10202000F4E08081887F8083FF91EF918F910F9002
:102030000FBE0F901F9018951F920F920FB60F9220
:1020400011248F93EF93FF93A89580910738811106
:102050000AC081E080930738E2ECF8E386898F5F5D
:10206000868B1092003810920838019881E0809396
:102070000938E0E0F4E0818582608187E1E1F4E005
:102080008081887F8083FF91EF918F910F900FBEA9
:102090000F901F9018951F920F920FB60F92112458
:1020A0002F933F934F935F936F937F938F939F9360
:1020B000AF93BF93EF93FF93A89580910738882340
:1020C00039F0809100388E3F19F08F5F809300388F
:1020D0000E9457110E94571180910B38882331F0CC
:1020E00061E08EE494EA0E94DC0105C061E080E5D5
:1020F00094EA0E94DC0180910938882331F061E084
:1021000082E594EA0E94DC0105C061E080E594EA82
:102110000E94DC016EE170E080E090E00E9492019C
:10212000809106388C3328F090910138915090932B
:1021300001388F5F809306388C3398F08091013896
:10214000853078F48AE380930138109206388AE06B
:102150008093053881E08093033880E880930238CB
:1021600015C080910238869519F0809302380EC010
:1021700080E880930238809103388F5F893018F4AB
:102180008093033803C081E08093033880910B383B
:10219000882329F080910A388F5F80930A388091D4
:1021A00009388823A1F0809104388F5F8093043828
:1021B000809106388C3350F5E0910338F0E0EE530F
:1021C000F74C908180910238892B80831FC08091C9
:1021D00008388F5F80930838853620F084E6809336
:1021E000083814C0853091F480910538E82FF0E06C
:1021F000EE53F74C90910038955090831092073829
:102200009EEF909300388F5F809305380E94020EF6
:1022100010920B3810920938E6E3F4E08081887F51
:1022200082608083E1E1F4E08081887F8260808346
:1022300081E080935301FF91EF91BF91AF919F9106
:102240008F917F916F915F914F913F912F910F905F
:102250000FBE0F901F90189580E0089542E068ED42
:1022600088E790E00E94711140E068ED80E790E01F
:102270000E94711140E068ED80E690E00E947111CB
:1022800080E0089580E00895E0E1F4E080818860D6
:102290008193E83184E0F807C9F7E0E3F4E0808156
:1022A00088608193E83384E0F807C9F7089523989C
:1022B000E3E3F4E08081877F8083229A2A980E945A
:1022C000841108950E9444110E942E110E947511DC
:1022D0000E9457110E9442110E9482110E942C11EB
:1022E0000895FC0164BF40830895E0E4F1E081813A
:1022F0008111FDCFE0E4F1E081E7808B81E0828B0A
:1023000080E0089580E00895E0E0F8E08CE695E054
:102310008087918780E8858380EC868380E00895BC
:10232000EE0FFF1F0590F491E02D0994DC0128EDDC
:0C233000209334006C930895F894FFCFC4
:10233C0024505542582C34302C474C4C2C312C30DA
:10234C002C312C312C312C302A35430D0A2450558C
:10235C0042582C34302C4753412C312C302C312CFE
:10236C00312C312C302A34450D0A24505542582C2E
:10237C0034302C4753562C312C302C312C312C3101
:10238C002C302A35390D0A24505542582C34302C17
:10239C004747412C312C302C312C312C312C302A0C
:1023AC0035410D0A24505542582C34302C56544784
:1023BC002C312C302C312C312C312C302A35450D34
:1023CC000AFE46FE48FE4CFE5124474E474E512C09
:1023DC005A44412A32320D0A24474E474E512C475B
:1023EC004E532A32370D0A4241440020202020202F
:1023FC002020200047505320474E53200D0A0054F4
:10240C00494E592D42494720434C4F434B2053458D
:10241C005420415454454D5054200D0A000D0A428D
:10242C004F4F542054494E590D0A00476F742049A0
:10243C006E697469616C2047505300476F74475044
:08244C005300310030003200A2
:00000001FF
